:10000000001000209D74000069BF000069BF00005F
:1000100069BF000069BF000069BF000069BF000040
:1000200069BF000069BF000069BF000069BF000030
:1000300069BF000069BF000069BF000069BF000020
:1000400069BF000069BF000069BF000069BF000010
:1000500069BF000069BF000069BF000069BF000000
:1000600069BF000069BF000069BF000069BF0000F0
:1000700069BF000069BF000069BF000069BF0000E0
:1000800069BF000069BF000069BF000069BF0000D0
:1000900069BF000069BF000069BF000069BF0000C0
:1000A00069BF000069BF000069BF000069BF0000B0
:1000B00069BF000069BF00003592000069BF000001
:1000C00069BF000069BF000069BF000069BF000090
:1000D00069BF000069BF000069BF000069BF000080
:1000E0004D7200006572000069BF000069BF00002A
:1000F00069BF000069BF000069BF000069BF000060
:1001000069BF000069BF000069BF00000000000077
:10011000013800D0FCE7704700000000000000003C
:1001200001F0FF01102A2BDB10F0070F08D010F8A8
:10013000013B013A8B422DD010F0070F42B3F6D1AC
:10014000F0B441EA012141EA014122F007047FF0C5
:1001500000070023F0E80256083C85EA010586EA1C
:10016000010685FA47F5A3FA87F586FA47F6A5FA58
:1001700087F68EB9EED1F0BC01F0FF0102F0070264
:1001800032B110F8013B013A83EA010313B1F8D10F
:100190000020704701387047002D06BF35460338F0
:1001A000073815F0010F07D1013015F4807F02BF29
:1001B000013015F4C03F0130F0BC0138704700BF7A
:1001C000F8B51646C1F30A5204460D460B4682B9ED
:1001D00021F00043034339D0334B00220AF0C0FC26
:1001E000324B9E4204460D460DDA27A3D3E9002385
:1001F0001CE040F2FF77BA4209D1024609F06EF8DE
:1002000004460D4622E0C1F30A520B46363A4CF240
:1002100050318E420DDD002D1DA1D1E9000102DA21
:100220001DA1D1E900011AA3D3E900230AF098FC2B
:10023000E6E7324440F2FE718A42ECDC002A08DD37
:1002400023F0FF4323F4E00343EA02552046294606
:10025000F8BD12F1350F08DA002D0BA1D1E900012C
:10026000C3DA0FA1D1E90001BFE723F0FF43363223
:1002700023F4E00343EA025520460D4B29460022B1
:10028000D4E700BFAFF3008059F3F8C21F6EA50199
:100290009C7500883CE4377E9C7500883CE437FE02
:1002A00059F3F8C21F6EA58100005043B03CFFFF18
:1002B0000000903C000000002DE9F04F23F00049C1
:1002C000064659EA020093B014461D460F4610D167
:1002D000B319264987F4002252419842914120D215
:1002E00022462B463046394608F0F8FF13B0BDE8E9
:1002F000F08F11461E4A27F0004B93459A46B846A8
:10030000334613D908F1404808F5801858EA030825
:10031000E6D12319154985F40022524198459141AF
:10032000DED31449002013B0BDE8F08F15D09145FD
:10033000E8D8DE4600F0AE83B8F1000F1CDB0029E0
:1003400040F0BD830B48814540F02B84BAF1000F8B
:10035000C0F2FA8430463946C8E7002EC0D1D945EC
:10036000BED800F05684DE46E6E700BF0000F0FF8E
:100370000000F07F0000F03FD748814500F2EC8399
:10038000D64881450FD94FEA2950A0F2FF301428F2
:1003900040F3C184C0F1340021FA00FC0CFA00F0F3
:1003A000884200F02E83002940F03D83BAF1804F4F
:1003B00000F03283009130463946CDF810E00293C8
:1003C0000AF0B0FA029BDDF810E0002B00F0388351
:1003D000009A4FEAD873013B0A93134300F08283DB
:1003E000BF4B994500F2CC83BE4B08EA0303002BB8
:1003F00040F01384BC4B00220AF0B2FB6FF03406CD
:100400008E464FEA2E53A3F2FF339F19B74B0B973B
:10041000CEF3130242F07F569A4246F4401640F360
:100420005884B34B9A4240F3A2849FED977B8DEDA5
:10043000087B9FED977B8DED067B9FED937B8DED8C
:10044000107B01370B97A6F580160027DDE9062300
:100450003146824608F040FFB346DDE90623804678
:10046000894650463146CDE90CAB08F037FF0246CD
:100470000B4600209F490AF09DFC8C46834663464C
:100480005A4640464946CDE90EBC0AF069FB0A4689
:100490000146CDE90212CDE9041200210291761045
:1004A000DDE902AB46F0005606F500230020D9191D
:1004B00006460F4602460B46504659460AF050FB88
:1004C00002460B464046494608F006FFDDE9062392
:1004D000804689463046394608F0FEFE02460B4605
:1004E000DDE90C0108F0F8FE52465B460AF038FBE5
:1004F00002460B464046494608F0EEFEDDE90E2373
:100500000AF02EFBDDE90467CDE9060132463B46E1
:10051000304639460AF024FB5FA3D3E900230646A0
:100520000F460AF01DFB5EA3D3E9002308F0D6FEB8
:1005300032463B460AF014FB5BA3D3E9002308F0E4
:10054000CDFE32463B460AF00BFB59A3D3E900230C
:1005500008F0C4FE32463B460AF002FB56A3D3E93C
:10056000002308F0BBFE32463B460AF0F9FA54A3DA
:10057000D3E9002308F0B2FE3246804689463B4666
:10058000304639460AF0ECFA02460B4640464946E8
:100590000AF0E6FA524606460F465B46DDE90401DC
:1005A00008F09CFEDDE906230AF0DAFA32463B4603
:1005B00008F094FE5246804689465B4650465946AE
:1005C0000AF0CEFA02460B46CDE90C234A4B002234
:1005D00008F084FE42464B4608F080FE00260F4697
:1005E00032463B46504659460AF0BAFA424B8246DA
:1005F0008B4600223046394608F06EFEDDE90C23BA
:1006000008F06AFE02460B464046494608F064FE82
:10061000DDE904230AF0A4FA32463B4606460F46BB
:10062000DDE906010AF09CFA02460B4630463946DF
:1006300008F054FE8046894642464B46504659468D
:1006400008F04CFE002620A3D3E9002330460F46D5
:100650000AF086FA5246CDE904015B463046394637
:1006600008F03AFE02460B464046494608F034FE82
:1006700017A3D3E900230AF073FA02460B4630466B
:10068000394616463AE000BF0000000000000000B6
:10069000000000000000F03FEF4E454A287ECA3FB0
:1006A00065DBC9934A86CD3F01411DA96074D13FE6
:1006B0004D268F515555D53FFFAB6FDBB66DDB3FF8
:1006C000033333333333E33F000000E009C7EE3F29
:1006D000FD033ADC09C7EE3FFFFF3F43FFFFEF3F5B
:1006E0000000E0410000F07F000040438E980300CE
:1006F00079B60B000000F03F000008401F460FF2E3
:100700005043D3E900230AF02BFA02460B46304649
:10071000394608F0E3FDDDE9102308F0DFFD8046EF
:100720000B98894608F026FF424682468B464B4688
:10073000DDE9040108F0D2FDDDE9082308F0CEFD73
:1007400052465B4608F0CAFD002652465B463046DC
:100750000F4608F0C1FDDDE9082308F0BDFDDDE925
:10076000042308F0B9FD02460B464046494608F00E
:10077000B3FD009B0A9A013B134382468B4600F06F
:1007800043829FEDDB7B8DED047B0023CDE90045AB
:100790000093DDE900892046424629464B4608F091
:1007A0009BFD32463B460AF0DBF922462B460446C7
:1007B0000D46504659460AF0D3F902460B462046EC
:1007C000294608F08BFD424604460D464B4630460E
:1007D0003946CDE902450AF0C3F906460F462046E0
:1007E00029463B46324608F079FDD54B99420446EE
:1007F0000D46884640F3E48101F13F4303F5E003F1
:10080000034340F0C882BCA3D3E90023DDE9020121
:1008100008F064FD02460B462046294614461D4654
:1008200032463B4608F058FD02460B462046294614
:100830000AF026FC002840F0AE824FF400734344D7
:10084000C3F30A52BF4CA2F2FF321441C3F3130A9E
:10085000C2F11402002004EA03014AF4801A4AFAA1
:1008600002FA0B460246B8F1000F30463946B8BFCF
:10087000CAF1000A08F030FD02460B4606460F4654
:10088000DDE9020108F02AFD4FEA0A5B0D4600246B
:100890009BA3D3E90023204629460AF061F932469A
:1008A000804689463B462046294608F015FD02460B
:1008B0000B46DDE9020108F00FFD93A3D3E9002305
:1008C0000AF04EF902460B462046294614461D46BC
:1008D0008FA3D3E900230AF043F902460B462046D2
:1008E000294608F0FBFC06460F4632463B4640468A
:1008F000494608F0F3FC42464B4604460D4608F0D4
:10090000EBFC02460B463046394608F0E5FC224631
:10091000804689462B46204629460AF021F97EA3C7
:10092000D3E9002306460F460AF01AF97CA3D3E95F
:10093000002308F0D1FC32463B460AF011F97AA3B5
:10094000D3E9002308F0CAFC32463B460AF008F916
:1009500077A3D3E9002308F0BFFC32463B460AF0F8
:10096000FFF875A3D3E9002308F0B8FC32463B46F4
:100970000AF0F6F802460B462046294608F0ACFC81
:1009800006460F4632463B46204629460AF0E8F81E
:1009900002460B463046394616461F4600224FF0A7
:1009A000804308F099FC02460B46304639460AF06F
:1009B00001FA424606460F464B46204629460AF0B3
:1009C000CFF842464B4608F089FC02460B463046BB
:1009D000394608F081FC22462B4608F07DFC024691
:1009E0000B460020584908F077FC0C465C44B4F5EF
:1009F000801FC0F2CC812146DDE904230AF0B0F863
:100A000074E40CF0010CCCF102020092002958D1E0
:100A1000BAF1804F7FF4CFAC32463B463046394680
:100A20000AF09EF862E430463946CDF808E00093BB
:100A300009F078FF009BDDF808E0002B52D100930D
:100A4000414B28F0404C9C4503D0BBF1000F7FF494
:100A5000BFACBAF1000F05DA02460B4600203A4956
:100A60000AF0A8F9B8F1000FBFF640AC009B0BF1FB
:100A7000404B0BF5801B5BEA030B40F06F81024695
:100A80000B461046194608F027FC02460B460AF0B2
:100A900091F92BE4002C7FF435AC0BF1404202F5C8
:100AA000801232433FF43DAC284B9B4540F22681F7
:100AB000BAF1000FC0F279812046294616E40022DF
:100AC000009230463946CDF810E0029309F02AFF33
:100AD000029BDDF810E0002BB2D04FEAD873013B47
:100AE0000A937DE432463B46CBE700BFAFF300807C
:100AF000000000000000F03FFE822B654715973C88
:100B000000000000432EE63FEF39FAFE422EE63F9A
:100B1000396CA80C615C20BED0A4BE726937663EF9
:100B2000F16BD2C541BDBB3E2CDE25AF6A56113FED
:100B300093BDBE166CC1663F3E5555555555C53FD4
:100B4000FFFF8F400000F0FF0000F03FFFFFEF3F8E
:100B5000F5015B14E02F3EBE002900F02A813046EB
:100B60003946CDF808E0009309F0DCFE009BDDF883
:100B700008E0002B00F0F0800223009300230A938A
:100B8000AF4B9945AF4B4BD99B4540F2B180BAF181
:100B9000000F40F3B180002013B0BDE8F04F09F022
:100BA000EBBEBAF1804F3FF437AFA74882457FF4E0
:100BB00001AC3046394613B0BDE8F04F09F0E2BE53
:100BC000DFF894C221F00043634540F2B5809F4BAB
:100BD0000B4403430AD132463B4608F07DFBDDE976
:100BE00002230AF043FA00283FF427AEDDE90401AE
:100BF000002200230AF026FA003818BF012013B0A3
:100C0000BDE8F04F09F0B2BE9FED797B8DED047B1E
:100C1000BBE5002C7FF464AB46E70026FFF7F1BB91
:100C20009B4565D38A4B9B45B1D8894B002208F080
:100C300053FB71A3D3E9002306460F4609F090FF4A
:100C40006FA3D3E9002382468B463046394609F02C
:100C500087FF804BCDE9020100223046394609F07A
:100C60007FFF02460B4668A1D1E9000108F034FB82
:100C700032463B4609F074FF02460B46002072499B
:100C800008F02AFB3246804689463B4630463946C4
:100C900009F066FF02460B464046494609F060FFF0
:100CA0005BA3D3E9002309F05BFF02460B46DDE9B5
:100CB000020108F011FB8046894642464B465046E9
:100CC000594608F00BFB002652465B460F4630465D
:100CD00047E59FED517B8DED087B9FED517B8DEDC1
:100CE000067B9DED087B00278DED107BFFF7AEBBEB
:100CF000BAF1000FFFF64FAF002080E7BAF1000F06
:100D00004FF000004FF00001BFF6F0AA204605F1B9
:100D10000041FFF7EBBA00297FF485AEC0F1140063
:100D200049FA00FC0CFA00F048454AD04848814591
:100D30003FF40CABFFF73ABB434A934250D8DDE98E
:100D4000002393469246A2E532463B4640490020A6
:100D50000AF030F8FFF7CABA022370E6009B012BB5
:100D60007FF4C4AA01F100431946FFF7BFBA9FED13
:100D70002E7B8DED087B9FED2E7B8DED107B9FED07
:100D80002E7B4FF480278DED067BFFF75FBB52462D
:100D9000FFF716FA30E6DDE90401002200230AF02D
:100DA00051F9003818BF0120F6E600200021FFF7B6
:100DB0009DBABAF1804F3FF42FAE02220092FFF7A6
:100DC000FABA234989453FF4C1AABAF1804F3FF4EA
:100DD00023AE0CF0010CCCF102020092FFF7EBBA4B
:100DE0001B15A3F2FE334FF4801242FA03F326E5FB
:100DF000000000000000F0BF000000604715F73F52
:100E000044DF5DF80BAE543E555555555555D53F0D
:100E1000FE822B654715F73F000000000000000030
:100E2000000000000000F03F0000004003B8E23F77
:100E300006D0CF43EBFD4C3E000000000000F83F21
:100E40000000F043FFFFEF3F0000E03F00346F3F42
:100E50000000F03F0000D03FFFCB90400348044B20
:100E6000834202D0034B03B118477047241100207E
:100E700024110020000000000548064B1B1AD90F62
:100E800001EBA301491002D0034B03B1184770478F
:100E900024110020241100200000000010B5064C91
:100EA000237843B9FFF7DAFF044B13B10448AFF3DB
:100EB00000800123237010BD30830020000000005B
:100EC0009801010008B5054B1BB105490548AFF372
:100ED0000080BDE80840FFF7CFBF00BF0000000062
:100EE0002411002098010100A3F5803A704700BF4B
:100EF000174B002B08BF134B9D46FFF7F5FF002152
:100F00008B460F461348144A121A0BF048F90E4B41
:100F1000002B00D098470D4B002B00D098470020A5
:100F2000002104000D000D48002802D00C48AFF34A
:100F3000008009F049F8200029000AF048FE08F076
:100F4000A5FD00BF00000800000000000000000038
:100F50000010002024110020C80101200000000022
:100F6000000000002DE9F04FC7B002F10E038346E8
:100F700004930591901E06ABB0F93220B0F91270BF
:100F8000B0F922400092009EB0F942C0B0F95290F0
:100F9000B0F96220B0F9728030F9021F47EA040507
:100FA00035434CEA050549EA0505154358EA0505A8
:100FB00040F0B8808900C3F8E010C3F8C010C3F84F
:100FC000A010C3F880101966196419621960049A98
:100FD000824203F10403CFD1002306AC0093A26840
:100FE000A3692569D4F804808E4EE768D11840F6CD
:100FF000A90041438C4800FB031340F63F4000FB2F
:10100000021122685019521BC1EB003CC3EB023E97
:1010100001EB0035E069019503EB0231E3680291D1
:10102000C218636903EB0801531841F2D0256B43E2
:1010300000EB080506FB0535666906EB07097B4EE4
:1010400072437B4E6FF4245A71430AFB093305EB5C
:10105000010941F6050A0AFB0899154403EB020849
:1010600040F2C74202FB0055019A43F22A1A0AFBDA
:10107000078802F1807707F58037029A0B4409EB65
:101080000700616942F2DA06401406FB01330CF1F5
:10109000807102F180760EF180720AF075F8A7EB8C
:1010A00009078BF8000078140AF06EF806F5803610
:1010B0008BF8070008EB060040140AF065F8A6EB71
:1010C00008068BF8010070140AF05EF802F5803211
:1010D0008BF80600981840140AF056F88BF80200B6
:1010E000D01A40140AF050F801F580318BF8050051
:1010F000681840140AF048F88BF80300481B4014A5
:101100000AF042F8009B8BF8040001330093059B22
:101110009B44009B082B04F120047FF460AF47B090
:10112000BDE8F08FA51840F6A90675434EF271266A
:1011300012FB065240F63F4614FB06540CEB010529
:10114000A1EB0C0104EB0536C4EB053402EB0135D1
:10115000C2EB01320392009A019608EB020C09EBF4
:10116000070E0CEB0E012F4E029441F2D024614386
:1011700008EB070406FB041409EB020A6FF424567B
:1011800006FB0A1106F69F1606FB0CFC284E06FB12
:101190000EFE04EB0E0A41F6050617FB06A701EB4F
:1011A0000C0A714442F2DA0E19FB0E1901996444DB
:1011B00001F5007E40F2C74C18FB0C4443F22A169E
:1011C00007EB0E08AEEB070E12FB06A605F5007541
:1011D0004FEAAE27039AC3F8E0707719AD1B02F50A
:1011E0000072AD120299C3F8C05009EB0205A2EBE0
:1011F000090201F5007C9212C3F8A02004EB0C0256
:101200009212ACEB040C4FEAA828BF12AD121A667A
:101210004FEAAC22C3F800801F621D64C3F880202F
:10122000D5E600BF9BF1FFFF71E2FFFF9EE0FFFFED
:10123000C3F9FFFF2DE9F04FDFF89880DFF89890B1
:10124000DFF898A00E4617469E4600244FF0FF0B8D
:10125000099B9C4201DBBDE8F08F315D1EF8045014
:101260001A4A3B5D090501F50021803D02FB051C82
:10127000174A803B02FB051508FB03F202EA09024C
:101280000AFB03132A44BCF1805F4FEA2C514FEA5A
:1012900022524FEA235303D30029B4BF0021FF2178
:1012A000FF2A03D9002AB4BF0022FF22FF2B03D953
:1012B000002BB4BF0023FF2383700A9B0170427090
:1012C00080F803B001341844C2E700BF006F160075
:1012D0000093F4FF007EFAFF0000FFFF005A1C009D
:1012E00070B51546CA7804460E46002A41D0883AA1
:1012F0002A4900200AF088FF08F0A6F9022D07EE1F
:10130000100A337811DC72781344B278134407EE74
:10131000903AF8EEE77AF0EE086A67EE877A87EEA1
:10132000A67A84ED007A20D070BD07EE903AF8EEF0
:10133000E77A042D67EE877AC4ED007A737807EEBA
:10134000903AF8EEE77A67EE877AC4ED017AB378DF
:1013500007EE903AF8EEE77A67EE877AC4ED027A04
:10136000E2D14FF07E53E360DEE74FF07E536360DF
:10137000DAE7013D032DD7D8DFE805F00D0A0502B5
:101380004FF07E53C3600023A36063602360CBE70C
:101390004FF07E5343600023F8E700BF0000F03FAA
:1013A00001480AF059B900BFC0C700004B1C012B0F
:1013B00017D991EA000F08D447F6FF7393FBF1F3B6
:1013C0008342B4BF0020012070470029064B93FBE5
:1013D000F1F304DA9842CCBF002001207047984214
:1013E000EFE70120704700BF0080FFFF70B500F5F8
:1013F00080450C46D5F8C0378B4201DA0AF08FF9E8
:10140000D5F8C007A04218DBD5F8BC370C4A001B42
:10141000C4F1200163FA01F1C5F8C007D80F094BE8
:1014200052F8242053F82430013821EA02061840EB
:101430000A40C5F8BC67104470BD0020FCE700BF3F
:1014400038D50000F8D4000038B500F580440D46CA
:10145000D4F8C0378B4201DA0AF061F9D4F8C0271A
:10146000AA4210DBD4F8BC37C5F12001CB410749B3
:1014700051F82500521B23EA0001C4F8BC17C4F838
:10148000C027184038BD0020FCE700BF38D5000059
:10149000F8B500F580440E46D4F8C0370F2B01DCB8
:1014A0000AF03DF9D4F8BC27D4F8C057D30DF35C4B
:1014B000FF2B0DD0334493F80015A94217DC8A4066
:1014C000691AC4F8BC27C4F8C01793F80004F8BD23
:1014D000110C06F5C5630A2053F8047F8F4201D82A
:1014E0000130F9E7112805D1103DC4F8C0574FF07D
:1014F000FF30ECE7A842FADCDFF86CC0C0F1200353
:101500005CF8201022FA03F30B4006EB8001D1F8BF
:101510004C160B44FF2BEAD8F71803F5807397F8A5
:1015200000E536F813305CF82EC0CEF1200122FA27
:1015300001F101EA0C01994206D0084B084A09481A
:1015400040F65C0108F084FA2D1A8240C4F8C057B6
:10155000C4F8BC2797F80004B9E700BFC4C700006F
:101560002BD0000016C8000038D5000010B5044686
:101570000C490AF04AFAD4F8B430C4F8AC30D4F8C4
:10158000B830C4F8B03058B9074920460AF03DFADF
:10159000D4F8B430C4F8AC30D4F8B830C4F8B030B3
:1015A00010BD00BF25C8000031C8000038B5012BB0
:1015B0001C4602F1FF330BD1421CFF24002B00DA42
:1015C00038BD02F81340CD5C00F81350013BF5E73D
:1015D000032C06D00F4B104A104841F24D2108F061
:1015E00037FA00EB820002EB42021144FF22002B8B
:1015F000E6DB00F8012C11F8014C00F8024C11F860
:10160000024C00F8034C11F8034D00F8044D013B67
:10161000EDE700BF58C800001ED1000016C800004A
:1016200008B50029BABF49428840C840FF2806D9FA
:101630000D4B0E4A41F221510D4808F009FAC2F152
:101640000803082A20FA03F004D90A4B074A41F29A
:101650002351F1E7084B53F822305843074B53F816
:101660002230184108BD00BF63C8000098D00000B8
:1016700016C800006BC8000074D0000050D00000F5
:101680002DE9F041DFF84C8006460D4600240A277C
:10169000304609F064FDA8B92B78303BDAB2092A4C
:1016A00010D8304607FB043409F0DFFF44452870AA
:1016B00002DCEDD13728EBD9044808F0B9F9044B26
:1016C000036000242046BDE8F08100BF1010002018
:1016D00082C80000CCCCCC0C2DE9F3410446154661
:1016E0001F460E4601B901AE05B901AD07B901AFFC
:1016F000D4F8B430C4F8AC30D4F8B830C4F8B03052
:10170000204609F0B2FF8046204609F0AEFFB8F14E
:10171000500F04D1A0F13503DBB2012B0BD9D4F863
:10172000B430C4F8AC30D4F8B830C4F8B0300020CD
:1017300002B0BDE8F081362814BF012303233B60CB
:10174000204609F092FF0DF103018DF803002046B9
:101750000AF0B2F80DF103012046FFF791FF306067
:1017600028B9154808F064F9144B0360DFE70DF160
:10177000030120460AF0A0F80DF103012046FFF70F
:101780007FFF28600028ECD00DF1030120460AF00D
:1017900093F80DF103012046FFF772FFB0F5803F8B
:1017A00004DB054808F044F9054BDEE7B0F5807F1F
:1017B000B4BF08201020BBE71010002099C800001B
:1017C000A7C800002DE9F04104460D46174698468B
:1017D00009F04BFF472807D0304808F029F9304B73
:1017E00003600020BDE8F081204609F03EFF492853
:1017F000F2D1204609F039FF4628EDD1204609F004
:1018000034FF3828E8D1204609F02FFF372801D0CF
:101810003928E1D1204609F028FF6128DCD11F4892
:1018200008F006F91F4B03600646204609F047FF03
:101830002860204609F043FF6860204609F015FF44
:101840006861204609F011FFA861204609F00DFFEC
:101850004FF0FF332B622B68E861B3F1807F02DD2C
:10186000114B3360BDE76B68B3F1807FF8DC0FB1DB
:1018700004233B60B8F1000F0ED16A6913060BD543
:10188000022102F0070201FA02F24FF0FF3305F1E4
:101890002801204609F0BFFF0120A3E71010002017
:1018A000C2C80000F9CE0000CAC800002DE9F0410E
:1018B0000646884614460025802718EA070F10D0F0
:1018C000304609F04CFC40B1094808F0B1F8094B2A
:1018D000036000242046BDE8F081304609F0C5FED3
:1018E00060550135042D4FEA6707E6D1F2E700BFE6
:1018F00010100020D4C8000070B50B4E054600241F
:10190000284609F0B2FE16F8013B984206D0074877
:1019100008F08EF8064B0360002070BD0134082CDF
:10192000EED10120F9E700BF58D1000010100020CF
:10193000DDC8000070B5036A4161054633B911483E
:1019400008F076F8104B0360002070BD8069EE69E6
:101950000C1AA2180FD2361AB2420AD8314608F031
:101960005DF940B10444A8613044E8616C61012034
:10197000EBE7002E04DA034808F05AF8034BE2E7DD
:101980007600E9E710100020E9C80000B9C800009F
:101990002DE9F04FA3B017464422054688460DEBCB
:1019A000020000210AF0FBFB4FF480620021284670
:1019B0000AF0F5FB0023BB4214DB0023119311AAAC
:1019C000012310461C4650F8046F04FA03F18E42BE
:1019D00014DD414808F02CF8404B0360002023B090
:1019E000BDE8F08F18F8032022A901EB8202013331
:1019F00052F8441C013142F8441CDCE70133102B3F
:101A0000E1D100230DF1040905F5806605F5846E2A
:101A10000F2419464FF0010A26F8023F52F8040F2E
:101A200049F8043FA6F86410034450B1C4F1100C07
:101A30000AFA0CFC9C4504DA274807F0F9FF284B0A
:101A4000CBE703FA04FC013C4EF804CF4FEA430312
:101A50000144E1D14FF48033C5F86034BC4201DB6E
:101A60000120BCE718F8046006B322AB03EB860341
:101A700005EB460253F8849CB2F80034B2F86424B3
:101A8000A9EB03031344EA1805EB4303092E82F87C
:101A900084644FEA860AA3F8A44509DD0AF18803A5
:101AA0000DEB030A09F101034AF8843C0134D5E740
:101AB000484609F0ECFBC6F1100344EA462B1841F6
:101AC00001231FFA8BFBB340B0F5007FE6DA25F85F
:101AD00010B01844F8E700BF10100020FDC8000047
:101AE00007C900002DE9F047ADF51C6D052104463E
:101AF00009F00CFC05210646204609F007FC0421EC
:101B00000746204609F002FC1322051D0021684605
:101B10000AF045FBDFF8F0904FF00008A84523DB02
:101B20001322694677A8FFF733FF98B306F2011630
:101B3000013706EB07094FF0000A0DF11408CA45FA
:101B40001DDB22D1324605A904F12400FFF720FF56
:101B500000B305AB3A46991904F60800FFF718FFE1
:101B6000003818BF012016E00321204609F0CEFB03
:101B700019F8013B08F101080DF80300CEE777A939
:101B8000204609F0D7FB122809D91D4807F050FF5D
:101B90001C4B036000200DF51C6DBDE8F0870F287D
:101BA00004DC08F80A000AF1010AC8E7102816D177
:101BB0000221204609F0AAFBC51CBAF1000FE4D0AF
:101BC00008EB0A0313F8011CA9EB0A03AB42DCDBA8
:101BD00008EB0A002A460AF0E2FAAA44AFE7112805
:101BE00006D10321204609F091FBC51C0021EBE73B
:101BF0000721204609F08AFB00F10B05F6E700BF3C
:101C00001010002007C90000E9CF00002DE9F74FB0
:101C1000044649B309F05CFB0146204609F058FB35
:101C2000D4E900239A4208D3934807F001FF934B6D
:101C30000360002003B0BDE8F08F914A00EB012360
:101C40005343904A9342EFD8820604D58A4807F05E
:101C5000EFFE8D4BECE701F00F01082904D0864818
:101C600007F0E6FE894BE3E70023C4E90333DFF81E
:101C70004082DFF84092A3600121204609F046FB34
:101C800002210746204609F041FB0546002857D1AE
:101C9000A16811F0070102D0204609F037FB01A826
:101CA0000146A368002B05DC12D0734807F0C0FE84
:101CB000774BBDE7226900F8012B083B120A01357A
:101CC0002261A360EDE7204609F002FB485501358B
:101CD000042DF8D19DF805309DF804509DF806209C
:101CE00005EB03259DF8073002EB032285F47F43C3
:101CF00083F0FF039A42D8D1236862682B449A424A
:101D000004D25D4807F094FE624B91E76169E26995
:101D10004B199A4205D22A462046FFF70BFE0028AF
:101D200087D0216860692A460AF060FA23682B444C
:101D3000236063692B446361002F9DD0012079E704
:101D400003283FF476AF012824D153494FF4907211
:101D500004F12400FFF71CFE00283FF46AAF4F494E
:101D6000202204F60800FFF713FE00283FF461AFBD
:101D70006569DFF844A104F12401204609F0DAFA8C
:101D8000FF28064619DC002808DA3B4807F050FE19
:101D9000434B4DE72046FFF7A5FEE6E7E369AB427C
:101DA00008D8012229462046FFF7C4FD00283FF449
:101DB00040AF656905F8016BDDE7B0F5807F0BD1B9
:101DC000E3686561002BB7D0A3680F2BB4DC2A4809
:101DD00007F02EFE334B2BE7B0F58F7FD5DA6FF48B
:101DE0008073C31859F8231058F8236019B120469E
:101DF00009F08CFA064404F60801204609F09AFA24
:101E00001D28C2D8284B5AF820B053F8201019B119
:101E1000204609F07BFA8344A369EB1A5B4504DA98
:101E2000154807F005FE214B02E7E3695B1BB3424F
:101E300008DA324629462046FFF77CFD00283FF4A9
:101E4000F8AE6569BBF1010FA5EB0B0308D1002EBD
:101E500091D01B782E4405F8013BB542FBD18AE7AF
:101E6000002E88D06A1E991913F8010B02F8010F91
:101E70009942F9D135447EE71010002017C90000BF
:101E8000DF7BEFBD8410420827C9000036C900007F
:101E900046C9000053C900008ED100006ED1000079
:101EA00064C9000075C90000B0D2000084C90000F8
:101EB0002CD40000B0D3000030D300002DE9F84F3F
:101EC00000F580489946D8F8C0370F2BDDE90BB6EE
:101ED00005460F46144601DC09F021FC2146284640
:101EE000FFF7D6FA0F28044604D94E4807F0A0FDA4
:101EF0004D4B37E08022002138460AF050F9BCB93A
:101F0000482303FB0B5344F2B462985831884823AA
:101F100003FB0B5B44F2B46304444BF803402046DC
:101F2000FFF744FA40BB3F4807F082FD3F4B19E002
:101F300021462846FFF75AFA482303FB0B5344F285
:101F4000B4620446985890EA040FDFD400280DDAF2
:101F5000002CDBDAC4F100439842D7DA314807F0AD
:101F600067FD334B03600020BDE8F88F6FF000433E
:101F70001B1B9842F2DCC9E714FB01F02D4C3880A2
:101F80004FF0010BD8F8C0370F2B02DC284609F0C0
:101F9000C6FBD8F8BC070A9AC30D32F91330FBB15F
:101FA000D8F8C01703F00F0CC3F3031261455A446D
:101FB0009BDBA1EB0C01C8F8C017A15C02F1010B7F
:101FC00036F811201B1200FA0CF012FB03F3C8F8CC
:101FD000BC0727F81130BBF13F0FD3DD0120C3E769
:101FE00049462846FFF754FA0028FFF67EAF10F066
:101FF0000F0104D1F028F1D10BF1100BEBE70BEB43
:10200000201000F1010B14F800A02846FFF7EEF9AC
:102010000FFA8AF336F8132012FB00F227F8132088
:10202000D9E700BF1010002064C9000097C9000064
:102030008DC90000A8D40000F8B504460439012277
:10204000002004F2FF4651F8045F03461F1ABD4208
:1020500004DC0132112A0DD01846F4E70133B3F540
:10206000807FF254F2DD2F4807F0E2FC2E4B036034
:102070000020F8BDE218002382F8003504F2046065
:102080001D46012204F5A06604F5FF77E91AC16434
:10209000611991F8001591420FD1715D914207D0FD
:1020A000591ED14009D01F4807F0C2FC1F4BDEE784
:1020B000013527F815300133EFE7C2F11001013285
:1020C00003FA01F1112A40F8041F4FEA4303DDD15E
:1020D0004FF0FF334FF40072C4F84836FF2120461A
:1020E0000AF05DF804F2FF46002204F500774FF095
:1020F000010CAA4201D10120BBE716F8013F092BD0
:102100000DDC37F81210C3F1090399400CFA03F300
:102110000B446018234400F8012B9842FBD1013294
:10212000E7E700BF10100020ADC90000BBC90000E8
:102130002DE9F04F93B0DD2904460D4615D008DC9B
:10214000C42962D0DB2923D0B54807F071FCB54B18
:1021500006E0FF2940F0FA80B14807F069FCB24B75
:102160000360002013B0BDE8F08F006809F091FA19
:10217000042804D0AA4807F05BFCAC4BF0E72068C9
:1021800009F087FA04F58044C4F804080120E9E75F
:10219000006809F07EFA851E002D03DC0CBF0120CB
:1021A0000020DFE7206809F060FA1F284FEA2017B7
:1021B00000F00F0604DD9A4807F03AFC9C4BCFE78D
:1021C00010F00C0F04D0964807F032FC994BC7E78B
:1021D000DFF87092B60109F14008206897B109F064
:1021E00058FA80B219F8013B334403F5D25304EB9B
:1021F0004303C8459880F0D1002F0CBF41238123B1
:10220000ED1AC9E709F031FAECE7006809F041FA84
:1022100004F5D256871E0436002FBFDD206809F072
:1022200024FA1F284FEA201900F00F0802DC10F0F2
:102230000C0504D07A4807F0FBFB7F4B90E70DF1CB
:10224000080A2B46D3462068019309F00EFA019B39
:102250004AF8040B0133102B0544F4D1B5F5807F07
:10226000E8DCA7F1110301934FF4D26303FB08FAF2
:10227000B9F1000F14D1201D59465044FFF7DCFE80
:1022800000283FF46EAF0AF20447274407EB050B22
:102290005F4511D1B9F1000F14D1019B5F1BBBE762
:1022A000594606EB0A00FFF7C7FE00283FF459AF76
:1022B0000AF5F2570437E8E7206809F0D6F907F87D
:1022C000010BE5E704EB882202F55A524FF0000CAF
:1022D00006EB0A010232E0464FF001094FF0FF3AE7
:1022E00011F80C3022F8028FFF2B29D00B4493F801
:1022F000007417F00F0023D093F8003500EB030EA5
:10230000BEF1090F1CDC0CFA03F3C0F1090BC3F397
:10231000080343FA0BF300F1FF3B09FA0BFB5B45A3
:10232000BEBF0AFA00F001301B1803F18000FF283D
:102330009FBF3F1107EB03170EEB071EA2F800E04B
:102340000CF1010CBCF5007FCAD1A6E7A1F1E003B6
:102350000F2B1DD8006809F09CF90128064629DDDD
:10236000E02DA0F1020130D104291ADDDFF8D88078
:1023700000270125206809F078F918F8013B01379A
:10238000984218BF0025052FF4D1C5B9F11F08E008
:10239000FE297FF4D9AE006809F07BF9012804DD3D
:1023A000811E206809F0C9FAF0E61D4807F040FBDD
:1023B000224BD5E61A4807F03BFB214BD0E604F54B
:1023C00080430122C3F8E427E0E7EE2DE9D10B2991
:1023D000E7DDDFF8788000270125206809F045F95E
:1023E00018F8013B0137984218BF0025062FF4D199
:1023F00015B9A6F10801D4E7206809F036F920687C
:1024000009F047F9206809F044F9206809F02DF92E
:1024100004F58043A6F10E01C3F8E807C1E700BF49
:10242000101000202ACA0000CCC90000DCC900003E
:10243000E8C90000F5C9000003CA000012CA000084
:102440001ECA0000A8D400004BD0000045D00000F8
:102450002DE9F04F8BB08F6805460C461E46002FC5
:1024600040F089803B46FFF7ADF960B1D4E90062E6
:102470003B463146042008F034FE48B9BF4807F017
:10248000D7FABF4B0360002528460BB0BDE8F08F9C
:1024900056434FEA8608404607F00AFBA0604046D4
:1024A00007F006FBE060304607F002FB03462061C0
:1024B000A06810B1E26802B123B9B04807F0B8FAD9
:1024C000B04BDFE74246394609F069FE42463946DD
:1024D000E06809F064FE20693246394609F05FFE83
:1024E00001230393D4E9003220695A43002109F003
:1024F00056FE284609F0B9F82C2874D03B28C3D0E2
:10250000212840F0CB81284609F0AFF8F92828D1DE
:10251000284609F0AAF801460429284640F0BB8164
:1025200009F0A3F86062284609F0C9F80A2204F508
:1025300000435043C3F85408236A002BA2BF04EBA6
:102540008303FF2283F82B20636ADB0740F19B8122
:10255000284609F08AF8206204EB8000002380F806
:102560002B30284609F081F801460028C1D02846C2
:1025700009F0E3F9F5E74B6AD1E90021C3F38203DF
:10258000032B01FB02F82AD13EBBB0451BDD2369BA
:102590009B5D43B1D4E90201042201EB860100EB0B
:1025A000860009F023FE0136EFE72369DB5D3BB1CE
:1025B000A068042206EB870100EB870009F016FEF5
:1025C0000137B845F1DCD4E900235A43D4E90210BD
:1025D000920009F00BFE002383E70027F1E7022BAE
:1025E000F1D10026D1E7284609F069F8804628464F
:1025F00009F065F80746284609F061F88146284643
:1026000009F05DF8216808EB09038B4203DC63687D
:102610003A189A4204DD594807F00AFA5A4B31E752
:10262000890004F5004601FB07F34FEA880201FB2D
:10263000003002EB8907C6F83C38B9F1000F08BF3B
:102640000346C6F83828C6F84078C6F84408C6F8E5
:102650004828C6F84C38C6F85018284609F005F83E
:10266000D6F85038C6F8340810F040021CBFDB0022
:1026700003220706C6F83038C6F82C2840F18680B9
:10268000636A00F00700D90704F585674FF002027E
:1026900002FA00F24CBF236A4FF0FF333946284656
:1026A00009F0B9F8C6F82878284608F0DEFF0C28AB
:1026B0003FF6E9AE012303FA00F20192C2189340FB
:1026C000013B02920693002223464FF6FF70D1B2DF
:1026D00083F82A1883F82B180199A3F828080132E7
:1026E000914203F10403F2D10B46023304931E46D8
:1026F00001230593019BDDF818A0DDF808B04FF029
:10270000000901334A464FF0FF31C8460793CB45D5
:1027100062DDB8F1000F4FD12846CDE9082108F05D
:10272000A4FFDDE908218046002845D1A568002DD9
:102730003FF4A9AE039B002B3FF4A6AEA369002B88
:102740007FF7A2AED4E9007300265F434FF0FF0885
:10275000B7427FF799AE23699B5D6BB9A16904EB22
:1027600081030A3183F82B80A068042204EB8101E5
:1027700000EB860009F03AFD0136E9E71010002071
:10278000CAC80000B9C8000039CA000063691A0647
:1027900002D504F1280785E7434807F049F9434B80
:1027A00070E60023049EDDF818A0DDF808B005935C
:1027B0004FF0FF373946AAE72846CDE9082108F04F
:1027C00054FF089A099900FA09F008F1FF3802430A
:1027D00009F108090F46EDE7019B02EA0A07BB422F
:1027E00042FA0BF2A9EB0B09DBD0079B9F420AD1FF
:1027F0004146284609F0A1F8284608F036FF014670
:102800000028F6D192E7B74238DC059B23B1264871
:1028100007F00EF9264B35E600292DDB701CB0F5CC
:10282000005F04DD204807F003F9224B2AE604EBA1
:102830008606A6F8281804EB810191F82A1886F874
:102840002A1804EB870191F82A1886F82B180646F7
:10285000B9B22046089208F015FE1AEA060F089A47
:10286000A8D1B6F5805FA5DA0BF1010B012303FABD
:102870000BFA0AF1FF3A9DE7B742E9D10A4807F09F
:10288000D7F80D4BFEE50121284609F03EF84FF040
:10289000FF33236265E609F050F82AE6024807F0A4
:1028A000C7F8064BEEE500BF101000204ECA00002E
:1028B00062CA000070CA00007FCA000096CA000009
:1028C0002DE9F74F00F580460023C6F8E4374FF0B6
:1028D000FF33C6F8E83786F8C4370746884609F05C
:1028E00037F8D82805D0B74807F0A2F8B64B0360F0
:1028F00024E0B8F1010F03D1012003B0BDE8F08F4F
:10290000384609F025F8A0F1C003022B11D8A0F138
:10291000C20359423D685941C6F8CC17284608F011
:10292000B8FE0A2804461ADCA64807F081F8A74B2F
:10293000DDE701463846FFF7FBFB08B90020DCE77E
:10294000384609F005F8FF28DDD1386808F007FCA3
:102950000028F5D09B4807F06BF89D4BC7E7284649
:1029600008F083FE082804D0964807F061F8994BD8
:10297000BDE7284608F08DFE686020B9914807F051
:1029800057F8954BB3E7284608F083FE286020B936
:102990008C4807F04DF8914BA9E76B68B3F1807F45
:1029A00004D9884807F044F88D4BA0E7B0F1807F48
:1029B000F7D8284608F059FEC31EDBB2012B06D912
:1029C000012804D07F4807F033F8864B8FE707F5DE
:1029D0008D430022A86048331146904203F148031A
:1029E0005ADC0323082213FB00239C429CD1DFF80E
:1029F0000892002307F58D4AC6F8EC370AF11C0A45
:102A00004C46AA68A4EB09039A424BDCB8F1000FCC
:102A10007FF472AFD5E900B143465846009108F003
:102A200060FB0028BDD007F58D4420344FF001092C
:102A300000992346C446CA46624503F148036CDC4C
:102A40002346002000900098824273DC4FEACA00BF
:102A50000BF1FF330344B3FBF0F3C6F88C360AF1F5
:102A6000FF334FEAC9020139009309F1FF331144E2
:102A7000C6F884A6B1FBF2F1C6F88896C6F89406AB
:102A8000C6F89826C6F8901601934FF0000BAB6875
:102A9000984565DB012091E043F8481C43F83C1C55
:102AA00001329AE7284608F0E0FDCAF80000AB685A
:102AB000032B07D12378984202BFD6F8EC370133B5
:102AC000C6F8EC37284608F0D0FD0311CAF80430E8
:102AD0000BB1042B04DD3B4806F0AAFF424B06E78E
:102AE00000F00F00CAF808000138032804D935485F
:102AF00006F09EFF3D4BFAE6284608F0B6FD032897
:102B0000CAF80C0004F101040AF1480A7FF779AF12
:102B10002C4806F08DFF364BE9E653F8480C824509
:102B2000B8BF824653F8440C8145B8BF81460CF1CA
:102B3000010C81E718689AFBF0FC00FB1CAC9E4678
:102B4000BCF1000FC7D1DEF804E099FBFEFC0EFBE0
:102B50001C9C4833BCF1000FC9D10098013071E7CB
:102B60002B682068009A616803FB0023019AB3FB7D
:102B7000FAF3A3616B6803FB0123B3FBF9F3E36191
:102B8000D6F88C365843C0002062D6F89036C4F888
:102B900038B05943C900C4E90CBB61620F2208F088
:102BA00047FD08F10108E06240BB064806F040FF1F
:102BB000104B03604146384608F03FFF003818BF0D
:102BC00001209AE610100020A3CA0000B1CA00003C
:102BD000AACA0000BDCA0000C8CA0000D9CA0000C5
:102BE000CAC80000E1CA0000F5CA0000FBCA000024
:102BF00001CB0000B9C8000042D000000F30D6F869
:102C0000CC3720F00F00A062C3B1206A616A0028AF
:102C10000346B8BFC31DDB100029E3630B46B8BFF2
:102C2000CB1DDB10236402220F2308F0F1FC20638C
:102C30000028BAD00F3020F00F00A063483426E7F8
:102C40002DE9F04FADF22C4D88460AA9DDF85094DD
:102C5000074616461C4608F003FEB149054609F032
:102C6000BBFA88B9AF4D4FF0000A0AA9384608F000
:102C7000F7FD08900378CBB1294609F0ADFA00289A
:102C800008BF4FF0010AF0E7A749284609F0A4FA67
:102C90000028E7D0A54806F0CBFEA54B03604FF017
:102CA000000840460DF22C4DBDE8F08FBAF1000F40
:102CB00004D19E4806F0BCFE9E4BEFE70AA93846B9
:102CC00008F0CEFD9C490890032209F070FA20B16B
:102CD000964806F0ADFE994BE0E708980A220330CB
:102CE00008A9089007F020F8019008980378202B95
:102CF00016D09349032209F05AFA01460028E7D179
:102D0000089B0A22D81C089007F00EF8019BB3F12B
:102D1000807F054607DD854806F08AFE894BBDE7C2
:102D200001300890E1E7B0F1807FF4DC019BC8F846
:102D3000000033600CB103232360B9F1000F08BF1A
:102D40004FF00309019904234A46284608F098FEEB
:102D50000028E0D001990423284608F0A7FE804609
:102D600020B9724806F064FE774B97E7A5F1080298
:102D700047F6F7739A4211D809FB05F39B00CDE99A
:102D80000303002302931C46DDE90132934207DC72
:102D9000002C86D0204606F093FE82E7002439E01E
:102DA000384608F062FC8346384608F05EFC06466A
:102DB000384608F05AFCBBF1020F03D1022E01D1B4
:102DC00003062ED58DF8260038468DF824B08DF8F0
:102DD000256008F04AFC4A468DF8270009A94046BC
:102DE000FEF77EFA204606F06BFE0024042209A9B5
:102DF000384608F0A7FB04FB05A000FB09F04A4693
:102E000009A908EB8000FEF76BFA0AF1010A5545A3
:102E1000ECDC0134019BA3427FF743AF4FF0000A83
:102E2000F5E70602384608F020FC304385420AD018
:102E3000404606F045FE204606F042FE3B4806F0BE
:102E4000F7FD424B2AE754B922460421284608F0F0
:102E5000EFFB044618B9404606F032FE81E7002336
:102E60004FF0000B2A463846CDE9052308F0FDFB5C
:102E70008028DDE9052306463BD9384608F0F5FBF6
:102E8000803E059A069BF6B296420ADD404606F061
:102E900017FE204606F014FE244806F0C9FD2C4B10
:102EA000FCE603EB8B012144002201F822000132F1
:102EB000B242FADBB344A5EB0B02002AD3DC0133A8
:102EC000042BCDD103984FEA890B002604EB860131
:102ED0004A4605900136FEF703FA0598B542584474
:102EE000F4D1029B01330293DDE9033213440393CF
:102EF0004AE70028CAD09042C8DC03EB8B0121448A
:102F000000223846CDE90631059208F0AEFB059A5D
:102F10000799069B01F822000132B242F1DBC9E7B2
:102F200008CB000039C8000013CB000010100020AF
:102F30001ACB000022CB000050C8000035CB0000A7
:102F400054C80000CAC80000B9C800004DCB00003A
:102F50004BC90000F8B505460C4608F086FB422830
:102F600006D0894806F064FD884B03600020F8BD58
:102F7000284608F07AFB4D28F3D1284608F0AAFB32
:102F8000284608F09CFB284608F099FB284608F0E4
:102F9000A1FB6060284608F09DFB0023C4E90533CF
:102FA000C4E903330E2323626368A060002B074645
:102FB00004DA754806F03CFD754BD6E70C280AD0BC
:102FC00020F01003282B1BD06C2B19D06E4806F074
:102FD0002FFD704BC9E7284608F071FB2860284692
:102FE00008F06DFB6860284608F069FB0128E0D115
:102FF000284608F064FB0C2F206009D10120B6E7B9
:10300000284608F067FB2860284608F063FBE9E7DC
:10301000284608F05FFB431E012B064604D85A4899
:1030200006F006FD5C4BA0E7032804DD564806F0D9
:10303000FFFC5A4B99E704D12368102B01D0202BB9
:10304000B7D1284608F046FB284608F043FB28463F
:1030500008F040FB284608F03DFB284608F03AFB04
:10306000282F0DD0382F41D1284608F033FB2846B1
:1030700008F030FB284608F02DFB284608F02AFB14
:103080002368102B09D1C6B94FF478734FF4F84C6C
:10309000C4E903C31F236361B0E7202BAED166B937
:1030A0004FF47F434FF47F05C4E90353FF274FF0EC
:1030B0007F43C4E90573E661A0E7032E7FF479AF8F
:1030C000284608F007FBE060284608F003FB206173
:1030D000284608F0FFFA236A60610C332362D4E9C2
:1030E000033293428AD1984288D162E727F01003D5
:1030F0006C2B7FF45EAF284608F0ECFAE0602846BF
:1031000008F0E8FA2061284608F0E4FA60612846F1
:1031100008F0E0FAA06156B92368102B20D14FF4D3
:1031200078734FF4F840C4E903031F236361284612
:1031300008F0D0FA0C24284608F0CCFA013CFAD169
:103140007C2F7FF45BAF284608F0C4FA284608F0CD
:10315000C1FA284608F0BEFA284608F0BBFA4DE747
:10316000202B0CD14FF47F434FF47F02C4E903239B
:10317000FF214FF07F43C4E90513E661D7E7C4E9B7
:103180000566C4E90366D2E7101000206DCB00008D
:1031900075CB00007DCB000089CB000091CB0000F7
:1031A0002DE9F04F85B08A420E9D03900C461746DC
:1031B000019300F00D82531E032B06D9BD4BBE4A6E
:1031C00040F21A71BD4806F043FC019B05FB03F079
:1031D0005043400006F06CFC029080B1019B5B0004
:1031E00003FB04F107EBC40C039C002D03FB07F267
:1031F000A4F102030FDC039806F062FC07E00398D9
:1032000006F05EFCAE4806F013FCAE4B036002987D
:1032100005B0BDE8F08F019EACF10A0C771EBCF141
:10322000190F00F2D081DFE81CF01A0034004E00C4
:10323000CE01CE01CE01CE016C00CE018600A200EF
:10324000CE01CE01CE01CE01EA001701CE01C400AD
:10325000CE01CE01CE01CE014F017C01AC01002692
:103260004FF6FF78BC469E460446BCF1000F04F1C1
:10327000040405DA0136AE4210440B44F2DBBAE72F
:103280003EF8029F24F8049C24F8028C0CF1FF3CC9
:10329000EBE70026BC4698460446BCF1000F04F15B
:1032A000060405DA0136AE4210440B44F2DBA2E715
:1032B00038F802EF24F802EC24F804EC24F806ECC9
:1032C0000CF1FF3CE9E700264FF6FF79BC46984633
:1032D0000446BCF1000F04F1080405DA0136AE42E1
:1032E00010440B44F2DB86E738F802EF24F804ECD4
:1032F00024F806EC24F808EC24F8029C0CF1FF3CBE
:10330000E7E7019BDDE902CE00275E1E0023A6EB66
:103310000308B8F1000F08DA0137AF420C4410443B
:10332000BFF669AFA6468446F0E73EF823802CF846
:1033300013800133EBE70026BC460346A646BCF1EA
:10334000000F0EF1040E03F1060305DA0136AE425A
:103350000C441044F0DB4EE73EF8048C23F8028C5A
:1033600023F8048C23F8068C0CF1FF3CE7E74FF0C0
:10337000000CBE4603462646BEF1000F06F10406C9
:1033800003F1080306DA0CF1010CAC450C441044BF
:10339000EFDB30E736F8048C23F8048C23F8068C36
:1033A00023F8088C36F8028C23F8028C0EF1FF3ECD
:1033B000E2E74FF0000C4FF6FF78BE460346264684
:1033C000BEF1000F06F1060603F1080306DA0CF160
:1033D000010CAC450C441044EFDB0CE736F8069CBE
:1033E00023F8089C36F8049C23F8069C36F8029CC7
:1033F00023F8049C23F8028C0EF1FF3EE0E7DDF891
:1034000008C04FF0000E4FF096094FF01D0A019BC7
:10341000274603F1FF38B8F1000F07F1060708DA75
:103420000EF1010EAE450C441044BFF6E4AE8446E6
:10343000EDE737F8043C37F806BC09FB03F34D26EB
:1034400006FB0B3337F802BC0AFB0B331B122CF8BC
:10345000023B08F1FF38DEE74FF0000E4FF01D0B86
:103460004FF6FF7A019B844603F1FF382746B8F1F7
:10347000000F07F106070CF1040C06DA0EF1010E3D
:1034800075450C441044EDDCB5E637F8043C37F8DC
:10349000069C2CF802AC962673434D2606FB093396
:1034A00037F8029C0BFB09331B122CF8043C08F183
:1034B000FF38DCE79ECB0000AAD0000016C8000051
:1034C00010100020B9C80000DDF808C04FF0000E51
:1034D0004FF096094FF01D0A019B274603F1FF3874
:1034E000B8F1000F07F1080708DA0EF1010E754573
:1034F0000C4410447FF77FAE8446EDE737F8063C76
:1035000037F808BC09FB03F34D2606FB0B3337F8ED
:1035100004BC0AFB0B331B122CF8023B08F1FF38EA
:10352000DEE74FF0000E4FF0960B4FF01D0A019BA7
:10353000844603F1FF382746B8F1000F07F108076A
:103540000CF1040C06DA0EF1010E75450C44104422
:10355000EDDC50E637F8063C37F8089C0BFB03F32C
:103560004D2606FB093337F8049C0AFB09331B126E
:103570002CF8043C37F8023C2CF8023C08F1FF38E8
:10358000DAE74FF0000CBE4603462646BEF1000FB8
:1035900006F1080603F1060306DA0CF1010C654595
:1035A0000C441044EFDC26E636F8088C23F8068C31
:1035B00036F8068C23F8048C36F8048C23F8028C39
:1035C0000EF1FF3EE2E7044B044A40F23771F9E5A1
:1035D000039B02931BE600BFBDCB0000AAD00000F6
:1035E0002DE9F04F85B08A420E9F03900E46144697
:1035F000019300F00C82531E032B06D9BC4BBD4A2D
:1036000040F2E161BC4806F023FA019900233A46F2
:10361000204607F0FDFF029080B1019B039D002F23
:1036200004EBC60103FB04F003FB06F6029C05F164
:10363000FF330FDC039806F043FA07E0039806F027
:103640003FFAAE4806F0F4F9AD4B0360029805B0BE
:10365000BDE8F08F019A0A39013A192900F2D281A6
:10366000DFE811F01A0034004E00D001D001D00183
:10367000D0016C00D0018400A000D001D001D001A5
:10368000D001E8001501D001C200D001D001D00165
:10369000D00150017D01AE0100254FF0FF08944696
:1036A0009E462146BCF1000F01F1020105DA013509
:1036B000AF4204443344F2DCBCE71EF8019F01F83A
:1036C000029C01F8018C0CF1FF3CEBE700259446CD
:1036D00098462146BCF1000F01F1030105DA0135DE
:1036E000AF4204443344F2DCA4E718F801EF01F8D8
:1036F00001EC01F802EC01F803EC0CF1FF3CE9E706
:1037000000254FF0FF09944698462146BCF1000F72
:1037100001F1040105DA0135AF4204443344F2DC1F
:1037200088E718F801EF01F802EC01F803EC01F862
:1037300004EC01F8019C0CF1FF3CE7E7029B00213F
:103740009446AE46BCF1000F0EF1020E07DA0131CD
:103750008F42354404447FF76DAF2346F0E71EF8EF
:10376000028C03F8018B0CF1FF3CEBE7002194463F
:103770002346AE46BCF1000F0EF1020E03F1030327
:1037800005DA01318F4235440444F0DC52E71EF87B
:10379000028C03F8018C03F8028C03F8038C0CF103
:1037A000FF3CE7E74FF0000C964623462946BEF162
:1037B000000F01F1020103F1040306DA0CF1010C20
:1037C000674535440444EFDC34E711F8028C03F814
:1037D000028C03F8038C03F8048C11F8018C03F8B5
:1037E000018C0EF1FF3EE2E74FF0000C4FF0FF08B6
:1037F000964623462946BEF1000F01F1030103F16D
:10380000040306DA0CF1010C674535440444EFDC8F
:1038100010E711F8039C03F8049C11F8029C03F8CC
:10382000039C11F8019C03F8029C03F8018C0EF133
:10383000FF3EE0E702994FF0000C4FF01D0B019B9B
:1038400003F1FF3E2B46BEF1000F03F1030308DA3C
:103850000CF1010C6745354404447FF7EBAE21467B
:10386000EDE713F802AC13F8039C13F8012C4FF0AA
:1038700096081AFB08FA4FF04D0818FB09A91BFB24
:103880000292121201F8012B0EF1FF3EDBE74FF01E
:10389000000C4FF0FF0B019B214603F1FF3E2B462E
:1038A000BEF1000F03F1030301F1020106DA0CF18E
:1038B000010C674535440444EDDCBBE613F802AC6B
:1038C00013F8039C13F8012C01F801BC4FF0960883
:1038D0001AFB08FA4FF04D0818FB09A94FF01D0814
:1038E00018FB0292121201F8022C0EF1FF3ED7E7EC
:1038F0009ECB0000C1D0000016C8000010100020B0
:10390000B9C8000002994FF0000C4FF01D0B019B4D
:1039100003F1FF3E2B46BEF1000F03F1040308DA6A
:103920000CF1010C6745354404447FF783AE214612
:10393000EDE713F803AC13F8049C13F8022C4FF0D6
:1039400096081AFB08FA4FF04D0818FB09A91BFB53
:103950000292121201F8012B0EF1FF3EDBE74FF04D
:10396000000C4FF01D0B019B214603F1FF3E2B463F
:10397000BEF1000F03F1040301F1020106DA0CF1BC
:10398000010C674535440444EDDC53E613F803AC01
:1039900013F8049C13F8022C4FF096081AFB08FA4F
:1039A0004FF04D0818FB09A91BFB0292121201F8F7
:1039B000022C13F8012C01F8012C0EF1FF3ED7E781
:1039C0004FF0000C964623462946BEF1000F01F148
:1039D000040103F1030306DA0CF1010C67453544D9
:1039E0000444EFDC26E611F8048C03F8038C11F88C
:1039F000038C03F8028C11F8028C03F8018C0EF191
:103A0000FF3EE2E7034B044A40F2FE61FAE5039B06
:103A100002931BE6BDCB0000C1D000002DE9F04FA2
:103A2000ADF2844DCDE91412129317A9FF23044679
:103A30001E93FFF78FFA68B163681193184608F078
:103A40001BFBB0F1807F60600AD9A34805F0F0FF4E
:103A5000A24B0360002528460DF2844DBDE8F08F8F
:103A60002368B3F1807FF0D81A9B03931B9B199FA7
:103A700005931C9B06931D9B04930C2F1E9BDDF846
:103A80005CB008931BD1BBF1170F07DC1F9B189E7E
:103A9000F61A183E032396FBF3F68EBBD4F8B42037
:103AA000D4F8AC309B1AD4F8A82013445A1EB2F5AF
:103AB000806F0DD3884805F0BBFF894BC9E7BBF188
:103AC0000F0FEBDC189E1F9BF61AF61BB610E4E7EF
:103AD00018998B4203DCC91AB1F5806F04DD7E486A
:103AE00005F0A6FF7F4BB4E7204607F026FFBBF1A9
:103AF000180F28D1049BB3F17F4F4FF0000624D05C
:103B0000049B002B14BF042303230293029BDDF8C4
:103B1000A8242568A360022AC8BF134602936268DE
:103B200002980023294607F0DCFA00288DD02946A8
:103B30000298002307F06CFD054640B9664805F081
:103B400077FF694B85E70026DAE70323DDE7BBF162
:103B50000F0F00F31E81002E45D0B6F5807F42DCAA
:103B60000DF180084FF00009B14544DB189B1F9A06
:103B70000C2FA3EB020314BF04210321DB1B06FB64
:103B80001131204607F0D9FEBBF1010F4CD1266858
:103B90000736F6087642002706F00306B8460DF110
:103BA00080094FF0FF0A636898455FDB029B042B96
:103BB00000F00782119B002B00F33082DDF8A8147F
:103BC000D4E90032002940F02B82149A2368136054
:103BD000159A63681360129B002B3FF43CAF129A56
:103BE000A368136037E7284605F06AFF3A4805F0F6
:103BF0001FFF3E4B2DE7204607F037FD88F80200F7
:103C0000204607F032FD88F80100204607F02DFD20
:103C10000C2F88F8000002D0204607F026FD09F19D
:103C2000010908F104089FE7BBF1040F11D12668D0
:103C300001367608764206F003034FF0000A03933C
:103C4000D04620AF63689845B0DA00264FF0FF09F0
:103C500095E0BBF1080F01D12668EBE7284605F097
:103C60002FFF1D4805F0E4FE214BF2E6204607F049
:103C7000FCFC4FF0000B072223689B4506DB314616
:103C8000204607F05AFE08F101088CE740FA02F3DB
:103C900003F001030BF1010B19F82310E95509EBAF
:103CA0008303E91993F801C09B788B70029B81F81C
:103CB00001C007F1030C042B08BF05F80CA0236812
:103CC0000CBF043767469B45D9D0013AD4D2204671
:103CD00007F0CBFC0722CFE710100020CAC8000075
:103CE000BFCB0000CACB0000B9C80000D5CB000094
:103CF000DDCB0000204607F0B8FCBBF1040F04BF89
:103D000000F00F02001105EB0A0117F8203005F84A
:103D10000A3007EB800318BF002258789B788B701D
:103D2000029B48700AF10300042B08BF05F80090BD
:103D3000236806F101010CBF0AF1040A82468B4296
:103D400020D0BBF1080F03D1204607F08EFC0246BD
:103D500017F8223005F80A3007EB820205EB0A0358
:103D60005178927859709A70029B0AF10301042BE2
:103D700004BF05F801900AF1040102368A4623685F
:103D80009E42B7DB0399204607F0D7FD08F10108F2
:103D900058E718991F9BC91AC91B204607F0CDFD8B
:103DA000BBF1180F61D12668002706EB4606CDE966
:103DB0000A77CDE90E77CDE90C777642012306F03C
:103DC0000306079309974FF00008CDF84080636819
:103DD000109A9A42BFF6EAAE079B002B40F0E980AA
:103DE0009A4623689A4580F2DA80BBF1100F20468C
:103DF00040F0E28007F063FC039B099A0C9981462E
:103E00001840FDF70DFC059B05F808000A9A0D996E
:103E100003EA0900FDF704FC05EB0803139358704F
:103E2000069B0B9A0E9903EA0900FDF7F9FB139A1A
:103E30009070049A08F10303002A00F0C0801393E5
:103E4000049B0F9903EA09003A46FDF7E9FB139B2F
:103E5000089A02430892029A042A04BFE85408F11F
:103E600004030AF1010A9846BBE7BBF1100F12D117
:103E700026687600764206F00306039B1BB1059B7D
:103E80000BB1069BFBB9284605F01AFE6D4805F0FC
:103E9000CFFD6D4BDDE5BBF1200F48D1069BFF2B1D
:103EA00045D1059BB3F57F4F039B3CD1B3F57F0F05
:103EB00003D0002BE7D0002605E0049BB3F17F4F31
:103EC0004FF0000635D0039807F0A0FA0990059846
:103ED00007F09CFA099B0A90082BD4DC0828D2DC56
:103EE000069807F093FA08280B90CCDC049807F0AA
:103EF0008DFA08280746C6DC039807F06CFAC31F42
:103F000005980C9307F067FAC31F06980D9307F006
:103F100062FAC31F04980E9307F05DFAC31F0F9354
:103F2000002307934FE7002BADD0059BC1E7002688
:103F3000A3E70223CDE90A66CDE90E66CDE90C665A
:103F40000793374609963EE7204607F08EFB08F1B7
:103F5000020A05F80A00204607F087FB08F1010A6B
:103F600005F80A00204607F080FB079B05F80800CB
:103F7000022B08F1030A1AD1204607F076FB089BB2
:103F800003430893029B042B04BF05F80A0008F1C1
:103F9000040A09F10109D04623689945D4DB31466A
:103FA000204607F0CAFC109B013310930FE7FF2057
:103FB000E5E74FF00009EFE707F08CFB1CE7FF2077
:103FC00046E7089B002B7FF4F5ADD4E9002353436B
:103FD0009B00013BFF22002BFFF6ECADEA54043BB3
:103FE000F9E70298013B41439B1A02FB015001FB98
:103FF000035300262168029F79438E4206DB01327B
:10400000D4E90013B2EB630FEBDBD7E501781F783F
:1040100000F8017B013603F8011BEBE70022EFE714
:10402000DDF8A814029881423FF4CFAD00920A4611
:1040300001462846FFF7D4FA054600287FF4C5ADAF
:1040400008E500BF10100020E5CB00002DE9F0418D
:1040500000F580471E46D7F8D43705460C469046F3
:104060003BB1334805F0E4FC324B03600020BDE86F
:10407000F081D7F8C0370F2B01DC07F050FBD7F8E1
:10408000D817002946D18022204608F088F84146FA
:104090002846FDF7FDF90F280146E2D8D0B948239C
:1040A00003FB065344F2B4629A58482303FB0656B6
:1040B00044F2B4630A44F250D7F8DC370121994046
:1040C0001046FDF773F90028CBD012FB01F22280D5
:1040D0000120CCE72846FDF789F9482303FB065366
:1040E00044F2B46201469A5892EA000FDDD4002AE5
:1040F0000ADA0028D9DAC0F100439A42D5DA0C482E
:1041000005F096FC0C4BB0E76FF000431B1A9A4287
:10411000F5DCCAE7284607F02CFB0028D8D0D7F8F2
:10412000DC2701239340228813442380D0E700BF7B
:104130001010002097C900008DC900002DE9F04F34
:104140008DB099460368DDF860809E680690B8F1EE
:10415000100F0CBF02240124B14515468A4609FB05
:1041600004F209D0731C4B4506D0B24BB24A41F25F
:104170006721B24805F06CFC0023DDE9160107F069
:1041800047FA069BD86020B9AD4805F051FCAD4B0D
:104190000AE0169907234246304606F0A2FF40B9CE
:1041A000A74805F045FCA84B036000200DB0BDE812
:1041B000F08F169B17997343029303FB08F30733A1
:1041C000DB08184600931F4606F07AFF0028E7D068
:1041D000179B07FB03F2C7F1FF4303F5FF0303F54A
:1041E000FF437F339A42DBDC179B07FB0333AB4271
:1041F00024D800980022022107F01AFA049000281F
:10420000C2D0169BB8F1070FC8BF169F03FB09F376
:1042100004FB03F3CCBF06FB04F501250B9305FB60
:1042200007F30193002305930393039B179A93428B
:1042300009D1049805F044FC0120B7E7804805F057
:10424000F7FB824BB0E7039B049A009903F001034C
:1042500001FB032483F0010301FB0323069A059964
:10426000D26802EB010B514611F8012B042A08DD3C
:10427000734805F0DDFB764B0360049805F020FCE5
:1042800093E7039808B97348825C052A08D8DFE8E9
:1042900002F0031D3A59989B019A204607F0A6FFA9
:1042A000019BB8F1070F03F101039A4400F3018168
:1042B000199B002B40F09D80674B13F80820B8F144
:1042C000040F40F0B08000231946A0E02A462046A3
:1042D00007F08CFF0AEB0500611E2B46019A934202
:1042E000DEDA11F8017F10F8012F3A44E25401336D
:1042F000F4E79F5C10F8011F3944A1540132019981
:104300008A42F6DBCCE750460022F8E79F5C10F8C3
:10431000011F01EB5701A1540132AA42F6DB0AEB5F
:104320000507601E2A4601998A42B9DA13F802C0CD
:1043300010F8011F8C4417F8011F01EB5C01A15418
:104340000132F0E750460022E7E79F5C10F8011FBA
:104350003944A1540132AA42F7DB0AEB0502089264
:10436000621E07925A1E09922846019A904297DAD5
:10437000089A099F12F8011F0892079A0A9112F8E9
:10438000011F13F800E0079217F8012F09977145F4
:1043900002EB420C01EB0E07ACEB07078C46A8BF03
:1043A000F4467145B8BF71468F42A8BF6246674563
:1043B000D8BF0A460A9901EB020C04F800C001308C
:1043C000D3E750460022C6E72A46204607F00EFFF4
:1043D0000AEB0500611E2B46019A9342BFF660AFBF
:1043E00011F8017F10F8012F02EB5702E25401335C
:1043F000F2E7012263E7C80758BF14F8013B180928
:1044000010FB02F01B010BF80100DBB20131029836
:104410008842F0D1B14556D0169A3346594658468F
:10442000FDF7C4F84FE0B8F1020F27D10023194679
:1044300020E000BFEFCB00003DD1000016C8000017
:1044400010100020B9C80000CAC8000018CC000035
:104450002ACC000069D1000060D100008F0708BF9E
:1044600014F8013B980910FB02F09B000BF80100C7
:10447000DBB2013102988842F0D1CBE7B8F1010FED
:1044800014D0414B414A41F2CB2172E6480708BFA4
:1044900014F8013BD80910FB02F05B000BF8010097
:1044A000DBB2013102988842F0D1B3E7002319460C
:1044B000F8E7B8F1080F13D1B1450CD1029A2146A3
:1044C000584607F093FE039B0B9A01330393059B19
:1044D00013440593A9E6169A3346214658469FE7AA
:1044E000B8F1100FEFD1B1450BD1002305E034F83E
:1044F000132052BA2BF813200133029A9A42F6D1B4
:10450000E1E7731C4B4504D0214B204A41F2E421E2
:104510002FE6012E11D100230BF102014FF6FF709F
:1045200007E034F8132052BA2BF8232021F8230097
:104530000133169A9342F4D1C5E7032E1ED15B4690
:1045400000224FF0060C16980CFB02F1824204EB9D
:10455000010703F10803B6D0615A49BA23F8081CD1
:10456000798849BA23F8061CB98849BA23F8041C8B
:104570004FF0FF3123F8021C0132E4E7054B034AF8
:1045800041F2EB21F5E500BF39CC00003DD1000040
:1045900044CC000058C800002DE9F04FADF2DC4DCE
:1045A0000468AA4B05910026C0E901661B88C66015
:1045B000054620460792ADF858308DF85A60FDF751
:1045C0009BF9002866D0B2460D960A9657460126FA
:1045D000D046CDF810A0CDF818A0D346204607F05D
:1045E00063F80890204607F05FF8994B089A9842C4
:1045F0004AD027D8A3F58023A3F2FE23984200F0E7
:104600009B8103F58633F033984200F0E881A3F1F3
:10461000BB63A3F5C123A3F2FB3398422AD0002E3B
:1046200040F0CA80830000F18D848A4C030E237011
:10463000030C6370E070030A8748A37005F0F8F973
:10464000046027E0854B984200F0B58003F11053D9
:1046500003F5BF2303F20E239842E0D1002E40F071
:10466000AB806B68002B00F0D9807B4805F0E0F947
:104670007B4B0EE01146204607F05FF94FF0010A30
:10468000204607F011F8A9E74EB9734805F0D0F9B4
:10469000744B036000200DF2DC4DBDE8F08F0D2A55
:1046A00004D06D4805F0C4F96F4BF2E7204606F0E0
:1046B000FBFF2060204606F0F7FFB0F1807F6060CE
:1046C00004D9654805F0B4F9684BE2E72368B3F113
:1046D000807FF6D8204606F0C8FF431E012B2861D4
:1046E0000AD9102803D8624BC340D80704D45A48CB
:1046F00005F09EF95F4BCCE7204606F0B6FF062892
:1047000081460D9004DD544805F092F95A4BC0E7FC
:10471000032804D12A69102AF5D0834602E010F05C
:10472000010FF0D1204606F0A0FF20B14A4805F065
:104730007FF9524BADE7204606F097FF20B146487F
:1047400005F076F94E4BA4E70890204606F08DFF61
:10475000012808990A9004DD3F4805F069F9494BA2
:1047600097E7D4F800C0BCF1000F01D0626822B90D
:10477000394805F05DF9444B8BE7BBF1000F10D1D0
:1047800019F0020F18BF032606EBA9064FF080436D
:10479000B3FBFCF3B3FBF6F39A42A66091D85E46F6
:1047A0006EE70123A3604FF08053B3FBFCF39A4202
:1047B00087D80E4664E726B1274805F039F9334B10
:1047C00067E7B2F5407F04D9234805F031F9304B53
:1047D0005FE70327B2FBF7F707EB47039342F3D1F9
:1047E0000DF1D80909EB870291453FF449AF204606
:1047F000089206F03AFF89F80000204606F035FFDF
:1048000089F80100204606F030FFFF2189F80200F8
:1048100089F80310089A09F10409E5E7BBF1000FD4
:104820004FD0059B022B03D10423A360012032E764
:1048300027B9094805F0FCF8164B2AE797423DD204
:10484000054805F0F5F8144B23E700BF7CD50000C0
:1048500052444849001100201010002045544C508B
:10486000EFCC000055CC000063CC0000CAC80000AB
:104870001001010070CC000084CC00008ECC000040
:104880009ECC0000B0CC0000C5CC0000D3CC000012
:10489000E2CC0000FFCC000010CD000020460892C2
:1048A00006F0E3FE36AB03EB8B01089AC8700BF100
:1048B000010B9345F2D14FF0040BE1E64FF0000BF2
:1048C000F7E7A368D90704D47C4805F0B1F87C4B1E
:1048D000DFE6B2EB430FB3D1059A022A01D10133CF
:1048E000A3E72B69102B4FF000031DD0A06898425E
:1048F0001FDD032B1DD02046069306F0CAFE2B6950
:10490000704911F803C0069B16AA00FB0CFC02F8C4
:1049100003C00133EAE72046069306F0BAFE069B81
:1049200018AA22F813000133A168994201DD032B74
:10493000F1D101230693A3E6002E7FF43DAFBBF136
:10494000000F05D027B95D4805F072F85E4BA0E670
:10495000059B022B06D1BBF1000F3FF467AFC4F8F3
:1049600008B063E7B2F1804F04D9544805F060F80D
:10497000564B8EE6049B049913448B42FFF68AAE95
:1049800043451CD9B8F1000F05D1B2F5805F9046C0
:1049900038BF4FF4805843450DD868684146CDE98B
:1049A000083205F03BF9DDE9083238B9434805F033
:1049B0003FF8474B6DE64FEA4808ECE768606968E6
:1049C0000893049B2046194406F0BCFD089B002870
:1049D00040F0BE82394805F02BF83E4B59E6002ED8
:1049E0007FF4EAAE059B002B7FF420AF686820B906
:1049F000324805F01DF8384B4BE6D4E900322969FE
:104A00004B43A1680733DB08514301FB03228AF0C3
:104A1000010300930499179217AB07F098F8A86068
:104A200000283FF437AE686805F04AF8D4F80890DB
:104A3000059B079A6B6009F10103934204D1032A95
:104A400002D0BBF1000F36D0069A002A18BF994653
:104A5000AB680C93179B09932B690893102B2B6859
:104A6000C4F80C90D3E900010A9B0CBF022201227A
:104A7000002B37D10D9B0393089B0090CDE90113C8
:104A8000099A0C994B462846FFF758FB00283FF43B
:104A900001AE069B002B40F02C81BAF1000F00F014
:104AA000E2800E4804F0C4FF0368002B40F0A781A9
:104AB0000B4B1B68A7E1DDF81C90C9E71010002024
:104AC0001DCD000060D100002DCD000035CD0000CF
:104AD000B9C8000045CD00004FCD00007010002087
:104AE0003C11002009FB02F30593059A002306F010
:104AF0008FFD0A9000283FF459AF00230493AA4E7B
:104B00000FCE1AAF0FC796E8070006F10C0C87E826
:104B10000700BCE80F0021AF0FC79CE8070006F1B3
:104B2000280C87E80700BCE80F0028AF0FC79CE8F7
:104B30000700443687E807000FCE0DF1BC0C67462E
:104B40000FC796E8070087E80700049A2B681AA9A0
:104B50001E6851F822200F9228A9049A5F6851F824
:104B600022800F9A013E4644B61A21A9049AB6FB48
:104B7000F8F651F8222004995CF821100E91002ECD
:104B800068D00B920B9A013F0F44BF1AB7FBF1F7A5
:104B9000002F5FD09B68089A0C990096734353438B
:104BA0000733DB1003FB077312930D9B0393CDE9CF
:104BB00001724B46099A2846FFF7C0FAA0B1059B3F
:104BC000059A08FB03F314930F9B4FF0000853431F
:104BD00013934346474533DD059A5A431192139A7E
:104BE000109200220F921FE00A9804F069FF51E52D
:104BF0002A6815931068059B0B9A5843109B02FB7B
:104C00000030119B059A19440A9B184407F0EEFAEC
:104C10000F9B149A01330F93109B13441093059A22
:104C2000119B13441193159B0F9AE9689642DFDCA0
:104C30000B9A0E990A4408F101080B923344C9E714
:104C4000E86804F03DFF0C9B129A13440C93099BF7
:104C50009B1A0993049B0133072B04937FF44FAFF6
:104C60000A9BEB6015E7BBF1000F00F06281079B28
:104C7000C4F808B0022BD8BF5B46E36099462B68A6
:104C8000EF68D3E900635E4300224946304606F0F0
:104C9000CFFC804600283FF489AEB9F1030F0246ED
:104CA00036A94FF004004FF0010C4FF0020E3E44C5
:104CB00000F036814FF00309B74202F1040200F020
:104CC000338117F8013B11F823A002F804AC10FB64
:104CD00003CA11F80AA002F803AC10FB03EA10FBA8
:104CE000039311F80AA0CB5C02F802AC02F8013C75
:104CF000E2E72B68E268D3E900315943D5E9033094
:104D000010283ED1022A0DD1BDF8606000229F1C00
:104D10008A422CD1BAF1000F7FF4C3AEBBF1000F71
:104D20007DD0A4E7042A1BD1BDF86000BDF8626005
:104D3000083300228A42EDD033F8087C87420CD138
:104D400033F8067CB74208D1BDF8647033F804CC60
:104D5000BC4504BF002723F8027C01320833E9E791
:104D6000124B134A41F24B31124804F071FE33F8F2
:104D70002200801B18BF4FF0FF3027F822000132BD
:104D8000C6E7022A18D19DF8586000225F1C8A42AB
:104D9000C0D013F81200801B18BF4FF0FF3007F887
:104DA00012000132F3E700BF80D5000057CD0000AC
:104DB00001D1000016C80000042A1BD19DF858003C
:104DC0009DF85960043300228A42A3D013F8047C72
:104DD00087420CD113F8037CB74208D19DF85A7072
:104DE00013F802CCBC4504BF002703F8017C013254
:104DF0000433E9E7584B594A41F23231B4E7584895
:104E000004F016FE0368003B18BF01235BB9BBF139
:104E1000000F7FF42CAF069B002B00F08A80A36864
:104E20000133A36085E0E368022BF0DD2B68EF68B7
:104E3000D3E90062DB68032B02FB06F60FD13B4689
:104E40000022964203F10303E1D013F8031C13F888
:104E5000010C03F8030C03F8011C0132F1E7042BE9
:104E600004D0404B404A41F2B7317DE73F4804F05F
:104E7000DFFD0368A3B13E4804F0DAFD036893B98F
:104E80003B460022964203F10403C0D013F8041CF1
:104E900013F8020C03F8040C03F8021C0132F1E7CA
:104EA000344B1B68EBE73B1D0020FF278642AED04A
:104EB00013F801CC13F804EC13F8021CBCF1000F3A
:104EC0001AD04FEA5C0217FB0121B1FBFCF103F899
:104ED000041C13F8031C17FB012117FB0E22B1FB66
:104EE000FCF1B2FBFCF203F8031C5FFA82FE03F84C
:104EF00002EC01300433D9E703F8041CF7E717F894
:104F0000013B11F8239002F8039C10FB03C910FB2E
:104F100003E311F80990CB5C02F8029C02F8013C13
:104F2000B74202F10302EAD1E86804F0C9FDC5F80E
:104F30000C80A86804F0C4FD0023AB60204606F096
:104F4000B3FB73E41146204606F0F7FCFFF798BB6D
:104F50000493FFF795BB00BF57CD0000E6D00000DB
:104F60006010002070CD0000D6D00000501000204E
:104F700040100020401100202DE9F04F2DED028B54
:104F8000BBB00693469B0593DDE947530646CDE942
:104F9000071228460C220021082400270D9307F051
:104FA000FEF8C5E901772C603046FCF7A5FCD6F881
:104FB000B430C6F8AC30D6F8B830C6F8B0300028F7
:104FC00052D0059B1A96042B05D9A44804F030FD55
:104FD000A34B036014E3059A39461AA8FFF7DCFADD
:104FE00000283FD01E9A082A06DD102A05D09B48CB
:104FF00004F01EFD9B4BECE722461A9C0599DDF858
:1050000074A02A6000231D93D4E9003081B1E168C7
:10501000059D8D420CD0082A00901ED12A4650468C
:10502000FEF7DEFA059BE3608246002800F0E88286
:10503000079A23681360089A63681360069B13B18C
:10504000069AA36813601D9804F03AFD1C9804F0BA
:1050500037FD1B9804F034FDB5E1059A5046FEF784
:105060009FF8DFE78246EEE7304606F0FEFA422878
:1050700025D0D6F8B430C6F8AC30D6F8B83001E058
:10508000C6F8AC20C6F8B030304606F09EFBD6F825
:10509000B430C6F8AC30D6F8B830C6F8B0300C90A2
:1050A00000283CD0059B4693DDE90712069B30465D
:1050B0003BB0BDEC028BBDE8F04F06F007BD3046BB
:1050C00006F0D3FA4D28D4D1304606F003FB304623
:1050D00006F0F5FA304606F0F2FA304606F0FAFA33
:1050E000304606F0F7FA0C28D6E92D2108D02828FA
:1050F0000B4605D0382803D06C2801D07C28BFD1BE
:10510000C6E92B21059B4693DDE90712069B304635
:105110003BB0BDEC028BBDE8F04FFEF77FBC3046E4
:1051200006F0C2FAD6F8B430C6F8AC30D6F8B830CB
:10513000C6F8B0304C4B9842044640F06782304687
:1051400006F0B2FAA04204D0444804F071FC474B88
:105150003FE7304606F09DFA012804D03F4804F0AE
:1051600067FC434B35E70621304606F0CEFB304660
:1051700006F08FFA10280B9004D9384804F058FC38
:105180003C4B26E7304606F08FFA8046304606F064
:105190008BFAB8F1807F0A9004DD304804F048FCB7
:1051A000354B16E70A9BB3F1807FF6DC304606F0FC
:1051B00070FA0828814606D0102804D0274804F049
:1051C00037FC2E4B05E7304606F063FA032804D07F
:1051D000224804F02DFC2A4BFBE6304606F064FA28
:1051E0000146304606F0A9FB304606F05DFA01465E
:1051F000304606F0A2FB304606F056FA014630462D
:1052000006F09BFB304606F044FA0128044604DD14
:10521000124804F00DFC1B4BDBE60A9900234246C2
:10522000042005F05EFF0028B7D0002C5DD1B9F155
:10523000100F40F09A800D9B102B40F09680234673
:105240000A99082006F0E4F90D9B2B60824608BB02
:10525000024804F0EDFB0C4BBBE600BF1010002031
:1052600082CD00008FCD000053504238A4CD000005
:10527000ACCD0000BACD0000CAC80000CECD000001
:10528000E4CD000036C90000B9C8000000007F432B
:1052900000FF7F470A9B03FB08F74FF0000B0B9BB7
:1052A0009B45C0F2B380ABF1030043424341B9F1E7
:1052B000100F40F0D1800D9A102A40F0CD805B4253
:1052C0000AEB4B019BB20022BA42C0F297800BF16D
:1052D000010BBBF1040F66D00B9B5B4500F396807E
:1052E000ABF103014B424B41E9E70A9B03FB08F793
:1052F000B80004F0DDFB82460028A9D00B9B08FB18
:1053000003F14900304606F018FB4FF0000B0B9BF1
:105310009B450AEB0B094FF0000339DA0D930D9B07
:10532000FB1A002B36DD30460E9306F09EF98028DE
:105330000E9B0446F5D07F284BDC421C9A4201F3B9
:1053400043850D9B13440D9300233046CDE90E2376
:1053500006F08BF90F9B0E9A09F823009C4203F18B
:105360000103F2D109EB8209D9E70A9B03FB08F795
:10537000B80004F09DFB824600288ED168E7BBF19F
:10538000030F4FF0FF3218BF002209F8232001332A
:10539000BB42F4DB0BF1010BBBF1040FB7D10B9B4C
:1053A000032B00F38A80059B33F0040340F018813F
:1053B000069B13B1069A04231360089B0A9AC3F84C
:1053C0000080079B1A6050463BB0BDEC028BBDE8E5
:1053D000F08FC0F580740134A342C1F2F5843046E9
:1053E00006F043F90D9B23440D93002309F8230095
:1053F00001339C42FAD109EB840990E721F832305D
:10540000013261E701F8223001322AE02B68102BCB
:105410000DD10AEB4B030024BC4224DA30460E9334
:1054200006F037F90E9B23F834000134F4E7B9F1A4
:10543000100F0AEB0B044FF0000324D0BB4233DB08
:105440000BF1010BBBF1040FA9D00B9B5B45DDDC1D
:10545000ABF10302534253415B420AEB0B01DBB257
:105460000022BA42CEDB0BF1010BBBF1040F7FF43B
:1054700016AF94E730460E9306F00BF90E9B001220
:1054800004F823000133BB42F4DB0BF1010BBBF149
:10549000040F84D00B9B5B45B8DCABF1030CDCF153
:1054A000000343EB0C0306E730460E9306F0DDF8ED
:1054B0000E9B04F823000133C0E72B68102B46D065
:1054C0005FED8E5A5246B7EE005A0C9BBB42BFF6B8
:1054D0006AAFD378591EC9B2FD2933D807EE903A86
:1054E000F8EEE77A1378C7EEA56A06EE103A85EE75
:1054F000267AB8EEC66A75EE477A67EEA57AF0EEC0
:10550000676A46EE076AFCEEE66A16EE903A13709A
:10551000537806EE103AB8EEC66AF0EE676A46EEC9
:10552000076AFCEEE66A16EE903A5370937806EE40
:10553000903AF8EEE66A46EE877AFCEEE77A17EEE6
:10554000903A93700C9B01330C930432BDE75FEDEE
:10555000B05A53464FF6FD71B7EE005A0C9ABA4254
:10556000BFF621AFDA88501E80B2884233D807EEEA
:10557000902AF8EEE77A1A88C7EEA56A06EE102A96
:1055800085EE267AB8EEC66A75EE477A67EEA57A9A
:10559000F0EE676A46EE076AFCEEE66A16EE902ABF
:1055A0001A805A8806EE102AB8EEC66AF0EE676ACC
:1055B00046EE076AFCEEE66A16EE902A5A809A8852
:1055C00006EE902AF8EEE66A46EE877AFCEEE77A77
:1055D00017EE902A9A800C9A01320C920833BDE79C
:1055E0002B68059ACDF80080102B4FF004010A9B20
:1055F000504608D1FDF7D4FD824600287FF4D8AE8E
:105600004FF0000ADFE6FDF7EBFFF5E7B54930465E
:1056100006F0CAF8002852D1D6F8B430C6F8AC303B
:10562000D6F8B830C6F8B03044F6180004F040FAA6
:105630000446002840F0C381AB4804F0F9F9AB4BB5
:105640000360304606F011F80446304606F00DF8C7
:10565000502C04D13538C0B2012841F2CC80D6F8A4
:10566000B430C6F8AC30D6F8B830C6F8B0303046F2
:10567000FBF77CFF002801F0A181059B00933046D9
:10568000069BDDE90712FDF7DBFA079B1D68089B07
:105690001E68059B044613B9069B1B680593002CE6
:1056A000AED0059A00233146284605F0B1FF824668
:1056B000002841F00781204604F002FAC8E554248E
:1056C000304605F0D2FF013CFAD18949304606F058
:1056D0006BF8D6E92D23C6F8AC200028A2D0069A94
:1056E0000AB915AA0692C6F8B0304FF05C093046E8
:1056F00005F0BBFFB9F10109F9D1304605F0C9FF4A
:105700000446304605F0C5FFB0F1807F83463FF781
:1057100044ADB4F1807F3FF740AD304605F01FFD4A
:10572000074620B1704804F083F9724B51E44B46B0
:1057300004225946204605F0D4FC00283FF42DAD44
:10574000304605F0B1FF304605F0A3FF304605F0C6
:10575000A0FF4B4604225946204605F059FF0A9007
:1057600000283FF475AD0BFB04F29200FF2106F018
:1057700016FD0DF1680830460F9705F076FF0546D7
:10578000304605F072FF8246304605F06EFF88F81D
:105790000100304605F069FF88F8020049EA000977
:1057A0003046013705F0DBFC88B14F4804F040F982
:1057B000504B05E00A2FDED14B4804F039F94E4B2F
:1057C00003600A9804F07CF900230A9315E0BAF10B
:1057D000080FF1D108F10308002DEBD119F0100FDB
:1057E000069A0CBF032304231360A30010930A9BA3
:1057F000CDE90B350C9B9B4516DC079B1C60089B79
:10580000C3F800B0059B13B9069B1B680593059A66
:105810000A98CDF818B1234604213BB0BDEC028BA9
:10582000BDE8F04FFDF7DCBE1AAD00236F780D9395
:10583000012F63D0022F00F0BE80002FBCD10B9B44
:10584000BC4203EB870210DC0D9A0F990D9B8A4234
:1058500003F1010305F10305E8D10C9B109A013314
:105860000C930B9B13440B93C4E7A9783046FCF7C9
:105870001DF80028A5D00137E1E7304605F0F5FE18
:105880000746304605F06BFC00288ED1AB780E93AE
:1058900047454A4619463046C8BF5FFA88F7FCF7C5
:1058A00005F800288DD00022BA420AEB820E08DBF0
:1058B0003BB20AEB830AA8EB0708B8F1000FDCDC67
:1058C000C2E7002380210E9808421CBF13F809C0CC
:1058D0000EF803C00133042B4FEA6101F3D101320A
:1058E000E2E700BFF7CD000010100020B9C80000AB
:1058F000FCCD0000D4C8000001CE0000DDF82CA0D3
:10590000A0460DF15809D8E7304605F0AEFE07462F
:10591000304605F024FC00287FF447AF7F2F37DDA9
:10592000802F20D1304605F0B4FE0746B945FFF67A
:105930003CAF95F802A016AA51463046FBF7B6FFD9
:1059400000283FF43EAF0022974208EB82000CDCB7
:1059500027EAE77A08EB8A0AA9EB0709D046B9F1EA
:10596000000FD1DC70E77F3FE0E70023802111EAE0
:105970000A0F18BF0DF1580C4FEA61011CBF1CF84B
:1059800003C000F803C00133042BF0D10132DBE780
:105990000137B945FFF609AF08EB870AA9784246F7
:1059A0003046FBF783FF00283FF40BAF08F10408F3
:1059B000D045F3D1D0E7DDF82C80A146CFE744F6FF
:1059C0001802002106F0EBFB04F58043DFF8E892B3
:1059D000DFF8E882B04F26600121C3F80C98C3F8C5
:1059E0001088C3F814782046FCF76AFFD6F8B43064
:1059F000C6F8AC30D6F8B830C6F8B030824620468B
:105A000004F05EF8BAF1000F3FF41BAE44F6180044
:105A100004F04EF8044600283FF41AAC002144F686
:105A2000180206F0BCFB059B266004F580450021AA
:105A3000042BC5F80C98C5F81088C5F81478B16027
:105A40001BD8C5F8CC16C5F8D016C5F81417C5F87C
:105A50001817C5F85C17C5F86017C5F8A417C5F87E
:105A6000A817C5F804182046FCF72AFF002800F004
:105A70005482204605F06CFFEBE0884803F0D8FF25
:105A8000874B03604CE2DA2840F0F983206805F088
:105A900000FE0646206805F0E8FD431E032BC5F80E
:105AA000F00703D823689B68984205DD7B4803F024
:105AB000BFFF7C4B036030E2C31CB6EB430F42D107
:105AC00004F58F43703304F58D470A9399460026F9
:105AD0001C37D5F8F03720689E4239DB05F0C5FD4C
