:1000000000100020E509000025360000253600001C
:100010002536000025360000253600002536000074
:100020002536000025360000253600002536000064
:100030002536000025360000253600002536000054
:100040002536000025360000253600002536000044
:100050002536000025360000253600002536000034
:100060002536000025360000253600002536000024
:100070002536000025360000253600002536000014
:100080002536000025360000253600002536000004
:1000900025360000253600002536000025360000F4
:1000A00025360000253600002536000025360000E4
:1000B00025360000253600007D270000253600008B
:1000C00025360000253600002536000025360000C4
:1000D00025360000253600002536000025360000B4
:1000E00095070000AD07000025360000253600000A
:1000F0002536000025360000253600002536000094
:1001000025360000253600002536000000000000DE
:10011000013800D0FCE7704700000000000000003C
:1001200001F0FF01102A2BDB10F0070F08D010F8A8
:10013000013B013A8B422DD010F0070F42B3F6D1AC
:10014000F0B441EA012141EA014122F007047FF0C5
:1001500000070023F0E80256083C85EA010586EA1C
:10016000010685FA47F5A3FA87F586FA47F6A5FA58
:1001700087F68EB9EED1F0BC01F0FF0102F0070264
:1001800032B110F8013B013A83EA010313B1F8D10F
:100190000020704701387047002D06BF35460338F0
:1001A000073815F0010F07D1013015F4807F02BF29
:1001B000013015F4C03F0130F0BC0138704700BF7A
:1001C0000348044B834202D0034B03B118477047E6
:1001D0007810002078100020000000000548064B31
:1001E0001B1AD90F01EBA301491002D0034B03B135
:1001F0001847704778100020781000200000000099
:1002000010B5064C237843B9FFF7DAFF044B13B15E
:100210000448AFF300800123237010BD3C2B012064
:1002200000000000981F010008B5054B1BB10549EF
:100230000548AFF30080BDE80840FFF7CFBF00BF1F
:100240000000000078100020981F0100A3F5803AFC
:10025000704700BF174B002B08BF134B9D46FFF79D
:10026000F5FF00218B460F461348144A121A03F07B
:100270007EFA0E4B002B00D098470D4B002B00D080
:1002800098470020002104000D000D48002802D0EE
:100290000C48AFF3008002F015FD2000290002F0A9
:1002A000A8FF02F031FC00BF0000080000000000C1
:1002B000000000000010002078100020D4A90120C8
:1002C0000000000000000000014803F065B900BF15
:1002D000203A000008B54843400002F027FC034BD9
:1002E0001860B0FA80F0400908BD00BF90100020EF
:1002F00070B50A4D0446286868B1094B094E4FF4A1
:10030000E142012914BF3146194603F03AFA2B683D
:100310002360002070BD0120FCE700BF901000208A
:10032000A6AC0000263C00002DE9F04385B0054650
:100330000C464FF0000901463C48CDF80C9003F004
:100340002BF9E9B203A8FFF7D3FF012806D13848FB
:10035000294605B0BDE8F04303F01EB95A23A02298
:1003600034490398344E02F04EFF2946334803F0D7
:1003700013F933482F49206000F5615363604FF44F
:10038000615203F0FEF92D27D4E900015A23A0227F
:1003900002F083FF5023012229462A48009703F0E8
:1003A000FBF84FF05A0806F561522261A660CDF8BD
:1003B0000080A0232068314602F099FF4A46294672
:1003C000214803F0E9F806F561626261E660009792
:1003D00060685023314602F08AFF1B4801222946FB
:1003E00003F0DAF8012D1ED1124804F11803424639
:1003F000A02102F0DDFF206270B94FF4A0124FF48B
:1004000034231248C4E9062329463B46502205B04E
:10041000BDE8F04303F0C0B8D4E906230C489B13B1
:1004200092132946F3E705B0BDE8F083253A0000B2
:100430003B3A00003D2B0120F4110020603A0000FF
:100440007D630120823A0000AB3A0000CD3A000003
:100450000B3B000010B598B000F042F9A0215A20E3
:10046000FFF738FF264800F085F9264803F094F896
:1004700006A90120FFF758FF0FA90220FFF754FF3C
:10048000214803F089F80D9A0C992048921389139A
:1004900003F082F85A230222CDE90332A02302930B
:1004A00015AB01930CAB009308AA0AAB0FA906A8E1
:1004B00003F037F8044620B9154803F06DF81548E5
:1004C00010E0169A0D9C15991348141B891392136A
:1004D00003F062F81148A213214603F05DF8CD2C19
:1004E00008DD0F4803F058F821460E4803F054F891
:1004F00018B010BD14F1CD0FE1DA0B48F2E700BFE0
:10050000C9020000353B0000523B00007E3B00006A
:10051000A03B00000B3C0000B53B0000D43B0000BA
:10052000FB3B0000173C0000023C00002DE9F04FAF
:1005300095B0CDE911231E9B209F1A6805925B6838
:100540000693059B9213B3F5004FCDE90F0103927B
:100550000EDBBB1E93420BDD069B9B130493069B95
:10056000B3F5004F04DB219B049A023B934209DC64
:100570004FF0FF331A4600201F990B604A6015B0F8
:10058000BDE8F08F049B023B7B430E930523099348
:10059000039B4FF0000A0333D3460C93039B0E9842
:1005A00003EBAB330D93049B03EBAA339E1E0A931C
:1005B00007FB06F3002408936FF00103019325461F
:1005C0000294A04607940D9A019E039B911E049AE3
:1005D000324413920A9A3244023B0B92BB4230DA05
:1005E000219E139A96422CDD8F422ADD0B9A51EA06
:1005F000020C26D432460B9EB24222DD119A089E8E
:1006000002EB400C129A3CF913E002EB400C109AFA
:100610003CF913C002EB06090F9A19F80190024445
:100620000EFB0C55D25CA9EB0209079A0EFB0922BE
:100630000792029A0EFB0E2209FB0C8802920CFB19
:100640000C440C9A01339A4201F10101C6D1019B7D
:1006500001330193089B3B440893019B032B3844CF
:10066000B1D1029B04FB03F605FB1566304603F08F
:100670004FF8B0F57A7FFFF67BAF079B02995A429D
:1006800004FB02F008FB0500C8F100034B438003A4
:1006900090FBF6F005FB1235834403F039F8B0F512
:1006A000006F4FEA853595FBF6F5AA440EDB099BF2
:1006B000013B09937FF472AF084A0699059B1140EC
:1006C00013400A465B445244012055E7284603F094
:1006D0001FF8B0F5006FEADAEEE700BF00C0FFFFD9
:1006E00030B589B01E4D1F48012100F01DFB0FCD14
:1006F00001AC0FC495E8070084E807001A4C01A973
:100700002046002501F0F8FCA567636F43F0030362
:100710006367164B4FF48072C3F884215A604FF41C
:100720000072C3F884215A601148012100F0FCFADC
:10073000284601230422062101F060FB2B462846AF
:100740000122072101F05AFB01230422052128463A
:1007500001F054FBE36C43F00403E36409B030BDE3
:10076000281D0100006204000008014000E100E0D3
:1007700000350A00014B1860704700BF9810002038
:10078000034BDA6C42F00202DA645863704700BF30
:1007900000080140034BD869034B1B680BB1C0B282
:1007A000184770470008014098100020054B0222AE
:1007B0009A64DA6C22F00202DA64034B1B6803B11C
:1007C00018477047000801409410002038B500F029
:1007D00099FE0E480E4C012100F0A6FA01221146A6
:1007E000002000F0FFFD022501221146C4F88050D0
:1007F000002000F0F7FD0122C4F8845011460020CB
:1008000000F0F0FDC4F88850002038BD30253E00CF
:1008100000400E4008B5214B01225A6401F086FBCE
:100820001F4B90B94AF6E852C3F89021D3F89821AB
:1008300042F00402C3F89821C3F89001D3F8642170
:1008400042F40052C3F8642101E00128F6D0154AB1
:10085000136A23F4441343F488131362A2F580420D
:10086000136843F48073136002F54052D2F8A43148
:1008700043F4F843C2F8A43101F052FD00F022F82D
:1008800001F0EAFC01F038FD01F0FCFCFFF79EFFEF
:1008900002F016FFBDE8084000F006B800000E4068
:1008A00000300E4000400E4008B50548012100F020
:1008B0003BFA02F08DFEBDE8084000F015B800BF1D
:1008C00000350A000148012100F02EBA00350A0067
:1008D000014B1022DA60704700A00046014B102245
:1008E000DA60704700A0004470B588B0374D384ECC
:1008F0000FCD01AC0FC495E8070084E80700354C24
:100900003548012100F010FA3046012100F00CFAC0
:100910000125324B039301A920468DF8125001F0B6
:1009200043FC2B4604220621022001F067FA2A46E6
:1009300000230721022001F061FA2B46042208213E
:10094000022001F05BFA042211462B46002001F040
:1009500055FA234BA3670B2363674FF4487001F0EC
:1009600031FF1420FFF7BAFF01F02CFF2320FFF71F
:10097000AFFF01F027FFB9212046FFF7AFFF02F0DC
:1009800095FEFFF7A5FF00231A460621022001F07D
:1009900035FA00231A460721022001F02FFA2B46D0
:1009A00000220821022001F029FA002210462B46DD
:1009B000042101F023FA204601F058FB0021A16731
:1009C0003046616700F0B0F908B070BD441D010009
:1009D000005204000004014000350A0000127A00B1
:1009E0000B0B000B08B500F083F8124B12498B4239
:1009F00012D3124B124900208B4218D3FFF72AFC66
:100A0000186850F82240586840F82240013298682F
:100A10008242F5D30C33EAE70022F8E71C6844F879
:100A2000220001325C68A242F8D30833E4E70022D6
:100A3000F8E700BFA01F0100AC1F0100AC1F0100C0
:100A4000AC1F01000048704700F04902104AD2F87C
:100A5000943003F00703023B032B13D8DFE803F0C5
:100A60000C14020E0B4B1B68D2F80001C0F30420DB
:100A70000130B3FBF0F07047074BF4E7074B1B68FE
:100A80005B08F1E7054BEEE74FF40043ECE700BFEE
:100A900000400E40081000200C1000200010002024
:100AA00008B5FFF7D3FF054BD3F80831C3F308238C
:100AB0000133B0FBF3F0024B186008BD00400E405C
:100AC00004100020014B1868704700BF0C10002074
:100AD000054B1860054BD3F8943003F00703022B45
:100AE00001D1FFF7DDBF70470C10002000400E4021
:100AF000044B054A9A60D3F8882042F47002C3F888
:100B00008820704700ED00E000000000014B1868ED
:100B1000704700BF08100020054A064903461068C8
:100B200003448B4294BF13604FF0FF30704700BF07
:100B3000101000200000042008B52948012100F011
:100B4000F3F8012304220221052001F057F90020C7
:100B500001F03EF9234B0122C3F81028114604206E
:100B600000F040FC204800F06BFA204BD3F8F02056
:100B700042F00102C3F8F020D3F8FC2042F080726A
:100B8000C3F8FC20A3F55D43194A1A6000F5D5208F
:100B9000184B00F2FC40B0FBF3F0174B0138022277
:100BA0001861C3F8F0204FF48072C3F804234FF0AB
:100BB0006043124AC3F8B02F114AC3F8802ED3F80D
:100BC000002E42F48072C3F8002EFF2283F820200A
:100BD000D3F8002E22F48072C3F8002E002008BD46
:100BE00000350A000080144206000E0000ED00E00F
:100BF000FF030040F8590D00000004E055CEACC5DD
:100C0000090001000C4B984205D90C4B984210D8B2
:100C10000122012301E00022134609490B6409491E
:100C2000D1F8003123F0807343EA0263C1F8003148
:100C300070470222EDE700BF0048E8010090D003B2
:100C40000000C84300400E4038B5114B5B68114BA3
:100C500000221C46C9B21D798D4202D11D68854211
:100C60000BD20132052A03F10803F4D141F6140135
:100C7000094802F0DEFC032102E004EBC2046179C2
:100C8000034A536823F0407343EA0163536038BD5D
:100C900000000E40A81D0100601D010038B5074C82
:100CA00041F67133256C2364FFF7CCFEADB2002111
:100CB000FFF7CAFF0DB10023236438BD00000E40CA
:100CC000044BDB6B5B0604D4034AD2F8C830002B1C
:100CD000FBD1704700300E400000C64308B5FFF757
:100CE000EFFF024B5868C0F3014008BD00300E40D2
:100CF000044BD3F84421D20703D4D3F84021104247
:100D0000FBD1704700400E4038B5064C256C41F6CB
:100D100071332364ADB2FFF797FF0DB10023236455
:100D200038BD00BF00000E4038B5C0F30323013BBF
:100D3000092B06D8DFE803F00C2E0505322924051F
:100D40001C18BDE83840174841F6B05102F071BC9C
:100D5000154DC0F3043405F1424505F5801504EB4B
:100D6000C5008000016038BD104DC0F30434F2E7C7
:100D70000F4DC0F304344FF48030FFF7B9FFEAE7BA
:100D8000C0F304340B4D1020F7E7C0F304340A4DD0
:100D90000120F2E7094DC0F30434DCE7084DC0F34D
:100DA0000434D8E7601D010000400E4050410E4061
:100DB000F0400E40E8400E40E0400E40C0400E4083
:100DC000B0400E4008B5C0F30313013B092B60D8B7
:100DD000DFE803F0050B0F195F5F1F233C532E4B19
:100DE000D3F80001C0F3042008BD2B4BD3F8140145
:100DF000F8E7294BD3F80031C3F300630133012036
:100E000098400138F0E7244BD3F80C01C0F30820D8
:100E1000EAE7214BD3F80801F8E7204B984209D0C4
:100E20001F4B98420CD041F654711E4802F001FC51
:100E30000020D9E7184BD3F8203103F00F03DEE789
:100E4000154BD3F82031C3F30113D8E7164B984262
:100E500008D003F5B01303F58053984206D041F64D
:100E60007871E2E70C4BD3F82831ECE70A4BD3F862
:100E70002831C3F301230433C1E70C4B984205D159
:100E8000054BD3F8300100F00300ADE741F6877160
:100E9000CBE741F6AC71C8E700400E408006160073
:100EA00080162E00601D010090171A00A009140082
:100EB00008B500F00F000138072850D8DFE800F02F
:100EC0000415244F363A4F422D4BD3F8943003F09B
:100ED0000703023B052B06D8DFE803F04E26240368
:100EE00005480B2008BD0520FCE7254BD3F8800002
:100EF00000F007000228F5D004283BD0012808BFE5
:100F0000032018BF0120EDE71D4BD3F8843003F018
:100F10000703013B032B03D8DFE803F006042A2C68
:100F20000120DFE70220DDE70320DBE7144BD3F8E5
:100F30008800DDE7124B1B6F13F0010F0CBF072079
:100F40000920CFE70E4BD3F85C3103F03003202BA0
:100F500012D0302B12D0102B08BF0720D1E7094840
:100F600042F2013102F065FB0020BBE70C20B9E73B
:100F70000620B7E70A20B5E70420B3E70820B1E769
:100F800000400E40601D010010B5284B98420446F9
:100F90000DD1FFF78DFF264BD3F8844004F00704F2
:100FA000042C3BD8DFE804F03F2428302C00214BF0
:100FB000984205D1FFF77CFF1D4BD3F88840EDE741
:100FC0001D4B984205D1FFF773FF194BD3F88040B2
:100FD000E4E741F61311194802F02BFB2046FFF716
:100FE00067FF41F642110446144802F022FBD7E79E
:100FF000BDE8104002F017BBBDE81040FFF786BD0A
:10100000BDE8104002F012BBFFF720FD084BD3F8FB
:101010000031C3F300630133D84010BD074841F6E7
:10102000941102F006FB0020F7E700BF0300200048
:1010300000400E400500240002001E00601D01005B
:1010400038B500F47813B3F5B01F05467DD02ED81F
:10105000B3F5402F67D011D8B3F5802F52D006D802
:1010600043B1B3F5003F58D04FF4F7511AE0B3F550
:10107000202FF9D1BDE83840FFF7E8BCB3F5801F59
:1010800000F09880B3F5A01F55D0B3F5602FEBD1D9
:101090005748FFF70DFF072800F08C800928E9D09A
:1010A00041F2D661534802F0C4FA002034E0B3F5AF
:1010B000381F53D013D8B3F5001F58D00AD8B3F552
:1010C000D01F56D0B3F5F01FCED14B48BDE8384005
:1010D000FFF75ABFB3F5101FC6D14848F6E7B3F57E
:1010E000481F4DD0B3F5781F78D0B3F5401FBBD162
:1010F0004348FFF749FF434BD3F82831C3F301239B
:10110000043320E0FFF7A2FC3E4BD3F80C31C3F3CD
:1011100008230133B0FBF3F038BDFFF797FC394BE0
:10112000D3F80831F3E7FFF791FC364BD3F81431CD
:10113000C3F30423EDE73148FFF726FF314BD3F823
:10114000303103F00303D840E6E72B48FFF71CFFDC
:101150002C4BD3F8203103F00F03F4E72648FFF7B8
:1011600013FF284BD3F82031C3F30113EBE72448D6
:10117000ACE72348FFF708FF224BD3F82831F3E709
:101180002148FFF795FE0138072824D801A353F81A
:1011900020F000BFAB100000D7110000D7110000F5
:1011A000BB110000D7110000D7110000B5110000DD
:1011B000C3110000154B1868AEE7BDE83840FFF7D3
:1011C00081BCFFF743FC0F4BD3F80031C3F304237A
:1011D00003FB0000A0E741F20D7163E7FFF736FC67
:1011E0000446284602F03EFAB4FBF0F094E700BF54
:1011F00006000E00601D010002001E000500240014
:101200000300200000400E40B800320014100020FF
:10121000014B1880704700BF6A100020014B1880F6
:10122000704700BF6810002038B50C4604287BD8F2
:10123000DFE800F06403451B3000B1F5007F04D304
:101240003D4842F6B44102F0F4F93C4AC4F30804C4
:10125000D2F86838002BFBD1394A136A23F4FF73A4
:1012600023F001032343136238BD7F2904D9324898
:1012700042F6C14102F0DDF9304A04F07F04D2F8B1
:101280006038002BFBD12E4A136923F07F031C43E7
:101290001461E9E77F2904D9274842F6DC4102F0CE
:1012A000C8F9264A04F07F04D2F86438002BFBD139
:1012B000234A936923F07F031C439461D4E7204DB4
:1012C000D5F890305B0704D51B4842F6EC4102F09C
:1012D000B0F96B6A23F0300343F010036B62296BA3
:1012E000184BC4F3C31203320F2A03EA010328BFC9
:1012F0000F22234343EA02732B63B5E77F2904D906
:101300000D4842F6075102F094F94F2C0B4A28BFC2
:101310004F24D2F87438002BFBD1094A936B23F089
:101320007F03234393639FE7BDE83840024842F6BA
:10133000155102F07EB900BF601D01000020C843B6
:1013400000400E4000F8FF0F38B502280C4604D0CC
:10135000134842F62D5102F06CF9124D6B6A13F0EE
:10136000300F1AD0202C15D0302C16D0ACB10C4830
:1013700042F6485102F05DF90B4BD5F8902033EA64
:101380000202FAD15B024ABFD5F8A0000120C0F3E7
:10139000802038BD4FF40003EFE74FF44003ECE743
:1013A000601D010000400E40FF33E10708B5022830
:1013B0000CD129B1094B4FF48060C3F8A8005966DD
:1013C0004AB1BDE808400220FFF7BEBF044842F61C
:1013D0007E5102F02EF9012008BD00BF00400E40F2
:1013E000601D01002DE9F047042804460F46914690
:1013F00021D83C4B3C4A13F800A03C4B13F800802A
:101400003B4B33F810603B4B33F81030D1B91366C7
:10141000012303FA08F3D2F890101942FBD1B9F175
:10142000000F57D00123304903FA0AF3D1F8902076
:101430001A42FBD14EE0BDE8F0472F4842F6F931A1
:1014400002F0F7B8022847D1536A13F0300F43D1A6
:101450002A4BDB6B5A0504D4274842F6084102F0B8
:10146000E8F8214A536ADB0705D5536A23F03003B5
:1014700043F010035362224D1B4BA8441E664FEAF3
:101480008808D8F80030002BFBD0B9F1000F21D02C
:101490005544AD002B68002BFCD0022C1AD1CFB1E3
:1014A000114F796A11F0010118D001222021204644
:1014B000FFF77CFFD7F89C40012200210220FFF7B4
:1014C00091FFC4F30A010220FFF7AEFE3E662B68CF
:1014D000002BFCD0BDE8F0870027CCE72046FFF7C3
:1014E00033FFE7E7A31D010000400E409E1D0100F1
:1014F000941D01008A1D0100601D010000300E4096
:101500008004F21038B5FFF7DDFA0021044600F040
:1015100061F91248FFF776FB012211460220FFF71E
:1015200061FFFFF7BBFB0CB1FFF7CAFB0C4B0222BC
:101530005A67FFF78BFAFFF765FBFFF7B1FA05462D
:10154000FFF7CCFB01462846FFF7DEFB2CB920460F
:101550000121BDE8384000F03DB938BD0148E8013F
:1015600000400E4010B504461120FFF7A1FC0428EE
:1015700004D1214842F6732102F05BF801220021D8
:101580000220FFF72FFF237C012B04D11A4842F6DB
:10159000B02102F04EF8194A217C536A23F001036E
:1015A000022908BF43F001035362154B2178C3F8A9
:1015B000A014637AA18843EAC123D362136BA07A93
:1015C000217A03F07F630343E08843EAC02343EAC0
:1015D000C11303310F2928BF0F2143EA017313639D
:1015E000A37B617B1B0143EA0133E17B0B43217B3E
:1015F00043EA0143536310BD601D010000400E40EB
:101600000000C84370B505461120FFF751FC0228C1
:1016100004D10F4842F62B3102F00BF80D4E0E4C60
:10162000B26B6B7814402A78144344EAC324AB7835
:1016300044EA0364EB7844EA0324B36BA34205D085
:10164000002101220846FFF7CDFEB46370BD00BF44
:10165000601D010000400E4080E4FFF8034BD86B92
:1016600080F04000C0F38010704700BF00300E4093
:1016700010B542EA0322B2F5007F194C29D00AD8EE
:10168000B2F5807F22D040F201139A4215D062B9A0
:10169000D4F81C320BE0B2F5407F1DD040F201338C
:1016A0009A4210D0D4F8283201E0D4F82432C3F39F
:1016B0000722DBB203600A6010BDD4F824321A0E90
:1016C000C3F30743F6E7D4F82832F8E7D4F81C321E
:1016D000F5E7D4F82032EAE7D4F82032EFE700BF8C
:1016E0000081E00F08B5FFF7B9FF20B1024AD2F838
:1016F000C830002BFBD108BD0000C6430E4A037959
:10170000916921F03F010B43017843EA810341785D
:1017100043EA4103817843EAC103C178012908BF44
:1017200043F0010393611368417923F4403343EAA2
:1017300001431360704700BF00300E402DE9F041B7
:1017400004460F46FFF78AFFC8B3DFF88480FFF72F
:10175000C9FFD8F80430C3F301439C422FD0194B82
:10176000D3F80061FFF772F9022C054617D1164B2A
:10177000C6F3042606FB00069E4204D9134840F235
:10178000AD7101F056FF02212846FFF7BDFA104B5C
:1017900010221A619FB1BDE8F041FFF7A3BFC4F169
:1017A000020210239340C8F810300FB1FFF79AFFE0
:1017B0002CB921462846BDE8F041FFF7A5BABDE89F
:1017C000F08100BF00400E40002D3101D01D01000E
:1017D00000300E4038B505460C46FFF73FFFB8B164
:1017E00045B90C4BD3F80051FFF730F9C5F3042588
:1017F00005FB0005084B1B7821463BB1074B9D427A
:1018000004D80220BDE83840FFF798BF0020F9E770
:1018100038BD00BF00400E40CDA90120002D310190
:1018200010B5234B4AF6E852596B5A639A6FD207A8
:10183000FCD41B6C13F0030306D01E4A012498420B
:10184000C2F8B44A1AD110BDA0B1431E012B17D85B
:10185000174A4FF40023D362936FDB07FCD4136C59
:1018600023F0030343F001031364114A536A1C037A
:10187000FCD505E00F4BC3F8B40AE4E7032BE4D032
:101880000B4B9A6FD207FCD41A6C22F0030202436E
:101890001A649A6F12F00102FBD10038054C18BF90
:1018A00001200129C4F8B40A08BF5A63CBE700BF7E
:1018B00000300E400000C6432DE9F04F8BB00023EE
:1018C000CDE90433CDE90633CDE90833A0F5E16372
:1018D000B3F5966F05460191934608D940F61C4131
:1018E0006E4801F0A6FE00200BB0BDE8F08F6C4BF7
:1018F000DFF8B081D3F81842B0F5E16F15BF4FEAB9
:10190000146AC4F3072AC4F30744E4B20694CDF87A
:1019100024A0D8F84C60C6F301768CBF01220022C7
:10192000334607A904A815BF4FF4E1674FF4966743
:101930004FF496694FF416790392FFF799FED8F8A1
:10194000EC30039AC3F3012308A905A80293FFF71B
:101950008FFEA5EB070CAAEB04020CFB02F2B2FB14
:10196000F9F214445445079F0498089A05991ED823
:10197000A2EB010E0CFB0EFEBEFBF9FE11EB0E01FD
:101980002CBF4FF0010E4FF0000E8A420FD3BEF174
:10199000000F0CD13A1A0CFB02F2B2FBF9F28018DC
:1019A0002CBF01220022874201D3029B12B140F6D4
:1019B0006A4195E7BBF1000F0FD0D8F85C20B5F570
:1019C000E16722F4FE4218BF012722F0020242EA38
:1019D000470242EA0422C8F85C20019A0AB90120B1
:1019E00082E72F4A022ED2F8302212D0032E13D0D3
:1019F000012E14BFD2B2C2F30722120312F4702FC9
:101A00000CD040F61621254801F013FE40F679412E
:101A100066E7C2F30742F0E7120EEEE7214EF46EDE
:101A200024F470442243F2661D4A022BD2F830227D
:101A300012D0032B13D0012B14BFD2B2C2F3072252
:101A4000120312F4702F0CD040F62221134801F03B
:101A5000F0FD40F6814143E7C2F30742F0E7120E82
:101A6000EEE7104CD4F8EC3023F470431343C4F881
:101A7000EC30636E884238BF084623F4FF73E728D2
:101A800023F0010328BFE720B5F5E16F18BF43F04D
:101A9000010343EA40036366A1E700BFD01D0100D4
:101AA0000081E00F00300E4008B5324A136FD16C50
:101AB00011F0010F03F0060342D0002B40D0132891
:101AC00055D9143813288CBF102308232949013B0A
:101AD000CA6C180322F47F4240EA03231343CB6409
:101AE000254BCA6C1B88C2F303222833013202EB58
:101AF000820003EB5303B3FBF0F3C86C013B072BED
:101B000028BF072320F0EE6040EA036343F480130C
:101B1000CB641A4BB3F90030002B10DB283350088C
:101B200000EB420203EB5303B3FBF2F30A6D072B06
:101B300028BF072322F0700242EA03130B6508BD99
:101B4000D16C01F00101194304D109280FD90A38D9
:101B50000928B8E7D26CD20702D50BB92728B2E71B
:101B6000074840F6BF4101F064FD0023AEE70423BF
:101B7000ACE700BF00300E40382B0120342B012091
:101B8000D01D010010B50C4BD3F88039044633B991
:101B9000012804D9094840F6DD4101F04AFD084A10
:101BA000136F23F0070323431367064BBDE8104070
:101BB0001888FFF779BF00BF0000C643D01D0100A1
:101BC00000300E40362B012038B5594B02229A6363
:101BD0009B6B03F00F039342044607D040F6AB2102
:101BE000544801F026FD0025284638BD0389C82B3E
:101BF00004D9504840F6B52101F01BFDA288238985
:101C00009A4204D94B4840F6B62101F012FDB4F9CE
:101C10000C30C82B04DD474840F6B72101F009FD20
:101C20006378012B55D1A388C82B04D940F6BB217A
:101C3000404801F0FEFCE28842F210739A4204D957
:101C40003C4840F6C82101F0F4FCE2884A2A48D911
:101C5000B2F5FA7F47D340F6C3139A428CBF4FF0D8
:101C600040524FF000523249B4F90C00CB6C23F0D3
:101C7000405323F001030028A8BF43F0010313439E
:101C8000CB64D1F8EC30A28843F44073C1F8EC3057
:101C9000294B1A80CB6E43F08073CB66274BD3F869
:101CA000800900B10420FFF76DFF254B21891980C1
:101CB000244BB4F90C20A0881A80FFF7F5FEA37B13
:101CC000A3B1012B1FD01B4840F6C71101F0B1FC96
:101CD0000FE0022BAFD1A3880A2BACD94FF42C61B3
:101CE000A6E70022BFE74FF08052BCE7104B164A30
:101CF0009A65012260881146FFF7DEFD054628B986
:101D000040F6FF216CE70A4B104AF1E7084AD36B13
:101D100043F48063D3636078FFF782FDA37AA3F175
:101D2000200253425341054AC2F894375CE700BF92
:101D300000300E40D01D0100362B01200000C643AC
:101D4000382B0120342B012077402057372110B742
:101D500038B50A2804460D4605D80B4B33F8103029
:101D6000CB40DB0704D409484FF4866101F061FCE5
:101D700030230C2113FB041303F18C43012203F5E0
:101D80002043AA401A6038BD4E1E0100F91D010013
:101D900038B50A2804460D4605D80B4B33F81030E9
:101DA000CB40DB0704D4094840F2014101F041FC7B
:101DB00030230C2113FB041303F18843012203F5A4
:101DC0002043AA401A6038BD4E1E0100F91D0100D3
:101DD00010B51F28044603D90648522101F029FCFA
:101DE000054AD2F8443423F003032343C2F84434B1
:101DF00010BD00BF231E010000A00040F8B50A2856
:101E000004460D4616461F4605D81C4B33F81030C5
:101E1000CB40DB0704D41A484FF4B07101F009FC41
:101E200026B129462046CFB1FFF792FF04EB4403C9
:101E3000072D4FEA03134FF00F0112D8A80006FA3E
:101E400000F281400F48184401F021FCAEB9294648
:101E5000204677B1BDE8F840FFF77ABFFFF798FF5B
:101E6000E4E7A5F10800800006FA00F28140064888
:101E7000E9E7BDE8F840FFF78BBFF8BD4E1E010053
:101E8000231E010004A0004008A0004038B502282D
:101E900004460D4603D911484C2101F0CAFB6B7969
:101EA0001F2B03D90D484F2101F0C3FBAB786A7893
:101EB0009B0143EA82032A781343EA7843EA021338
:101EC0002A7943EAC2236A7943EA0233AA790434BD
:101ED00043EA42432401024A135138BD641E010003
:101EE00000200440014B1860704700BF000084428E
:101EF000437882789B0043EA021302781343C27846
:101F000043EA4213027943EA0223427943EA023365
:101F1000827943EAC233C27943EA0243027A43EA4E
:101F20004243014A1360704700200440024BD3F83B
:101F3000FC00000E704700BF0081E00FF8B50746B7
:101F40000C461D4616464AB9324840F2551101F07A
:101F500070FB24B1402D08D1062327E019B92E4883
:101F6000FFF76EF80446402D42D0402D09D87DB1D0
:101F7000202D17D0BDE8F84026484FF4CE7101F06F
:101F800058BB602DF6D1B6EB940F3CD804230DE07E
:101F9000B6EB141F04D91F4840F2871101F049FB2A
:101FA000102303E0B6EBD40F1CD808235E4373085C
:101FB00003EB4413B3FBF6F3184E203BB6EBC30F11
:101FC0004FEAC30404D2134840F2B31101F031FBCD
:101FD0003B6823F060033B603B6834401D433D6039
:101FE0007C61F8BD0B484FF4C67101F022FBDCE7C1
:101FF0000623B4FBF3F3B342AED2064840F291118C
:1020000001F017FBA8E703484FF4CB7101F011FB77
:10201000BCE700BF8E1E010040410500F8FF7F00B5
:1020200070B506460C46154622B90D4840F2A62169
:1020300001F0FFFA1CB90B48FFF702F804460A4BFF
:102040006D00013CB4FBF5F413EA04234FEA0425C8
:1020500004D0034840F2CB2101F0EBFA756170BD6A
:102060008E1E010040410500070080FF10B51F4B88
:102070009842044610D003F5806398420CD003F5D3
:102080008063984208D003F58063984204D01848D2
:1020900040F25E4101F0CDFA40F6AA63E36041F2FE
:1020A0000502002323606260124AA3606361E36457
:1020B000A2640E4A236694426367A367E3670DD068
:1020C00002F5806294420BD002F58062944205D002
:1020D00002F58062944203D0A36510BD2365FBE73F
:1020E0002365A3650023E365F7E700BF0000014017
:1020F0008E1E0100F9FF010038B5294B98420446B5
:102100000D4610D003F5806398420CD003F5806330
:10211000984208D003F58063984204D0214840F2E9
:10212000153101F086FA2046FFF7A0FFAB7C1BB10A
:10213000236843F080432360EB7C1BB12B7D43F08D
:102140008003A3652A8A6B7B1343EA891343636088
:102150002B7BD5E901122046FFF7F0FE6B7D1BB10A
:10216000236843F480332360AB7D1BB1236843F4C1
:1021700000432360EB7D2A7E1B07120502F4E00278
:1021800003F0E04313432366636F23F03003636778
:10219000626F6B7E134363672B78E36038BD00BFCB
:1021A000000001408E1E010038B5294B98420446BC
:1021B0000D4610D003F5806398420CD003F5806380
:1021C000984208D003F58063984204D0214840F239
:1021D000813101F02EFA2046FFF748FF2B8A226852
:1021E00043F001031343AA7B43EA8223236023685D
:1021F0002A7D43EA42732360AB7C1BB1EB7C43F046
:102200008003A3652B7B43F480536360D5E90112FF
:102210002046FFF705FF6B7B0BB11023E3606B7D5E
:102220001BB1236843F480332360AB7D1BB123686B
:1022300043F400432360EB7D2A7E1B07120503F065
:10224000E04302F4E002134323662B78E36038BDD9
:10225000000001408E1E01007FB5094B6A4603F164
:102260001006154618685968144603C40833B3426B
:102270002246F7D12846FFF7A7FC002004B070BD26
:10228000BA1E010070B586B0184B01AA03F1100602
:10229000154618685968144603C40833B3422246E9
:1022A000F7D11B882380124BD3F8B420120317D523
:1022B000A3F500434FF6FF711A8840F247138A4294
:1022C00018BF13460B48ADF80A30FEF701FC28464C
:1022D000FFF748F93220FEF7A1FF002006B070BDDD
:1022E000D3F8B830C3F30803ECE700BFCA1E0100FF
:1022F0000081E00F00F0490207B5084B1868019013
:10230000202301A88DF80430FFF77CF93220FEF776
:102310007FFF002003B05DF804FB00BFDC1E01005E
:1023200010B50C480C4C6FF00403A02113F0800F83
:1023300003F1010207D12344332A83F80013134623
:10234000F4D1002010BD03F00F03043B03441976C1
:102350001346EBE700ED00E000E100E030B50E4C85
:10236000416123688BB9206083600DE0891A9A6807
:1023700041611D466AB113465A698A42F6D935B1A0
:10238000A860521A83605A6130BD0025F4E72060CE
:10239000F7E798608260F7E7A410002038B500F0F6
:1023A0008BF9094C094B1A6823680025C31A2AB116
:1023B00023B15169994203D3C91A5161206038BDD4
:1023C00055615B1A9268F2E7A0100020A41000206B
:1023D00038B5134D2B685B6993B1124A146802201B
:1023E0001C4400F09DF9204600F06CF90E492A6863
:1023F00000230B70D088800709D501230B7038BDEE
:10240000022000F08DF9022000F0B0F9EEE79268AA
:10241000002AF4D050690344012BEBD9EFE700BF49
:10242000A4100020A0100020CFA901200C490B68A7
:1024300000227BB183420AD183687AB193608368BA
:102440001BB15A6941690A445A61002070471A4613
:102450009B68EEE70028EFD0022070470B60EEE7A4
:10246000A410002070B5154E01F008F93478054627
:10247000FCB9134B1C60134B1C60134B1C8000F009
:10248000D5F8012000F04CF900F090F90F4B02460E
:10249000186020B9284601F0F7F8232070BD2346C4
:1024A0000B4840F2E73100F0B7F90A4B18600123FE
:1024B0003370284601F0E8F80020EFE7D0A90120AA
:1024C000A4100020A01000203A2B0120A81000200A
:1024D00018FCFFFF9C1000202DE9F843C2070446BA
:1024E0000BD54E4A138801339BB21380FFF756FF7A
:1024F0004B4B1B680BB1FFF76BFFA30740F18B80C1
:1025000001F0BCF80546FFF749FF4FF00008444FC3
:1025100046463C680CB163698BB1424B0022012EE8
:102520001A7003D118F0020F18BF1E70002C6ED065
:10253000FFF74EFF2846BDE8F84301F0A5B8234653
:102540005A693AB91A792179914288BF1C469B6829
:10255000002BF5D1284601F097F82569DDB100F090
:10256000ABF8A269A0EB02084FEAE873A84573F143
:10257000000311DB23691344A361E368B4F8068008
:10258000013613B121682046984701F077F80546D7
:10259000FFF704FFBDE7A84601F070F8814620462A
:1025A000FFF744FF484601F06FF82369002BE4D0A1
:1025B000B5EB08054FEAE87363EB4303012D73F1B4
:1025C000000304DA184840F22A5101F032F8A38BD4
:1025D00033B1E28B13449BB2B3F57A7F0FD2E3831E
:1025E00001F04CF8294680462046FFF7B7FEA36964
:1025F00022691344A361404601F046F8BDE7A3F504
:102600007A73E383A369013B013DA361E8E70220FC
:1026100000F094F88EE7BDE8F88300BF3A2B012064
:10262000A4100020CEA90120E01E010010B586B044
:102630001D4B1868596803AA03C2197AD3F8090018
:1026400011700024B3F80D200190DB7B1748ADF822
:10265000082001218DF80A30FEF766FB8DF80C404A
:1026600001F03CF88DF8100003A8FFF741FC01A928
:1026700001208DF80440FFF709FC0D4A536A23F44A
:10268000FF6323F00703536240F2FF7313620120DC
:102690009460FFF727FC074B4FF08042C3F880217E
:1026A0001A6006B010BD00BF1D1F0100A009140074
:1026B0000020044000E100E0014B9868704700BF33
:1026C0000020044010B5044600F0D1FF124A936880
:1026D000516D9269520704D4CA1A032A01D88B4259
:1026E0000DD1E21A022A98BFDC1C0B4BB4F1FF3F5C
:1026F00038BF013C5C655A6A42F004025A6200F03D
:10270000BAFF064A137833B103490B6D43F0020355
:102710000B650023137010BD002004406C100020D6
:102720008207054A00F00103516A48BF43F00403E1
:102730000B435362704700BF00200440820700F043
:10274000010309D5074A0121117007490A6D22F0DA
:10275000030243F004030A6503494A6A22EA0303B9
:102760004B6270476C10002000200440830742BF7A
:10277000014B0422DA6170470020044010B500F0DC
:102780007DFF094A93690446590703F0010003F0ED
:10279000070348BF40F002001362FFF79DFE20468A
:1027A000BDE8104000F070BF0020044008B50448A8
:1027B000FEF746FC034600F091FF23FA00F008BD47
:1027C000A009140010B50446FEF76AF94FF47A72B6
:1027D0009042B0FBF2F105D23621BDE810400B4823
:1027E00000F027BF0A4BB3FBF1F30A49884201D935
:1027F0003C21F2E702FB04F0B0FBF3F0032804D91C
:10280000BDE810408008FDF783BC10BD2D1F0100FE
:1028100040420F00E7CD9A3B53B94AB9002908BF9F
:1028200000281CBF4FF0FF314FF0FF3000F06AB9B5
:10283000ADF1080C6DE904CE00F006F8DDF804E017
:10284000DDE9022304B070472DE9F047089D0C46EE
:10285000002B4ED194468C458646B2FA82F262D95C
:102860004AB1C2F12003914020FA03F30CFA02FCB2
:10287000194300FA02FE4FEA1C471FFA8CF6B1FB1F
:10288000F7F44FEA1E4307FB141143EA014304FB2C
:1028900006F199420AD91CEB030304F1FF3080F0E2
:1028A0001381994240F21081023C6344591A1FFA85
:1028B0008EF3B1FBF7F007FB101143EA014300FB75
:1028C00006F69E420AD91CEB030300F1FF3180F0AB
:1028D000FD809E4240F2FA80634402389B1B40EA2E
:1028E000044000211DB1D3400022C5E90032BDE8FB
:1028F000F0878B4205D90DB1C5E9000100210846DA
:10290000F5E7B3FA83F1002946D1A34202D39042FE
:10291000C0F0F180861A64EB03030120002DE6D09D
:10292000C5E90063E3E7002A40F09180A1EB0C04C5
:102930004FEA1C481FFA8CF70121B4FBF8F64FEA66
:102940001E4308FB164443EA044307FB06F0984283
:1029500008D91CEB030306F1FF3402D2984200F2BF
:10296000CE8026461C1A1FFA8EF3B4FBF8F008FB43
:10297000104443EA044300FB07F79F4208D91CEBCD
:10298000030300F1FF3402D29F4200F2B1802046DF
:10299000DB1B40EA0640A5E7C1F120068B4022FA86
:1029A00006F71F4320FA06FC04FA01F343EA0C037E
:1029B000F44000FA01F8380C4FEA1349B4FBF0FE7A
:1029C0001FFA87FC00FB1E4449EA04440EFB0CF985
:1029D000A14502FA01F20AD93C190EF1FF3A80F042
:1029E0008580A14540F28280AEF1020E3C44A4EB0A
:1029F00009041FFA83F9B4FBF0F300FB134449EA1E
:102A0000044403FB0CFCA44507D93C1903F1FF3037
:102A100068D2A44566D9023B3C4443EA0E40A0FB81
:102A20000293A4EB0C049C42CE469C4652D34FD05A
:102A300055B1B8EB0E0364EB0C0404FA06F6CB4078
:102A4000CC401E43C5E900640021BDE8F087C2F117
:102A5000200320FA03F10CFA02FC24FA03F3944059
:102A60000C434FEA1C4800FA02FE1FFA8CF7B3FB36
:102A7000F8F008FB1031230C43EA014300FB07F197
:102A8000994208D91CEB030300F1FF362CD299427E
:102A90002AD9023863445B1AA4B2B3FBF8F108FBED
:102AA000113344EA034401FB07F3A34208D91CEBAA
:102AB000040401F1FF3613D2A34211D90239644450
:102AC000E41A41EA004138E70446EFE6084605E724
:102AD000C845ADD2B9EB020E63EB070C0138A7E78E
:102AE0003146EDE7034698E73046D4E7D6467EE721
:102AF000634402384CE70646234608460EE7023E8A
:102B000063442FE7704700BF08B5064B044613B176
:102B10000021AFF30080044B1B6803B198472046A7
:102B200000F088FD00000000EC110020024B01467F
:102B3000186800F025B800BF1810002070B50F4EBF
:102B40000C463168054611B900F0ACF830602146FA
:102B5000284600F0A7F8431C03D14FF0FF3420466D
:102B600070BDC41C24F00304A042F8D0211A2846EA
:102B700000F098F80130F2D1EFE700BFAC10002070
:102B80002DE9F041CD1C25F0030508350C2D38BF8B
:102B90000C25002D064601DBA94204D90C23336025
:102BA0000020BDE8F081314F00F062F83B681C4620
:102BB00044BB29463046FFF7C1FF431C044650D1B1
:102BC0003C682146002941D1002C44D0236830467E
:102BD00004EB030800F066F880453CD121686D1ACB
:102BE00029463046FFF7AAFF013034D023682B4432
:102BF00023603B68002B36D05A68A24229D10022BC
:102C00005A600EE02268521B1DD40B2A16D9611996
:102C1000A342256018BF5960636808BF39606251DC
:102C20004B60304600F02AF804F10B00231D20F021
:102C30000700C21AB5D01B1AA350B2E7A3426268BC
:102C4000DED13A60EDE723466468B1E70C46496897
:102C5000B8E71346CEE70C233360304600F00EF899
:102C60009EE70560DDE75B60FFDE00BFB01000207F
:102C7000014800F084BD00BFD1A90120014800F047
:102C80007FBD00BFD1A9012007B5009313460A46B6
:102C900001460348006800F03FFD03B05DF804FB07
:102CA0001810002038B5064D0023044608462B6056
:102CB000FDF732FF431C02D12B6803B1236038BDFE
:102CC000F011002070B50D4D0D4C641BA4100026B2
:102CD000A64209D10B4D0C4C00F082FE641BA410DF
:102CE0000026A64205D170BD55F8043B9847013631
:102CF000EEE755F8043B98470136F2E770100020E4
:102D000070100020701000207410002038B50546A7
:102D1000002941D051F8043C0C1F002BB8BFE41827
:102D2000FFF7A6FF1D4A136833B963601460284695
:102D3000BDE83840FFF7A2BFA34208D92068211898
:102D40008B4201BF19685B6809182160EDE71A46DC
:102D50005B680BB1A342FAD911685018A0420BD19D
:102D600020680144501883421160E0D118685B6804
:102D7000536008441060DAE702D90C232B60D6E7D1
:102D8000206821188B4204BF19685B68636004BF28
:102D9000091821605460CAE738BD00BFB010002098
:102DA0002DE9F04F98468B891B069DB007460D46CE
:102DB000144610D50B6973B94021FFF7E1FE286076
:102DC000286130B90C233B604FF0FF301DB0BDE8E7
:102DD000F08F40236B610023099320238DF8293065
:102DE000CDF80C803023DFF89C818DF82A304FF02D
:102DF000010923469A4613F8012B0AB1252AF9D175
:102E0000BAEB040B0BD05B4622462946384600F04D
:102E1000C6FC013000F0A780099A5A4409929AF83A
:102E20000030002B00F09F8000234FF0FF32CDE9EF
:102E300005230AF1010A049307938DF853301A937E
:102E40005446052214F8011B4E48FDF769F9049A0F
:102E5000D8B9D00644BF20238DF85330110744BFA2
:102E60002B238DF853309AF800302A2B15D0079A6F
:102E7000544600204FF00A0C214611F8013B303B2C
:102E8000092B4BD9B0B1079214E0A0EB080309FA63
:102E900003F313430493A246D2E7039B191D1B6857
:102EA0000391002BBBBF5B4242F0020207930793E2
:102EB000B8BF049223782E2B0AD163782A2B32D103
:102EC000039B1A1D1B68039243EAE37302340593C4
:102ED000DFF8C0A0217803225046FDF721F938B170
:102EE000049BA0EB0A004022824013430134049368
:102EF00014F8011B24488DF828100622FDF710F95C
:102F0000002836D0214B1BBB039B073323F007035C
:102F100008330393099B334409936AE70CFB02329D
:102F20000C460120A8E700230134059319464FF011
:102F30000A0C204610F8012B303A092A03D9002B3D
:102F4000C6D00591C4E70CFB012104460123F0E73C
:102F500003AB00932A460E4B04A93846AFF300801A
:102F6000421C0646D6D1AB895B063FF52DAF0998CA
:102F70002CE703AB00932A46054B04A9384600F022
:102F80000BF8EDE7621F01006C1F0100000000005C
:102F90009F370000681F01002DE9FF470F7E0C9E40
:102FA000782F914680460C469A4601F1430207D895
:102FB000622F0AD8002F00F0DD80582F00F0C38068
:102FC00004F1420684F842703AE0A7F16303152B3E
:102FD000F6D801A151F823F031300000453000004F
:102FE000C12F0000C12F0000C12F0000C12F000021
:102FF00045300000C12F0000C12F0000C12F00008C
:10300000C12F00005B310000D330000013310000FD
:10301000C12F0000C12F00007D310000C12F000032
:10302000D3300000C12F0000C12F00001B31000071
:1030300033681A1D1B68326004F1420684F842307E
:103040000123A8E031682368081D30601E0601D501
:103050000D6803E05D06FBD5B1F900506168002DF5
:1030600078DA2D20002984F84300A1602DDA5E482B
:103070006D420A231646B5FBF3F103FB1157C75DFA
:1030800006F8017D2F46BB420D46F4D9082B0BD123
:103090002368DF0708D5236961689942DEBF3023C2
:1030A00006F8013C06F1FF36921B2261CDF800A024
:1030B0004B4603AA2146404600F0CCFB01306FD1BD
:1030C0004FF0FF3004B0BDE8F08723F00403236025
:1030D000CDE721683368080653F8045B02D449063B
:1030E00048BFADB26F2F4048336014BF0A23082396
:1030F000002184F843106668A660002EBADB2168C0
:1031000021F004012160002DB4D1002EB2D1164669
:10311000BCE7236843F0200323603448782784F811
:103120004570236831681F0651F8045B02D45F06BE
:1031300048BFADB23160D90744BF43F020032360DC
:103140001DB11023D4E72848E9E7236823F02003C2
:103150002360F6E724480A23CDE7336825686169D0
:10316000181D30602E061B6801D5196002E0680644
:10317000FBD5198000232361164697E733681A1D93
:1031800032601E68626800213046FCF7C9FF08B152
:10319000801B606063682361002384F8433085E707
:1031A0002369324649464046D047013088D02368DB
:1031B0009B0714D4E068039B9842B8BF184681E788
:1031C0000123324649464046D04701303FF478AFAC
:1031D0000135E36803995B1AAB42F1DCEAE70025AD
:1031E00004F11906F5E700BF731F0100841F0100F9
:1031F000704708B500F074FAFDF72CF900F07DFA7D
:10320000FFF7F6FFFAE72DE9F047534300263F2783
:103210004FF03B0C1F224FF01E0E4FF00B084FF0EB
:103220006409B34207DC4A1EC1F1010188188342D8
:103230001FDCBDE8F08730F81650EC0AC5F3451ADC
:10324000C4EB0424B4FBF2F40EFB04F4CAEB0A2A28
:1032500005F01F05BAFBF7FA0CFB0A44C5EB052580
:10326000B5FBF2F508FB0544B4FBF9F48C550136C7
:10327000D7E792F901000028507805DB00EB400009
:10328000800802F8010FD1E700EB8000B0F5806FF5
:10329000B4BFC0F38700FF20F3E72DE9F04F00260D
:1032A0004FEA62095B10B446B64602F1010A9E4538
:1032B0001BDA00EB4C0501EB060800270EE095F841
:1032C00001B02C785C4415F802B05C4415F80AB0E3
:1032D0005C44A41008F8014B013702354F45EEDB82
:1032E0000EF1010E94444E44E1E7BDE8F08F2DE964
:1032F000F04F89B0CDE90312129901390591C11837
:103300000691591E1A464FF0000C4FF0010E07911E
:103310004FF002080599714547DD039CD11804EB75
:103320004204029100940699049C1718114404EB7E
:1033300042020CEB0005019200242DE095F800906C
:1033400017F801BBAE7811F801AB7A78A6EB090645
:103350006FF0010909FB0B6618FB02624E78A2EBC5
:103360000A023244009E521026F8142015F8012B50
:103370000E7895F800905242A2EB49096A78A9EBC1
:10338000020211F8019C4A4418FB06224E7832448E
:10339000019E521026F81420079A0134A242CDDC77
:1033A000029A0EF1010E9C44B4E709B0BDE8F08F1B
:1033B0002DE9F04F93B002EBD2767610CDE90A23D7
:1033C000A6F115034B43A6F11407049301FB07F381
:1033D0000593A6F113034B430693002301EBD1752C
:1033E000019306F114036D100F93A0F115032B4404
:1033F0000C460990029629460C930F9BBB4216DAA5
:10340000019B0B9A1D2BD8BF2946029BD8BF334680
:1034100002934FEA81331360029BC8BF01204FEA39
:103420008333D8BF0020536013B0BDE8F08F012F65
:103430001CDD0A9B023BBB4218DD0C9B049A03EB8C
:10344000020A099B059AEB1813440393069A0C9BF6
:1034500003EB020B05F114030E93A31EA5F114094F
:1034600010930E9BCDF820904B450ADA049B234421
:103470000493059B23440593069B2344013706933D
:10348000BBE7B9F1010F3CDD109B4B4539DD9AF8E4
:1034900000009BF802309AF801E007939AF80220A6
:1034A0009BF800C09BF8018011914342A3EB4E03AF
:1034B0009B1A6344022111FB0838079B0399984427
:1034C0004FEA68030D93039B11F815EC13F8133CB6
:1034D000121A6FF0010000FB0E22022111FB0320E3
:1034E000079BA0EB0C001844401000F011F9804637
:1034F0000D9800F00DF9019A119908EB00039A421A
:103500000DDB019B0891039A08990193013209F19F
:1035100001090AF1010A03920BF1010BA1E70297DD
:10352000F1E72DE9F04F89B01746DDE91229169C25
:103530009846D2E9003205460E46013C0DF1180AC4
:103540000DF1100B002C05DA0120C9E9003209B099
:10355000BDE8F08F23410493159BCDF800B02341C3
:103560000393149B2341CDE901A32241059258F80E
:10357000243057F8242056F8241055F82400FCF77E
:10358000D5FF28B1069B079A5B005200013CD9E7A2
:103590004FF0FF331A46D8E70FB430B5A3B026ABCF
:1035A000802153F8042B019302A8FFF76DFB011E45
:1035B00008DD02AC002514F8010B0135FDF7E0F839
:1035C000A942F8D1084623B0BDE8304004B07047A6
:1035D00000F016B808B5FDF7AFFABDE8084000F0F6
:1035E00018B808B500F00AF8BDE80840FEF73ABF81
:1035F0007047704770477047704770470F2070479B
:1036000008B50023184604220521FEF7F7FB002029
:1036100008BD08B5082000F00EF8BDE808400820F5
:1036200000F014B8FEE74FF4004070474FF47A7092
:103630007047FEE7FEE74FF060420123D2F8001E1C
:1036400083400B43C2F8003E002070474FF06041BA
:103650000122D1F8003E824023EA0203C1F8003E75
:103660000020704708B5FDF7ADFB013008BDEFF352
:10367000108072B6704700B962B67047EFF31180E0
:10368000602383F31188704780F31188704770B509
:1036900005460E461446FFF7EAFF2B685C403440AF
:1036A0005C402C60BDE87040FFF7E5BF03695A0637
:1036B000FCD5416303699B06FCD5C069C0B2704765
:1036C00013B568460024022300948DF804408DF859
:1036D0000530FEF713F8204602B010BD00207047F9
:1036E00008B5FDF797F8FFF775FFFFF77AFFFFF7CB
:1036F0007FFFBDE80840FFF77CBF08B5FFF77AFF02
:10370000FFF779FFFFF778FFBDE80840FFF775BFC7
:103710000028B8BF4042704730B51446002C9BB01B
:1037200005461A4605DA8B2303604FF0FF301BB0C5
:1037300030BD4FF40273ADF80C3014BF04F1FF3309
:103740002346029305934FF6FF7300910491ADF861
:103750000E3069461E9BFFF723FB431CBCBF8B2327
:103760002B60002CE3D0009B00221A70DFE702449C
:103770000346934200D1704703F8011BF9E77047F5
:1037800070470A44914200F1FF3300D1704710B5F1
:1037900011F8014B03F8014F9142F9D110BD2DE909
:1037A000F0478E681F46BE420B6882460C46904624
:1037B0002DD8B1F90C2012F4906F26D065690969F3
:1037C00005EB4505A3EB010905EBD5757B1C4B44C7
:1037D0006D109D4238BF1D46530527D52946FFF77A
:1037E000CFF9064660B321694A46FFF7CAFFA389AD
:1037F00023F4906343F08003A381266165614E4406
:10380000A5EB09052660A5603E46BE4200D93E46AE
:1038100020683246414600F08AF8A3689B1BA360EB
:103820002368334423600020BDE8F0872A4600F077
:1038300098F806460028E0D121695046FFF766FA5D
:103840000C23CAF80030A38943F04003A3814FF052
:10385000FF30E9E72DE9F047164698468A680B697C
:10386000DDF820909342B8BF1346336091F84320AF
:1038700007460C460AB1013333602368990642BFFC
:10388000336802333360256815F0060506D104F16C
:10389000190AE36832689B1AAB4226DC94F843307D
:1038A0002268003B18BF012392062BD404F1430287
:1038B00041463846C84701301ED02368226903F0CC
:1038C0000603042B02BFE5683368ED1AA3680CBF3A
:1038D00025EAE57500259342C4BF9B1AED18002622
:1038E0001A34B5421AD1002008E00123524641465D
:1038F0003846C847013003D14FF0FF30BDE8F087AC
:103900000135C6E7E1185A1C302081F843002244F3
:1039100094F8451082F843100233C7E7012322468A
:1039200041463846C8470130E6D00136D9E78842DB
:1039300010B501EB020402D98442234607D8431E86
:10394000A14208D011F8012B03F8012FF8E7024437
:1039500001468A4200D110BD13F8014D02F8014D15
:10396000F7E72DE9F041804615460C4621B9BDE840
:10397000F0411146FFF704B92AB9FFF7C7F900244F
:103980002046BDE8F08100F01AF88542064602D8CC
:10399000B5EB500FF4D829464046FFF7F1F807463B
:1039A0000028ECD0B5422A46214628BF3246FFF710
:1039B000E8FE21464046FFF7A9F93C46E0E751F80A
:1039C000043C181F002BBCBF0B58C01870470000E8
:1039D00000000000000000000000000000000000E7
:1039E000F8B500BFF8BC08BC9E467047F8B500BFEC
:1039F000F8BC08BC9E4670470000000000000000B4
:103A000000000000000000000000000000000000B6
:103A100000000000000000000000000000000000A6
:103A20004F4B3A0A0025643A2050726F63657373F6
:103A3000696E67206672616D650A004572726F7209
:103A40003A2043616E6E6F74206C6F616420667201
:103A5000616D6520256420746F2052414D2E0A004F
:103A600025643A20436F6E766572746564206672D1
:103A7000616D6520746F20677261797363616C6535
:103A80000A0025643A204275696C7420707972616D
:103A90006D6964206C6576656C2025642873697A8D
:103AA000653A202564782564290A0025643A204374
:103AB0006F6D7075746564206772616469656E749A
:103AC000732C206C6576656C2025640A004E6F208F
:103AD0007374726F6E6720666561747572652066B7
:103AE0006F756E6420666F72206672616D65202549
:103AF000642C207573696E672063656E746572202F
:103B000028256C642C256C64290A0025643A20461B
:103B10006F756E64206665617475726520666F727C
:103B2000206672616D652061742028256C642C25E7
:103B30006C64290A0048656C6C6F2066726F6D209A
:103B4000784732340A5374617274696E672E2E2E70
:103B50000A0043616C63756C6174696E67206D6FF8
:103B600074696F6E2066726F6D2070726576207456
:103B70006F2063757272206672616D650A00496E0E
:103B8000697469616C206665617475726520706F17
:103B9000696E743A2028256C642C256C64290A000F
:103BA0004F70746963616C20666C6F772066616921
:103BB0006C65640A004F70746963616C20666C6F99
:103BC000772076616C69643A2028256C642C256C1A
:103BD00064290A00436F6D707574656420647920F0
:103BE0003D20256C642028617070726F7820256CF0
:103BF0006420706978656C73290A003D3E20557019
:103C00000A003D3E20446F776E0A003D3E20556E0F
:103C10006B6E6F776E0A0046696E616C2064793D49
:103C2000256C640A00000B6B2B6B2B6B0A6BEA6232
:103C3000EA62EA62C962C962C96AEE8B8C83AD8BA3
:103C40000A7B0A7BC972A962685A675A675A675A1F
:103C5000475A665A665A4652465247524652275269
:103C6000275227524752275226522752275227526D
:103C7000274A274A074A274A274A064A064A064A3F
:103C8000054AE549C44183416341633942394239B8
:103C90006339423942396339633963396339633986
:103CA00064398441A541E641E749064AE641A54118
:103CB000A54184418441A441A541C541C541C641B6
:103CC000C641E641E641A541A541843964396339DD
:103CD00063396439643984418441633943394339F0
:103CE000433943394339633983398439A441A44181
:103CF000A441A441A441A441A44184398439A441EC
:103D0000A441C541C541E541E541E541E5410642E2
:103D1000064A064A064A064A274A274A274A274A9F
:103D2000274A274A274A284A484A685288526852EE
:103D3000685268528952895289528952CB5A4D6BC6
:103D400055A5D8B5D8B5D8B5D8B5F8B5F8B5D8B55E
:103D5000F9B5F9B5D8B597ADB8ADD8B5D9B5F9B508
:103D60003ABE7BC67BC62B732B732B6B2B6B0A6BFC
:103D70000A6BEA6AC9620A6BEA6AEE8B2F9C6C8353
:103D8000EE93CD93C9728862685A675A675A675A28
:103D90004652675A675A475A475A47524752475AF4
:103DA000475A475A485A475A675A675A47524752DA
:103DB00047524752475247522752275227522652BC
:103DC000264AE549A441A4418341634163416341DB
:103DD00063394239423963394239433943394339C6
:103DE0006339A441C549074A074A074A064AC641FA
:103DF000A54184398439A541C541C541C541C64164
:103E0000C641E641E641E649E649C541A54184414E
:103E10008441A541A54184418441633943394339F3
:103E200043394339223163398339A441A441C44120
:103E3000C541E541E549E549C541C541C541C541E2
:103E4000C541C541E541064A064A064A064A064AB0
:103E5000264A264A274A274A274A474A474A474A7C
:103E6000474A274A474A274A284A484A484A484A26
:103E7000684A68528852AA52694ACB5AAA52D394C5
:103E8000D8B5B7B5D8B5D8B5F8BDF8B5F8B5D8B583
:103E9000F9B5F9B5F9B597ADB8ADD8B5D8B5F9B5A7
:103EA0003ABE7BC67BC64B734B734B732B6B2B6B32
:103EB0002B6B0A6BEA62EA6AA9626C7B70A4AD8B19
:103EC00050A4CE93C9728862475A275A475A475A14
:103ED000475A675A675A675A675A475A475A675A3A
:103EE000685A685A685A475A675A4752475248525E
:103EF00047524752475248524752475247524752F9
:103F00002652E549A441633963394339433943397A
:103F100043394239223963394339433943396339A3
:103F20006439A541E649074A274A274A064AC64155
:103F3000A54184398439A541C541E649E649E641B0
:103F4000E641E641C641E649E649C541A541A541EC
:103F5000A541A541C541C541C541A4418441844114
:103F6000844184418441C541C541E549E549E54174
:103F7000E541E549E549E549E549C541C541C54151
:103F8000C541C541C541C541C541C541C541C54101
:103F9000C541E541E541E641E6410642274A274A57
:103FA000274A274A274A274A474A484A484A6852DE
:103FB0006852895289526952CA5AAA52CF7BB7B500
:103FC000D7B5B7B5F8B5D8B5F8B5F8B5F8B5D8B52B
:103FD000F9B5F9B5F9B5B8AD97ADB8ADD8B5D9B5AE
:103FE0001ABE7BC67BC64C734C734B732B6B2B6B0F
:103FF0002B6B0A6BEA62EA6AC9622A730E9470A498
:104000002F9C6C832B7BC972676226522652475ABB
:10401000675A675A4752675A675A475A485A685AFE
:10402000685A685A685A685A885A685A685A685A60
:104030006852685268524852485248524752475252
:10404000064AC541843984398339633963398441E7
:1040500084418441A441A441A441A441C549C54926
:10406000C549E6492752274A274A274A074AC641EF
:10407000A54184418441C541E649064AE649E649ED
:10408000E649E641E641E649E649E649E649E649C8
:10409000E649C549C549C549C549C549A541A441E0
:1040A000A441A441A441A441A441A441A441A441E8
:1040B000843984398439A4418439843984398439F0
:1040C000843984398439A439A439A439A439A53967
:1040D000C541C541E541E641E641064A274A274A2E
:1040E000474A4752474A484A684A68526852885283
:1040F0008952A95AA9528952CA5A2C6375ADB7ADD3
:10410000B7ADD8B5D8B5D8B5D8B5D8B5D8B5D8B570
:10411000F9B5F9B5F9B5B8B597ADB8ADD8B5D9B564
:1041200019BE5AC67BC66C734C732B732B6B2B6BEF
:104130000B6B0A6B0A6BEA6AEA6ACA6A6C7B70A448
:104140004F9C8D8B4B832A7BA86A4762265A265246
:10415000275A475A475A685A685A685A685A885AB2
:1041600089628962885A885A885A885A685A685275
:1041700068526852685268526852685268522752B0
:10418000064AC541A541A541A441A441A441A44179
:10419000A441C549C549C549C549E549E549E64977
:1041A000E649064A274A485248522752274AE649D2
:1041B000A541A541A541E649E649064A064A064AFF
:1041C000064A074A064AE649E649E641C541C5416D
:1041D000C541C541C541A541A541844184396339E3
:1041E0004339433943314331633163398439843945
:1041F000843984398439A4398439843984398439B7
:10420000A439A4398439A539C541C541C541E54121
:10421000E6410642064A274A274A274A475247525A
:10422000474A474A474A6852685268526852895218
:10423000895289528952CA5ACA5AB29496ADB7B5B0
:10424000F8B5D8B5D8B5D8B5D8B5D8B5D8B5D8B5E6
:10425000F8B5F9B5F9B5D8B597AD97ADD8B5D8B526
:10426000F9B53ABE7BC66C734C734B732B732B6BD7
:104270000B6B0A6B0A6BC962EA6AA962C96A6C8332
:104280004F9C2F9C2B7BEA7AA8726762275AE651D3
:104290000652475A685A685A685A685A895AA9622F
:1042A000A96289628962685A685A685A6852685273
:1042B000685268524852685268526852685248526E
:1042C0002752274A064A47524752475227522752F7
:1042D000265206520652065206520652064A064A0E
:1042E000064A2752485248524852274A274AE6412E
:1042F000A5418541A541C541E649E649E641E6417A
:10430000E641E641E641E649C641A54184396439C2
:104310006439643984398441844184394339433967
:10432000433943392231433163318439A439A439C3
:10433000A441C441C541C541C541C541C541C5416F
:10434000E541E541E541C541E541E641E641E6415A
:10435000E6410642064A274A274A274A274A274A69
:10436000274A474A474A68526852685288528852D8
:10437000895289528952AA52EF7B96AD96ADB7B554
:10438000D8B5D8B5D8B5D8B5D8B5D8B5D8B5D8B5C5
:10439000D8B5D8B5F9B5D8B597AD97ADB8ADD8B54E
:1043A000D8B519BE7AC66C734C734C734C732B73AF
:1043B0000B6B0A6B0A6BEA6AEA6AC962A96ACA6A83
:1043C000CE8B70A4AD8BE97AA872676A2762065A11
:1043D0000652275A475A685A685A895AA962A962E6
:1043E000A9628962A96289628962895A895A895A4D
:1043F000695A895A895A68526852685248524852D2
:10440000475227522752074A064A064A064AE549B2
:10441000C541C541C54184418441843984398439C9
:104420008439A541E649274A274A274A074AE641EF
:10443000A5398439A541A541C541C641C641C641FA
:10444000E641E641E641074AE649C641A5398539D4
:10445000853984398439A541A541A5418439643918
:1044600064398439643963398439A439A439A5415C
:10447000A541C541C541C541C541C541C541C5412C
:10448000E641E641E641064A064A274A274A274AC4
:10449000274A274A274A274A274A474A484A68520A
:1044A00068526852685268526852895289528952D9
:1044B0008952AA52CA5A4D6B55AD96ADD7B5B7AD14
:1044C00097ADF8B5D8B5D8B5B8B5D8B5D8B5F8B5AD
:1044D000D8B5F8B5F8B5D8B597AD77A5B8ADB8AD3E
:1044E000B8AD19BE5AC66C734C734C734C734C7395
:1044F0002B6B0A6B0A6B0A6BCA62CA6AC96AC96A01
:10450000EA6AEE932F9C4B83C87A876A67622762B8
:10451000265A26520652475A685A8962A962A962E7
:10452000A962A86289628962895A895A885A695A35
:10453000695A695A695A695A68524852274A274A39
:10454000074AE649C641A539A53984398439643911
:104550006339643964396439643964396439843954
:104560008439A541E641074A074A274A274AE649CE
:10457000A541A541A541A541C541E641E649E64918
:10458000E6490742E641E649E649E641E641C641D9
:10459000C541A541A541C541C541A54184398439DD
:1045A000843984398439A541C541C541E541C541B6
:1045B000C541E641E649E649E649E649064A064A72
:1045C000064A064A064A064A064A274A274A274A08
:1045D000274A274A474A474A4752474A484A484A89
:1045E000484A6852685268526852895289528952C0
:1045F000A952CA5AEB5AD39CB7B5B7B5B7ADD8B51F
:10460000D8B5D8B5B8ADD8B5B8B5D8B5F8B5F8B54A
:10461000D8B5F8B5F8B5D8B577A577A5B8ADB8AD24
:10462000B8ADF9B55AC68D7B6C734C734C734C7333
:104630002B6B0B6BEA6AEA62CA62C962CA6ACA6217
:104640008962EA6ACD8BCC930983C872A86A266214
:104650004762475A475A275A275A275A475A675A8A
:10466000675A475A2752475A485A485A685A685A06
:10467000685A6852685A685A6852485247524852B3
:104680004852074AA54184398439843984396439C8
:1046900084398439843964398441A541A541A541CF
:1046A000E649074A27524852274A274A274AE641FD
:1046B000A541A5418439C541E649064A064A064A4C
:1046C000064A074A074A074A064A064AE649E649A9
:1046D000E649E641E641E649E649E641E641C541AB
:1046E000C541C541E641E641E641E641E641E641D4
:1046F000064A064A064A064A064A064A064A064A3A
:10470000074A074A074A274A474A474A474A4752F9
:10471000475248524852685268526852685268522A
:104720006852685268528852685289528952AA5A0D
:10473000AA52EB5A108476AD96ADB7B5B7ADB7AD0A
:10474000D8B5D8B5D8B5B8ADB8B5D8B5D8B5F8B529
:10475000F8B5F8B5F8B5D8B5B7AD97AD97ADB8AD74
:10476000B7ADD8B53ABE8D7B6C736C734C734C731C
:104770002B6B0B6B0A6BEA6AEA62CA62CA62C96295
:104780008962A9620A732E9CCC93097BC872A872B5
:104790004762C972265A6762475A06520552065244
:1047A0002652265A475A475A475A475A485A485A49
:1047B000485248526852685A6852485A48524852B9
:1047C0004752074AC541E649E641E649E549E54918
:1047D000E549E649E649E549E649E649E649E64963
:1047E000E649074A274A4852484A4852274AE6417A
:1047F000A541A5418439C541E649074A074A074A08
:10480000074A274A274A074A074A064A064A064AE3
:10481000064AE649E649064A064AE649E649E649BD
:10482000E649E649064A064A064A064A064A064A4A
:10483000074A074A274A074A274A274A274A274A50
:10484000274A274A274A274A274A274A474A474AA0
:10485000474A47524752474A474A484A484A685295
:1048600068526852685268526852A95A89528952ED
:10487000CA5A2C6334A596ADB7ADB7ADB7ADB8ADD8
:10488000B8ADD8B5B8ADB8ADB8ADD8B5D8B5D8B560
:10489000F8B5F8B5D8B5D8B5B7AD77A597ADB7AD7C
:1048A000B7ADD8AD19BE8D7B8D736C736C734C73C3
:1048B0004C6B2B6B0B6BEB6AEA62EA62CA62CA62F0
:1048C000CA62CA62A8624A7B6FACED934A83097BD5
:1048D000097B6762A872676A67624762265A265A2E
:1048E000465A475A675A475A475A275A475A475AC1
:1048F00047524752685A475247524752685A485A95
:10490000475227520752064A064A06522652265254
:104910002652065206520652065207520652074ABD
:104920000752485268524852485248522752E6416C
:10493000A539A5418439C541E649064A074A074ACF
:10494000074A074A074A074A074A074A074A074ADF
:10495000074A074A074A074A074A074A074A064AD0
:10496000064A074A074A064A064A064A064A074AC4
:10497000074A074A074A074A074A074A074A074AAF
:10498000074A074A074A074A074A274A274A274A3F
:10499000274A274A474A474A474A474A474A484ACE
:1049A0006852685268528952895289528952CA5A49
:1049B000EB5A728C96AD97ADB7B5B7ADB8ADB8AD93
:1049C000B8ADB8ADB7ADB8ADB8ADD8ADD8B5D8B550
:1049D000D8B5D8B5D8B5D8AD97AD76A576A597ADED
:1049E000B7ADB7ADF8B58D7B8D736D736C734C73CC
:1049F0004C6B2B6B0B6B0B6BEA62EA62CA62CA628E
:104A0000EA6AEA6AA962A86A2A7B6FA4ED936B8BB3
:104A1000E97AE97AA872676A676A676A676A6662AA
:104A2000465A465A465A475A475A275A475A475AA1
:104A3000475A475A675A475A27522752475A475A9E
:104A40004752275247522752265226522652265262
:104A5000065206520652E649E549C549A541854137
:104A6000A541064A47526852685268524852E64188
:104A7000A541A541A541E649064A27522752274AA2
:104A8000484A484A274A274A274A274A074A074A9C
:104A9000074A074A074A074A074A074A064AE649B1
:104AA000E641E641E641E641E641E641E641E641CE
:104AB000E649E649E649E649064A064A064A064AFA
:104AC000064A064A064A074A274A274A274A274AE1
:104AD000274A474A474A484A484A685268526852F1
:104AE0006852685268528952A95A8952AA52CA5ABF
:104AF000CF7B96AD55A597ADB7B5B8ADB8ADB8AD50
:104B0000B8ADB7AD97ADB8ADB8ADD8B5D8B5D8B527
:104B1000D8B5D8B5D8B5D8AD97AD76A556A596A5D4
:104B200097A5B7ADD8ADAE7B8D738D7B6D736C7370
:104B30004C732C732C6B2B6B0B6BEB6AEA62CA62A7
:104B4000CA62EA62C962A962C96AC96A2E9CCD9327
:104B50004B8B2A83E97AA872A7728772676A4662CA
:104B600046624762676267624762475A475A475AD6
:104B7000475A475A675A675A475A275A475A475A0D
:104B8000475A275A475A0652E551E549C549A449AB
:104B9000A44184416341844164396439643964398E
:104BA000A541074A68528952695289524852064AB9
:104BB000C541A541A541E649074A27522752274A40
:104BC000274A284A274A074A074A074A074A074AFC
:104BD000074A074A074A074A064A064AE649E6419B
:104BE000E641E641E641E641E641E641E641E6418D
:104BF000E641E641E641074A074A074A074A074AAB
:104C0000074A074A074A274A274A274A484A485232
:104C10004852484A484A6852685268526852885214
:104C200088528952895289528952CA5ACA5A0C6387
:104C300014A555A597AD97AD97ADB8ADB8ADB8ADC6
:104C400097ADB7ADB7ADD8B5D8B5D8B5D8B5D8B597
:104C5000D8B5D8ADD8ADB8ADB7AD76A5569D76A5CB
:104C600096A597ADB7ADAE7BAE7B8E7B8D7B6D731E
:104C70006C734C734C732B6B0B6B0B6B0B6BEA6293
:104C8000CA62CA62EA62A962EA6A8862C96A4FA411
:104C9000ED9B4A8B0983A87A87726772676A676A95
:104CA000876A886A886A8862676267626762676221
:104CB000465A475A675A675A675A475A675A676245
:104CC0006762675A675A8762675A465A265206527F
:104CD000E551C549C5496441644184418441A541C8
:104CE000C6412752895A6952685268524852E64969
:104CF000C541A541A541A541E649074A074A074ADA
:104D0000074A07420742074A074A074A074A064A2C
:104D1000064A064A064A064A064A064A064A064A13
:104D2000E64906420642074A074A074A074A074A2F
:104D3000074A074A074A274A274A274A274A274A4B
:104D4000274A274A274A274A274A484A4852485268
:104D50004852685268528852885288528852895202
:104D60008952895289528952AA52AA52CB5A728CBC
:104D700076AD56A5B7B597AD97AD97ADB8AD97AD34
:104D800097ADB7ADB8ADD8B5D8B5D8B5D8B5D8B555
:104D9000D8ADB8ADB7ADB7ADB7AD76A5569D76A5D4
:104DA00096A597A5B7ADAE7BAE7BAE7B8D736D73CD
:104DB0006D734C734C730B6B2B6B0B6B0B6B0B6B27
:104DC000EB6AEA62EA62CA62A962CA6AC96A0A7BD3
:104DD0000EA4CC9B4A93A87A677A6772676A876A3F
:104DE000886A886A886A886A876A886A876A876A36
:104DF00067626762876287628762886288628862A8
:104E000088626762676267624762465A265A265A14
:104E100005520552E551E549C549A541A5418539E8
:104E20008541C64127526852485248524852E64985
:104E3000C641A541A541C649064A2752274A274AE5
:104E4000274A284A274A074A074A074A074A274A59
:104E5000274A274A274A074A074A074A074A274A4A
:104E6000074A074A074A274A274A274A274A274A1A
:104E7000274A274A274A274A274A274A274A274AAA
:104E8000474A474A474A274A484A484A4852484AAE
:104E9000685268526852895289528952895289529D
:104EA0008952895289528952CA5AAA5A8E7396B522
:104EB00035A5B7B576AD97AD97AD97AD97ADB7AD15
:104EC00097AD97ADB8B5D8B5D8B5D8B5D8B5D8B52C
:104ED000D8ADB7ADB7ADB7ADB7AD76A5559D56A5B5
:104EE00076A596A5B7ADAE7BAE7BAE7B8D736D73AD
:104EF0006D734C734C732C6B4C730B6BEA620B6BC6
:104F00000B6BCA62AA62CA62CA62895A8962A96ABA
:104F10002A832EA4EDA32A8BE982877A677287728F
:104F2000A872A872A872A872A86AA86AA86AA86AD1
:104F3000886A886A886A886AC86AE972A86A876221
:104F40006762465A265A065A0552E551E5510552FE
:104F5000E551E551C551E551C549A549A5418541F1
:104F6000A541064A685A695A685268524852074A27
:104F7000E641C641C541E641074A27522852274A21
:104F8000284A284A274A274A274A274A274A274A97
:104F9000274A484A484A274A274A274A274A274A47
:104FA000274A274A274A274A274A274A274A274A79
:104FB000274A274A274A274A274A484A474A4852FF
:104FC00048524852485248524852685268526852B1
:104FD00088528852895289528952895289528952FB
:104FE0008952895289528952AA522C63F39C35A561
:104FF00076AD96AD76AD97AD97AD97AD97AD97ADD4
:1050000097ADB7ADB8B5B8B5B8ADD8B5D8B5D8AD1A
:10501000B8ADB7ADB7ADB7ADB7AD96A5559D569D7B
:1050200076A596A5B7ADAE7B8E736D738E738E73BA
:105030006D734C6B4C732C6B4C6B2C6B2B6B0B6B29
:10504000EA62EA62EA62CA5AEA62A95A895AA9621B
:10505000A96A2B834FACAC9B6B93098BC87AC77A38
:10506000C77AE882E882E97ACA72C972C972C972DB
:10507000C972C972A872E97AE972C872A872A86A7C
:10508000876A67622662265A265A255A055A0552A9
:10509000E551E551E551C551C549C549C549A44941
:1050A000A5490652485A685A695A695A4852064AE6
:1050B000C641C641A541E649274A48524852484A96
:1050C000484A484A484A4852484A484A484A484A48
:1050D000484A484A484A274A274A274A474A47529D
:1050E000474A274A274A4752475247524752475250
:1050F0004752475247524852485248524852484AEB
:10510000484A484A484A484A484A484A484A484A0F
:105110006852685268524852895A68526852895295
:105120006952A9526952CB5A8A52518455A576AD1B
:1051300096AD56A5B7B597AD97AD97AD97AD97AD71
:10514000B7ADB7ADB7ADB8B5B8B5B8B5B8B5B8AD1A
:10515000B7ADB7ADB7AD97ADB7AD97AD359D559D73
:1051600076A556A597ADB394EF7B6D6B6D6B6D6BAC
:105170006D736D734D6B8D734C6B0C6B2B6B2B6B5D
:105180000B63CA62CA62CA5AEA62A95AA95A8962F8
:105190006862A96A4B83ED9BED9BAB9B6A93298B5D
:1051A000288BE782A77AE97AEA7AEA7A2A832B833C
:1051B0002B832A830A830A83E97AC972886A676A19
:1051C000666A46622662065A065A265A255A055AC1
:1051D000055A05520552E551E551C551C549C54924
:1051E000A549C5490652685A895AA962885A064A89
:1051F000C541C641E641074A484A68526952685269
:1052000069526952695268526852685268524852EB
:1052100048524852485248524852485248524852BE
:1052200048524752474A474A474A47524752274AF5
:10523000274A274A274A074A274A274A274A274A06
:10524000284A284A284A484A684A68526852685296
:10525000685268526852895A68528852A95A8952CB
:105260006852A952AA528A52AF73F49C56AD76ADD9
:1052700076AD97AD97AD97AD97AD97AD97AD97AD2F
:10528000B7ADB7ADB7ADB8ADB8B5B8B5B8ADB7ADEA
:10529000B7ADB7ADB7AD97ADB7AD97AD359D559D32
:1052A00076A556A597AD59CE96B5718C8E736D6B5C
:1052B0004D6B4D6BCE7B2C6B4C6B4C6B4C6B2B6BE3
:1052C0000B630B630B6BCA62EA62AA62A962A962F2
:1052D00068626862886A2A83AC93ED9BCC9B8B934F
:1052E0006A93498B298B09832A834A8B8B938C93EE
:1052F0006B8B4B832B832A83E97AA872876A676258
:10530000466226622662065A265A265A265A265A85
:10531000265A255A055A065A0552E551E551E549DE
:10532000C549C549C549C6490752685A685A064A17
:10533000C541C541C641274A475268526852685222
:1053400068526852685268526852485248524852ED
:10535000485248524852274A274A274A274A274A4A
:10536000274A274A274A274A274A274A274A274AB5
:10537000274A274A274A28522852484A484A484A30
:10538000484A484A484A6852685248524852685205
:10539000685268526852A95A6852A95AA95A895241
:1053A00089528952A9520C5BD39455A576AD76AD3E
:1053B00076A597AD76A597AD97AD97AD97AD97AD1F
:1053C000B7ADB7ADB7ADB7ADB8ADB8ADB7ADB7ADBB
:1053D000B7ADB7ADB7AD97AD97AD97A5559D559DF9
:1053E00076A5559D96A57ACE59C639C676AD108458
:1053F0004D6B4D6B2C634D6B6D734D730B63EB629B
:105400002B6B2B6BEB62CB62EB62AA628962AA62A6
:105410008962686288622762C9728C93ED9BEC9BFB
:10542000AC9B8B936A934A934A936A938B93AB9307
:105430006B8B2A830A83E97AC972886A676A476232
:105440004662266226622662265A465A465A465ABC
:10545000465A265A265A265A065A065206520552C5
:10546000E551C549C549A541A541C549E649E549B3
:10547000C541C541A541064A274A485248524852AB
:10548000685248524852485248524852484A484A3C
:10549000284A284A284A484A274A274A484A484A1E
:1054A000484A484A274A274A274A274A474A27520A
:1054B0004752475247522852485248524852484A47
:1054C000484A685268526852685268526852685234
:1054D000685268526852895A885AC95A8952895200
:1054E000CA5A8952AA52108455A555A576AD96ADD3
:1054F00056A597AD76AD97AD97AD77A597A597AD26
:10550000B7ADB7ADB7ADB7ADB7ADB7ADB7ADB7AD7B
:1055100097AD97AD97AD97AD97AD97A5559D359D37
:10552000559D559D76A55ACE9ACE39C6F8BDF8BD83
:1055300055ADF07B2C630C632C634C6B4C6B2C6B6C
:105540002C6B0B63CB62EB62EB6ACA62895A89628D
:105550008962896268628862475A2762C9728C933D
:105560000DA4EDA3CC9BAB9B8A9B8A9B8A938B93C8
:105570006A8B4A8B2A83C87AA872676A676A46620E
:10558000266225622662466246624662466247623B
:105590004762465A465A265A265A265A265A065AC2
:1055A00006520552E5510652C549A549A541A441F7
:1055B000C541C549A541E649264A47526852685245
:1055C000685248524852685268526852485248528B
:1055D00048524852485248524852485248526852DB
:1055E000685268526852484A685268526852685213
:1055F000685248524852485248526852685268525B
:10560000685268526852685268526852685A685ABA
:10561000885A895A895A895AA95ACA5A8952AA5AF9
:10562000AA52AA526D6B149D35A555A576AD76ADDF
:1056300076A597AD97AD97AD97A577A597A597ADAB
:10564000B7ADB7ADB7ADB7ADB7ADB7ADB7AD97AD5A
:1056500097AD97AD97ADB7AD96A596A5559D359DE0
:10566000559D559D76A57ACE7AC67ACE59C618BE76
:1056700018BED7B514A5AF732D6BEB620C634C6BE2
:105680000B6B0B630B6BEB62CB62CB62AA628A5A29
:105690008962895A685A685A475A475A4762476224
:1056A000886A6B8B2EA40CA40CACECA3CB9B8B9BBD
:1056B0008A934A8B298BC87AA772676A466A2662E0
:1056C000056225622662466246624662476247621A
:1056D000676267626762465A66624762465A265A3E
:1056E000265A265A065A065A05520552E551C54908
:1056F000C549C549C541E5492652675A885A885A5D
:10570000885A885A685289528952895289528952D4
:105710008952895289526952695269526952885232
:1057200088528852685288528852885288526852E9
:10573000685268526852685A685A88528852885229
:10574000885288528852685268526852685A885AF9
:10575000885A895A895A895AA95AA95A8952895202
:10576000694A0B63919435A535A596AD76AD56A5DE
:1057700076AD97AD97AD97A597A577A597AD97AD62
:10578000B7ADB7AD97ADB7ADB7ADB7ADB7AD97AD39
:1057900097AD97AD97ADB7AD76A596A555A5149DD8
:1057A000359D559D76A53AC65AC639BE19BE39C62D
:1057B00039C6F8BDF8BDD7BDB2946D6BEB620B6313
:1057C0000B63EB62EB62CB62CB62CB62CA62AA6212
:1057D000AA5AA95A895AA95A685A485A485A475A35
:1057E000475A4762676A6A8BCC9B2DAC2DACECA301
:1057F000CB9B6A93298BE882A77A6672466A266AEF
:105800000662266226624662466247626762676295
:10581000676267626762666267626662465A265AB4
:10582000265A265A265AE5510552265A265A055214
:10583000E551E551E549E549065246524752675A56
:10584000885A885A895AA95AA95A895A895A895A02
:10585000895A895A895AA95AA95A895A895A895AF0
:10586000895A895A895A895289528952685268528A
:105870006852685268526852685268526852685258
:105880006852685268526852685268526852685248
:10589000685A895A895A895A89528952A952895211
:1058A000CA5AEF7B14A535A535A596AD76AD56A59C
:1058B00076AD97A597A577A577A597A597AD97AD51
:1058C00097AD97AD97ADB7ADB7ADB7ADB7AD97AD38
:1058D00097AD96A596A597AD76A597A576A51595AE
:1058E000159D359D359D7AC639BE39BE39BE19BE66
:1058F00018BE18BEF8BDF7BDF7BD75AD518C2D6B48
:10590000EB5AEB5AEB62EB6ACB62CB62CB62AA5AE0
:10591000AA5AA95A89526852685A895A685A485AE2
:105920002752275A4762065A097BEC9B2DAC2DACB7
:105930000CACABA3699BC78AA682667A4672466A9C
:10594000266A26624662466247624762676267620B
:10595000676267626762666267624662465A465A73
:10596000465A465A265A265A055A05520552E551B4
:10597000E55105520552E549E549055206520652E0
:105980004752885AA962A95AA95AA95AA95AA95A82
:10599000A95A895A895A895A885268526852685253
:1059A0006852685268526852685268526852685227
:1059B0006852685268526852685268526852685217
:1059C0006852685268526852685268526852695AFE
:1059D000895A895A8952A95AAA5AA952AA52AA522C
:1059E0006D6BF39C34A555A555A556A576A576A552
:1059F00076A576A597A576A577A597AD97AD97AD32
:105A000097AD97AD97ADB7ADB7ADB7ADB7AD97ADF6
:105A100097AD97A596A597A576A597A576A5149574
:105A20001495159515957AC65ABE39BE19BE19BE7C
:105A300019BE18BE18BE18BED7B5D7B5B6B5F39CFB
:105A4000CF7B0C63AB5AAA5ACB62EB62CA62AA5AEA
:105A5000AA5ACA5A8952A95AA95A895A6852485206
:105A6000485A485A485A275A475AE97A0DA48FBCCF
:105A70002DB4CBABEBAB089BC78A8682867A467285
:105A8000466A476A26622662266246624662466225
:105A900046624662466246624662465A465A465ADE
:105AA000465A265A255A255A055A055A055205526C
:105AB0000552055205520552055205520552E5514F
:105AC00006520652275248526852685A885A685AF3
:105AD000885A885A885A685A6852685A885A685A3E
