:1000000000100020390500003528000035280000C8
:10001000352800003528000035280000352800006C
:10002000352800003528000035280000352800005C
:10003000352800003528000035280000352800004C
:10004000352800003528000035280000352800003C
:10005000352800003528000035280000352800002C
:10006000352800003528000035280000352800001C
:10007000352800003528000035280000352800000C
:1000800035280000352800003528000035280000FC
:1000900035280000352800003528000035280000EC
:1000A00035280000352800003528000035280000DC
:1000B0003528000035280000D12300003528000035
:1000C00035280000352800003528000035280000BC
:1000D00035280000352800003528000035280000AC
:1000E000E902000001030000352800003528000067
:1000F000352800003528000035280000352800008C
:1001000035280000352800003528000000000000D8
:10011000013800D0FCE770470348044B834202D00B
:10012000034B03B11847704724100020241000200F
:10013000000000000548064B1B1AD90F01EBA30174
:10014000491002D0034B03B1184770472410002018
:10015000241000200000000010B5064C237843B99D
:10016000FFF7DAFF044B13B10448AFF3008001231B
:10017000237010BD6010002000000000042C00005F
:1001800008B5054B1BB105490548AFF30080BDE834
:100190000840FFF7CFBF00BF000000002410002080
:1001A000042C0000A3F5803A704700BF174B002BCA
:1001B00008BF134B9D46FFF7F5FF00218B460F4606
:1001C0001348144A121A02F0D2FB0E4B002B00D037
:1001D00098470D4B002B00D09847002000210400C9
:1001E0000D000D48002802D00C48AFF3008002F04B
:1001F000C7FA2000290002F0E9FA02F0AFFA00BFC6
:1002000000000800000000000000000000100020B6
:1002100024100020681000200000000000000000F2
:1002200010B5064C14F8010B28B9BDE810404FF486
:100230007A7001F05FBF00F04DF8F3E7C0290000CD
:1002400030B589B01E4D1F48012100F007FB0FCDCE
:1002500001AC0FC495E8070084E807001A4C01A917
:100260002046002501F0E2FCA567636F43F003031D
:100270006367164B4FF48072C3F884215A604FF4C1
:100280000072C3F884215A601148012100F0E6FA97
:10029000284601230422062101F04AFB2B4628466A
:1002A0000122072101F044FB0123042205212846F5
:1002B00001F03EFBE36C43F00403E36409B030BD9E
:1002C000C8290000006204000008014000E100E0CD
:1002D00000350A00034BDA6C42F00202DA6458631C
:1002E000704700BF00080140034BD869034B1B68EF
:1002F0000BB1C0B218477047000801404010002001
:10030000054B02229A64DA6C22F00202DA64034B93
:100310001B6803B118477047000801403C100020DB
:1003200038B500F089FE0E480E4C012100F096FA17
:1003300001221146002000F0EFFD022501221146A6
:10034000C4F88050002000F0E7FD0122C4F884507A
:100350001146002000F0E0FDC4F88850002038BDB0
:1003600030253E0000400E4008B5214B01225A6462
:1003700001F076FB1F4B90B94AF6E852C3F8902182
:10038000D3F8982142F00402C3F89821C3F89001F1
:10039000D3F8642142F40052C3F8642101E001283B
:1003A000F6D0154A136A23F4441343F488131362F6
:1003B000A2F58042136843F48073136002F5405243
:1003C000D2F8A43143F4F843C2F8A43101F042FD5D
:1003D00000F022F801F0DAFC01F028FD01F0ECFC5D
:1003E000FFF79EFF02F074FABDE8084000F006B87F
:1003F00000000E4000300E4000400E4008B5054899
:10040000012100F02BFA02F0EBF9BDE8084000F002
:1004100015B800BF00350A000148012100F01EBADE
:1004200000350A00014B1022DA60704700A0004638
:10043000014B1022DA60704700A0004470B588B00C
:10044000374D384E0FCD01AC0FC495E8070084E856
:100450000700354C3548012100F000FA30460121F3
:1004600000F0FCF90125324B039301A920468DF8D9
:10047000125001F033FC2B4604220621022001F029
:1004800057FA2A4600230721022001F051FA2B4691
:1004900004220821022001F04BFA042211462B46C7
:1004A000002001F045FA234BA3670B2363674FF449
:1004B000487001F0B1FF1420FFF7BAFF01F0ACFF64
:1004C0002320FFF7AFFF01F0A7FFB9212046FFF778
:1004D000AFFF02F0F3F9FFF7A5FF00231A4606214C
:1004E000022001F025FA00231A460721022001F01C
:1004F0001FFA2B4600220821022001F019FA0022DF
:1005000010462B46042101F013FA204601F048FB67
:100510000021A1673046616700F0A0F908B070BD06
:10052000E4290000005204000004014000350A00E4
:1005300000127A000B0B000B08B500F083F8124B89
:1005400012498B4212D3124B124900208B4218D30E
:10055000FFF72CFE186850F82240586840F82240F7
:10056000013298688242F5D30C33EAE70022F8E7BB
:100570001C6844F8220001325C68A242F8D30833B8
:10058000E4E70022F8E700BF0C2C0000182C000064
:10059000182C0000182C00000048704700F0490299
:1005A000104AD2F8943003F00703023B032B13D810
:1005B000DFE803F00C14020E0B4B1B68D2F80001AD
:1005C000C0F304200130B3FBF0F07047074BF4E7B1
:1005D000074B1B685B08F1E7054BEEE74FF4004360
:1005E000ECE700BF00400E40081000200C10002077
:1005F0000010002008B5FFF7D3FF054BD3F80831F2
:10060000C3F308230133B0FBF3F0024B186008BDBD
:1006100000400E4004100020014B1868704700BFD6
:100620000C100020054B1860054BD3F8943003F0F4
:100630000703022B01D1FFF7DDBF70470C1000202C
:1006400000400E40044B054A9A60D3F8882042F4DB
:100650007002C3F88820704700ED00E00000000041
:10066000014B1868704700BF0810002008B52948E2
:10067000012100F0F3F8012304220221052001F0FA
:1006800057F9002001F03EF9234B0122C3F810284E
:100690001146042000F040FC204800F06BFA204B8B
:1006A000D3F8F02042F00102C3F8F020D3F8FC2088
:1006B00042F08072C3F8FC20A3F55D43194A1A602A
:1006C00000F5D520184B00F2FC40B0FBF3F0174BBF
:1006D000013802221861C3F8F0204FF48072C3F889
:1006E00004234FF06043124AC3F8B02F114AC3F8F5
:1006F000802ED3F8002E42F48072C3F8002EFF2221
:1007000083F82020D3F8002E22F48072C3F8002E44
:10071000002008BD00350A000080144206000E00CB
:1007200000ED00E0FF030040F8590D00000004E078
:1007300055CEACC5090001000C4B984205D90C4BB5
:10074000984210D80122012301E0002213460949F2
:100750000B640949D1F8003123F0807343EA026346
:10076000C1F8003170470222EDE700BF0048E80100
:100770000090D0030000C84300400E4038B5114B34
:100780005B68114B00221C46C9B21D798D4202D113
:100790001D6885420BD20132052A03F10803F4D10A
:1007A00041F61401094802F04CF8032102E004EB81
:1007B000C2046179034A536823F0407343EA01633A
:1007C000536038BD00000E40482A0000002A000097
:1007D00038B5074C41F67133256C2364FFF7DCFE16
:1007E000ADB20021FFF7CAFF0DB10023236438BD6D
:1007F00000000E40044BDB6B5B0604D4034AD2F8C6
:10080000C830002BFBD1704700300E400000C643BB
:1008100008B5FFF7EFFF024B5868C0F3014008BD71
:1008200000300E40044BD3F84421D20703D4D3F850
:1008300040211042FBD1704700400E4038B5064CB5
:10084000256C41F671332364ADB2FFF797FF0DB10C
:100850000023236438BD00BF00000E4038B5C0F34C
:100860000323013B092B06D8DFE803F00C2E050516
:10087000322924051C18BDE83840174841F6B0510C
:1008800001F0DFBF154DC0F3043405F1424505F515
:10089000801504EBC5008000016038BD104DC0F329
:1008A0000434F2E70F4DC0F304344FF48030FFF707
:1008B000B9FFEAE7C0F304340B4D1020F7E7C0F3AB
:1008C00004340A4D0120F2E7094DC0F30434DCE79B
:1008D000084DC0F30434D8E7002A000000400E4061
:1008E00050410E40F0400E40E8400E40E0400E40C7
:1008F000C0400E40B0400E4008B5C0F30313013BAA
:10090000092B60D8DFE803F0050B0F195F5F1F2389
:100910003C532E4BD3F80001C0F3042008BD2B4BF1
:10092000D3F81401F8E7294BD3F80031C3F300637F
:100930000133012098400138F0E7244BD3F80C0133
:10094000C0F30820EAE7214BD3F80801F8E7204B71
:10095000984209D01F4B98420CD041F654711E4862
:1009600001F06FFF0020D9E7184BD3F8203103F0D6
:100970000F03DEE7154BD3F82031C3F30113D8E79B
:10098000164B984208D003F5B01303F580539842F4
:1009900006D041F67871E2E70C4BD3F82831ECE74A
:1009A0000A4BD3F82831C3F301230433C1E70C4BBE
:1009B000984205D1054BD3F8300100F00300ADE7B4
:1009C00041F68771CBE741F6AC71C8E700400E40B5
:1009D0008006160080162E00002A000090171A00CC
:1009E000A009140008B500F00F000138072850D8FE
:1009F000DFE800F00415244F363A4F422D4BD3F870
:100A0000943003F00703023B052B06D8DFE803F020
:100A10004E26240305480B2008BD0520FCE7254B86
:100A2000D3F8800000F007000228F5D004283BD05E
:100A3000012808BF032018BF0120EDE71D4BD3F8A4
:100A4000843003F00703013B032B03D8DFE803F0F6
:100A500006042A2C0120DFE70220DDE70320DBE784
:100A6000144BD3F88800DDE7124B1B6F13F0010F16
:100A70000CBF07200920CFE70E4BD3F85C3103F001
:100A80003003202B12D0302B12D0102B08BF0720A0
:100A9000D1E7094842F2013101F0D3FE0020BBE763
:100AA0000C20B9E70620B7E70A20B5E70420B3E732
:100AB0000820B1E700400E40002A000010B5284B86
:100AC000984204460DD1FFF78DFF264BD3F88440A2
:100AD00004F00704042C3BD8DFE804F03F2428305E
:100AE0002C00214B984205D1FFF77CFF1D4BD3F81A
:100AF0008840EDE71D4B984205D1FFF773FF194B76
:100B0000D3F88040E4E741F61311194801F099FE4B
:100B10002046FFF767FF41F642110446144801F0F2
:100B200090FED7E7BDE8104001F085BEBDE810405B
:100B3000FFF796BDBDE8104001F080BEFFF730FD25
:100B4000084BD3F80031C3F300630133D84010BD24
:100B5000074841F6941101F074FE0020F7E700BF4A
:100B60000300200000400E400500240002001E008B
:100B7000002A000038B500F47813B3F5B01F05461D
:100B80007DD02ED8B3F5402F67D011D8B3F5802F84
:100B900052D006D843B1B3F5003F58D04FF4F751C7
:100BA0001AE0B3F5202FF9D1BDE83840FFF7F8BCC3
:100BB000B3F5801F00F09880B3F5A01F55D0B3F5B2
:100BC000602FEBD15748FFF70DFF072800F08C800E
:100BD0000928E9D041F2D661534801F032FE0020E5
:100BE00034E0B3F5381F53D013D8B3F5001F58D0F5
:100BF0000AD8B3F5D01F56D0B3F5F01FCED14B486D
:100C0000BDE83840FFF75ABFB3F5101FC6D14848BA
:100C1000F6E7B3F5481F4DD0B3F5781F78D0B3F59C
:100C2000401FBBD14348FFF749FF434BD3F828315E
:100C3000C3F30123043320E0FFF7B2FC3E4BD3F8AB
:100C40000C31C3F308230133B0FBF3F038BDFFF7D9
:100C5000A7FC394BD3F80831F3E7FFF7A1FC364B7B
:100C6000D3F81431C3F30423EDE73148FFF726FF2F
:100C7000314BD3F8303103F00303D840E6E72B487B
:100C8000FFF71CFF2C4BD3F8203103F00F03F4E7E0
:100C90002648FFF713FF284BD3F82031C3F3011385
:100CA000EBE72448ACE72348FFF708FF224BD3F8D3
:100CB0002831F3E72148FFF795FE0138072824D8AB
:100CC00001A353F820F000BFDF0B00000B0D000064
:100CD0000B0D0000EF0C00000B0D00000B0D0000D1
:100CE000E90C0000F70C0000154B1868AEE7BDE8F2
:100CF0003840FFF791BCFFF753FC0F4BD3F800319E
:100D0000C3F3042303FB0000A0E741F20D7163E786
:100D1000FFF746FC0446284601F0ACFDB4FBF0F0BA
:100D200094E700BF06000E00002A000002001E002B
:100D3000050024000300200000400E40B8003200EF
:100D400010100020014B1880704700BF16100020C3
:100D5000014B1880704700BF1410002038B50C46B6
:100D600004287BD8DFE800F06403451B3000B1F5B0
:100D7000007F04D33D4842F6B44101F062FD3C4A95
:100D8000C4F30804D2F86838002BFBD1394A136A3F
:100D900023F4FF7323F001032343136238BD7F293B
:100DA00004D9324842F6C14101F04BFD304A04F00B
:100DB0007F04D2F86038002BFBD12E4A136923F050
:100DC0007F031C431461E9E77F2904D9274842F6D1
:100DD000DC4101F036FD264A04F07F04D2F8643885
:100DE000002BFBD1234A936923F07F031C439461BA
:100DF000D4E7204DD5F890305B0704D51B4842F668
:100E0000EC4101F01EFD6B6A23F0300343F0100348
:100E10006B62296B184BC4F3C31203320F2A03EA27
:100E2000010328BF0F22234343EA02732B63B5E774
:100E30007F2904D90D4842F6075101F002FD4F2CDD
:100E40000B4A28BF4F24D2F87438002BFBD1094A33
:100E5000936B23F07F03234393639FE7BDE8384000
:100E6000024842F6155101F0ECBC00BF002A000018
:100E70000020C84300400E4000F8FF0F38B502289C
:100E80000C4604D0134842F62D5101F0DAFC124D05
:100E90006B6A13F0300F1AD0202C15D0302C16D0DE
:100EA000ACB10C4842F6485101F0CBFC0B4BD5F8E5
:100EB000902033EA0202FAD15B024ABFD5F8A000C3
:100EC0000120C0F3802038BD4FF40003EFE74FF45A
:100ED0004003ECE7002A000000400E40FF33E1072A
:100EE00008B502280CD129B1094B4FF48060C3F832
:100EF000A80059664AB1BDE808400220FFF7BEBF0E
:100F0000044842F67E5101F09CFC012008BD00BF60
:100F100000400E40002A00002DE9F0470428044656
:100F20000F46914621D83C4B3C4A13F800A03C4B5D
:100F300013F800803B4B33F810603B4B33F8103014
:100F4000D1B91366012303FA08F3D2F890101942BD
:100F5000FBD1B9F1000F57D00123304903FA0AF34E
:100F6000D1F890201A42FBD14EE0BDE8F0472F485F
:100F700042F6F93101F065BC022847D1536A13F0FB
:100F8000300F43D12A4BDB6B5A0504D4274842F675
:100F9000084101F056FC214A536ADB0705D5536A24
:100FA00023F0300343F010035362224D1B4BA8443F
:100FB0001E664FEA8808D8F80030002BFBD0B9F144
:100FC000000F21D05544AD002B68002BFCD0022C23
:100FD0001AD1CFB1114F796A11F0010118D0012255
:100FE00020212046FFF77CFFD7F89C4001220021FA
:100FF0000220FFF791FFC4F30A010220FFF7AEFEC3
:101000003E662B68002BFCD0BDE8F0870027CCE7BC
:101010002046FFF733FFE7E7432A000000400E4079
:101020003E2A0000342A00002A2A0000002A00007C
:1010300000300E408004F21038B5FFF7EDFA0021C1
:10104000044600F061F91248FFF776FB01221146D1
:101050000220FFF761FFFFF7BBFB0CB1FFF7CAFBF4
:101060000C4B02225A67FFF79BFAFFF765FBFFF76D
:10107000C1FA0546FFF7CCFB01462846FFF7DEFB29
:101080002CB920460121BDE8384000F03DB938BDFB
:101090000148E80100400E4010B504461120FFF75A
:1010A000A1FC042804D1214842F6732101F0C9FBB8
:1010B000012200210220FFF72FFF237C012B04D106
:1010C0001A4842F6B02101F0BCFB194A217C536A50
:1010D00023F00103022908BF43F001035362154BBB
:1010E0002178C3F8A014637AA18843EAC123D362AC
:1010F000136BA07A217A03F07F630343E08843EA0D
:10110000C02343EAC11303310F2928BF0F2143EA4B
:1011100001731363A37B617B1B0143EA0133E17B12
:101120000B43217B43EA0143536310BD002A0000B7
:1011300000400E400000C84370B505461120FFF77F
:1011400051FC022804D10F4842F62B3101F079FB03
:101150000D4E0E4CB26B6B7814402A78144344EA5F
:10116000C324AB7844EA0364EB7844EA0324B36B0A
:10117000A34205D0002101220846FFF7CDFEB4634B
:1011800070BD00BF002A000000400E4080E4FFF860
:10119000034BD86B80F04000C0F38010704700BF55
:1011A00000300E4010B542EA0322B2F5007F194C20
:1011B00029D00AD8B2F5807F22D040F201139A429A
:1011C00015D062B9D4F81C320BE0B2F5407F1DD0C7
:1011D00040F201339A4210D0D4F8283201E0D4F81A
:1011E0002432C3F30722DBB203600A6010BDD4F8D7
:1011F00024321A0EC3F30743F6E7D4F82832F8E78F
:10120000D4F81C32F5E7D4F82032EAE7D4F82032DB
:10121000EFE700BF0081E00F08B5FFF7B9FF20B18D
:10122000024AD2F8C830002BFBD108BD0000C643EB
:101230000E4A0379916921F03F010B43017843EA9B
:101240008103417843EA4103817843EAC103C178CD
:10125000012908BF43F0010393611368417923F426
:10126000403343EA01431360704700BF00300E4033
:101270002DE9F04104460F46FFF78AFFC8B3DFF8B7
:101280008480FFF7C9FFD8F80430C3F301439C42C0
:101290002FD0194BD3F80061FFF782F9022C0546D5
:1012A00017D1164BC6F3042606FB00069E4204D94E
:1012B000134840F2AD7101F0C4FA02212846FFF74D
:1012C000BDFA104B10221A619FB1BDE8F041FFF743
:1012D000A3BFC4F1020210239340C8F810300FB12D
:1012E000FFF79AFF2CB921462846BDE8F041FFF7E9
:1012F000A5BABDE8F08100BF00400E40002D3101CD
:10130000702A000000300E4038B505460C46FFF745
:101310003FFFB8B145B90C4BD3F80051FFF740F986
:10132000C5F3042505FB0005084B1B7821463BB19E
:10133000074B9D4204D80220BDE83840FFF798BF14
:101340000020F9E738BD00BF00400E4061100020CA
:10135000002D310110B5234B4AF6E852596B5A6300
:101360009A6FD207FCD41B6C13F0030306D01E4AFD
:1013700001249842C2F8B44A1AD110BDA0B1431E4C
:10138000012B17D8174A4FF40023D362936FDB0762
:10139000FCD4136C23F0030343F001031364114ADC
:1013A000536A1C03FCD505E00F4BC3F8B40AE4E70D
:1013B000032BE4D00B4B9A6FD207FCD41A6C22F0AB
:1013C000030202431A649A6F12F00102FBD1003843
:1013D000054C18BF01200129C4F8B40A08BF5A639C
:1013E000CBE700BF00300E400000C6432DE9F04FB0
:1013F0008BB00023CDE90433CDE90633CDE90833C2
:10140000A0F5E163B3F5966F05460191934608D9BF
:1014100040F61C416E4801F014FA00200BB0BDE804
:10142000F08F6C4BDFF8B081D3F81842B0F5E16F64
:1014300015BF4FEA146AC4F3072AC4F30744E4B2A1
:101440000694CDF824A0D8F84C60C6F301768CBF82
:1014500001220022334607A904A815BF4FF4E16713
:101460004FF496674FF496694FF416790392FFF79D
:1014700099FED8F8EC30039AC3F3012308A905A814
:101480000293FFF78FFEA5EB070CAAEB04020CFBFF
:1014900002F2B2FBF9F214445445079F0498089AEB
:1014A00005991ED8A2EB010E0CFB0EFEBEFBF9FE49
:1014B00011EB0E012CBF4FF0010E4FF0000E8A42CF
:1014C0000FD3BEF1000F0CD13A1A0CFB02F2B2FBA3
:1014D000F9F280182CBF01220022874201D3029B1F
:1014E00012B140F66A4195E7BBF1000F0FD0D8F872
:1014F0005C20B5F5E16722F4FE4218BF012722F017
:10150000020242EA470242EA0422C8F85C20019A39
:101510000AB9012082E72F4A022ED2F8302212D0D7
:10152000032E13D0012E14BFD2B2C2F3072212032E
:1015300012F4702F0CD040F61621254801F081F9E5
:1015400040F6794166E7C2F30742F0E7120EEEE794
:10155000214EF46E24F470442243F2661D4A022B9D
:10156000D2F8302212D0032B13D0012B14BFD2B2E9
:10157000C2F30722120312F4702F0CD040F622217E
:10158000134801F05EF940F6814143E7C2F3074298
:10159000F0E7120EEEE7104CD4F8EC3023F4704371
:1015A0001343C4F8EC30636E884238BF084623F416
:1015B000FF73E72823F0010328BFE720B5F5E16FAB
:1015C00018BF43F0010343EA40036366A1E700BF8D
:1015D000702A00000081E00F00300E4008B5324A4A
:1015E000136FD16C11F0010F03F0060342D0002BF2
:1015F00040D0132855D9143813288CBF1023082342
:101600002949013BCA6C180322F47F4240EA0323B4
:101610001343CB64254BCA6C1B88C2F303222833C7
:10162000013202EB820003EB5303B3FBF0F3C86C0F
:10163000013B072B28BF072320F0EE6040EA03633D
:1016400043F48013CB641A4BB3F90030002B10DB4A
:101650002833500800EB420203EB5303B3FBF2F3D1
:101660000A6D072B28BF072322F0700242EA0313FA
:101670000B6508BDD16C01F00101194304D10928A3
:101680000FD90A380928B8E7D26CD20702D50BB9AE
:101690002728B2E7074840F6BF4101F0D2F80023FF
:1016A000AEE70423ACE700BF00300E405C10002022
:1016B00058100020702A000010B50C4BD3F8803968
:1016C000044633B9012804D9094840F6DD4101F048
:1016D000B8F8084A136F23F0070323431367064B38
:1016E000BDE810401888FFF779BF00BF0000C6436F
:1016F000702A000000300E405A10002038B5594BB7
:1017000002229A639B6B03F00F039342044607D0B7
:1017100040F6AB21544801F094F80025284638BD26
:101720000389C82B04D9504840F6B52101F089F847
:10173000A28823899A4204D94B4840F6B62101F089
:1017400080F8B4F90C30C82B04DD474840F6B721C7
:1017500001F077F86378012B55D1A388C82B04D901
:1017600040F6BB21404801F06CF8E28842F2107369
:101770009A4204D93C4840F6C82101F062F8E28858
:101780004A2A48D9B2F5FA7F47D340F6C3139A42A2
:101790008CBF4FF040524FF000523249B4F90C0068
:1017A000CB6C23F0405323F001030028A8BF43F083
:1017B00001031343CB64D1F8EC30A28843F44073A7
:1017C000C1F8EC30294B1A80CB6E43F08073CB66A6
:1017D000274BD3F8800900B10420FFF76DFF254B9C
:1017E00021891980244BB4F90C20A0881A80FFF7B6
:1017F000F5FEA37BA3B1012B1FD01B4840F6C711F8
:1018000001F01FF80FE0022BAFD1A3880A2BACD94F
:101810004FF42C61A6E70022BFE74FF08052BCE7EF
:10182000104B164A9A65012260881146FFF7DEFDCB
:10183000054628B940F6FF216CE70A4B104AF1E74C
:10184000084AD36B43F48063D3636078FFF782FD6B
:10185000A37AA3F1200253425341054AC2F89437B8
:101860005CE700BF00300E40702A00005A100020D4
:101870000000C6435C10002058100020774020571D
:10188000372110B738B50A2804460D4605D80B4B4A
:1018900033F81030CB40DB0704D409484FF486619D
:1018A00000F0CFFF30230C2113FB041303F18C4312
:1018B000012203F52043AA401A6038BDEE2A000039
:1018C000992A000038B50A2804460D4605D80B4B66
:1018D00033F81030CB40DB0704D4094840F2014113
:1018E00000F0AFFF30230C2113FB041303F18843F6
:1018F000012203F52043AA401A6038BDEE2A0000F9
:10190000992A000010B51F28044603D90648522121
:1019100000F097FF054AD2F8443423F00303234331
:10192000C2F8443410BD00BFC32A000000A000402C
:10193000F8B50A2804460D4616461F4605D81C4B26
:1019400033F81030CB40DB0704D41A484FF4B071A1
:1019500000F077FF26B129462046CFB1FFF792FF6E
:1019600004EB4403072D4FEA03134FF00F0112D885
:10197000A80006FA00F281400F48184400F08FFFDB
:10198000AEB92946204677B1BDE8F840FFF77ABFE7
:10199000FFF798FFE4E7A5F10800800006FA00F2DF
:1019A00081400648E9E7BDE8F840FFF78BBFF8BD86
:1019B000EE2A0000C32A000004A0004008A0004056
:1019C00038B5022804460D4603D911484C2100F0D1
:1019D00038FF6B791F2B03D90D484F2100F031FFE1
:1019E000AB786A789B0143EA82032A781343EA784A
:1019F00043EA02132A7943EAC2236A7943EA0233AB
:101A0000AA79043443EA42432401024A135138BDFF
:101A1000042B000000200440014B1860704700BFF9
:101A200000008442437882789B0043EA02130278E4
:101A30001343C27843EA4213027943EA022342790C
:101A400043EA0233827943EAC233C27943EA02436A
:101A5000027A43EA4243014A13607047002004407F
:101A6000024BD3F8FC00000E704700BF0081E00F6E
:101A7000F8B507460C461D4616464AB9324840F2AC
:101A8000551100F0DEFE24B1402D08D1062327E0D9
:101A900019B92E48FFF76EF80446402D42D0402D6C
:101AA00009D87DB1202D17D0BDE8F84026484FF465
:101AB000CE7100F0C6BE602DF6D1B6EB940F3CD8C7
:101AC00004230DE0B6EB141F04D91F4840F2871120
:101AD00000F0B7FE102303E0B6EBD40F1CD80823A8
:101AE0005E43730803EB4413B3FBF6F3184E203B3D
:101AF000B6EBC30F4FEAC30404D2134840F2B3114C
:101B000000F09FFE3B6823F060033B603B6834407D
:101B10001D433D607C61F8BD0B484FF4C67100F079
:101B200090FEDCE70623B4FBF3F3B342AED20648E3
:101B300040F2911100F085FEA8E703484FF4CB7105
:101B400000F07FFEBCE700BF2E2B000040410500E7
:101B5000F8FF7F0070B506460C46154622B90D48C1
:101B600040F2A62100F06DFE1CB90B48FFF702F809
:101B700004460A4B6D00013CB4FBF5F413EA042360
:101B80004FEA042504D0034840F2CB2100F059FE6F
:101B9000756170BD2E2B000040410500070080FFDD
:101BA00010B51F4B9842044610D003F5806398424D
:101BB0000CD003F58063984208D003F58063984207
:101BC00004D0184840F25E4100F03BFE40F6AA63A4
:101BD000E36041F20502002323606260124AA360C1
:101BE0006361E364A2640E4A236694426367A36759
:101BF000E3670DD002F5806294420BD002F580625B
:101C0000944205D002F58062944203D0A36510BDD2
:101C10002365FBE72365A3650023E365F7E700BFC2
:101C2000000001402E2B0000F9FF010038B5294BC0
:101C3000984204460D4610D003F5806398420CD0BC
:101C400003F58063984208D003F58063984204D07E
:101C5000214840F2153100F0F4FD2046FFF7A0FFC7
:101C6000AB7C1BB1236843F080432360EB7C1BB14A
:101C70002B7D43F08003A3652A8A6B7B1343EA899B
:101C8000134363602B7BD5E901122046FFF7F0FE7A
:101C90006B7D1BB1236843F480332360AB7D1BB1A4
:101CA000236843F400432360EB7D2A7E1B07120563
:101CB00002F4E00203F0E04313432366636F23F072
:101CC00030036367626F6B7E134363672B78E36057
:101CD00038BD00BF000001402E2B000038B5294B55
:101CE000984204460D4610D003F5806398420CD00C
:101CF00003F58063984208D003F58063984204D0CE
:101D0000214840F2813100F09CFD2046FFF748FF5A
:101D10002B8A226843F001031343AA7B43EA822300
:101D2000236023682A7D43EA42732360AB7C1BB1A6
:101D3000EB7C43F08003A3652B7B43F4805363600B
:101D4000D5E901122046FFF705FF6B7B0BB110238D
:101D5000E3606B7D1BB1236843F480332360AB7D6C
:101D60001BB1236843F400432360EB7D2A7E1B07ED
:101D7000120503F0E04302F4E002134323662B78DC
:101D8000E36038BD000001402E2B00007FB5094BF9
:101D90006A4603F11006154618685968144603C4CC
:101DA0000833B3422246F7D12846FFF7A7FC0020AC
:101DB00004B070BD5A2B000070B586B0184B01AA54
:101DC00003F11006154618685968144603C4083311
:101DD000B3422246F7D11B882380124BD3F8B4209C
:101DE000120317D5A3F500434FF6FF711A8840F28E
:101DF00047138A4218BF13460B48ADF80A30FEF766
:101E000011FC2846FFF748F93220FEF7A1FF002019
:101E100006B070BDD3F8B830C3F30803ECE700BFD9
:101E20006A2B00000081E00F00F0490207B5084B63
:101E300018680190202301A88DF80430FFF77CF981
:101E40003220FEF77FFF002003B05DF804FB00BFE7
:101E50007C2B000010B50C480C4C6FF00403A02143
:101E600013F0800F03F1010207D12344332A83F8D2
:101E700000131346F4D1002010BD03F00F03043B00
:101E8000034419761346EBE700ED00E000E100E0C3
:101E900030B50E4C416123688BB9206083600DE042
:101EA000891A9A6841611D466AB113465A698A4285
:101EB000F6D935B1A860521A83605A6130BD002549
:101EC000F4E72060F7E798608260F7E74C100020A5
:101ED00038B500F01BFA094C094B1A682368002535
:101EE000C31A2AB123B15169994203D3C91A516166
:101EF000206038BD55615B1A9268F2E748100020F7
:101F00004C10002038B5134D2B685B6993B1124A11
:101F1000146802201C4400F02DFA204600F0FCF961
:101F20000E492A6800230B70D088800709D5012349
:101F30000B7038BD022000F01DFA022000F040FABC
:101F4000EEE79268002AF4D050690344012BEBD9E4
:101F5000EFE700BF4C100020481000206310002065
:101F600070B516469DF814200271049A0260C0E90B
:101F700003360022BDF81830826004460D46C38047
:101F8000EEB900F0C3F92844A0619DB12E4600F0DF
:101F900076FC0546FFF79CFF31462046FFF778FFA9
:101FA000104B1B68A34201D1FFF7ACFF284600F09D
:101FB0006AFC02E0E36865617BB9002070BD00F057
:101FC000A5F93044A061002DE0D1E3686561002BE4
:101FD000DDD0216820469847D9E7216820469847F8
:101FE000EBE700BF4C1000200C490B6800227BB1CE
:101FF00083420AD183687AB1936083681BB15A69BE
:1020000041690A445A61002070471A469B68EEE70E
:102010000028EFD0022070470B60EEE74C10002044
:1020200070B5154E00F032FC34780546FCB9134B00
:102030001C60134B1C60134B1C8000F021F9012025
:1020400000F098F900F0DCF90F4B0246186020B957
:10205000284600F021FC232070BD23460B4840F2A7
:10206000E73100F003FA0A4B186001233370284669
:1020700000F012FC0020EFE7641000204C1000205C
:10208000481000205E1000205010002018FCFFFFB8
:102090004410002038B50C460546A8B1A1B1002374
:1020A0000B7000F0F3FB094B1B68012133B900F002
:1020B000F3FB002038BD9D4204D121702278002A14
:1020C000F9D0F4E79B68F1E72220F3E74C100020F9
:1020D00038B5074B1D680446002140F2E7304FF445
:1020E0007A720023E5FB040100F0C0F938BD00BF9F
:1020F0005010002000B58DB001238DF80F30FFF790
:10210000E7FF0023CDE900330146074A0DF10F0335
:1021100004A800F0EEFB18B99DF80F30002BFBD19E
:102120000DB05DF804FB00BFED2800002DE9F84379
:10213000C20704460BD54E4A138801339BB2138065
:10214000FFF7C6FE4B4B1B680BB1FFF7DBFEA30787
:1021500040F18B8000F09AFB0546FFF7B9FE4FF087
:102160000008444F46463C680CB163698BB1424B52
:102170000022012E1A7003D118F0020F18BF1E7032
:10218000002C6ED0FFF7BEFE2846BDE8F84300F0F5
:1021900083BB23465A693AB91A792179914288BF9B
:1021A0001C469B68002BF5D1284600F075FB25697D
:1021B000DDB100F0ABF8A269A0EB02084FEAE873CA
:1021C000A84573F1000311DB23691344A361E3689D
:1021D000B4F80680013613B121682046984700F014
:1021E00055FB0546FFF774FEBDE7A84600F04EFB21
:1021F00081462046FFF7F8FE484600F04DFB236974
:10220000002BE4D0B5EB08054FEAE87363EB43031A
:10221000012D73F1000304DA184840F22A5100F04E
:1022200010FBA38B33B1E28B13449BB2B3F57A7FDF
:102230000FD2E38300F02AFB294680462046FFF7B1
:1022400027FEA36922691344A361404600F024FBE2
:10225000BDE7A3F57A73E383A369013B013DA36165
:10226000E8E7022000F094F88EE7BDE8F88300BFAD
:102270005E1000204C10002062100020802B000017
:1022800010B586B01D4B1868596803AA03C2197AA5
:10229000D3F8090011700024B3F80D200190DB7B06
:1022A0001748ADF8082001218DF80A30FEF7D6FA5C
:1022B0008DF80C4000F041FB8DF8100003A8FFF7EB
:1022C000B1FB01A901208DF80440FFF779FB0D4A0D
:1022D000536A23F4FF6323F00703536240F2FF7352
:1022E000136201209460FFF797FB074B4FF0804289
:1022F000C3F880211A6006B010BD00BFBD2B0000DE
:10230000A00914000020044000E100E0014B98689F
:10231000704700BF0020044010B5044600F0AFFA3B
:10232000124A9368516D9269520704D4CA1A032A5B
:1023300001D88B420DD1E21A022A98BFDC1C0B4B4C
:10234000B4F1FF3F38BF013C5C655A6A42F00402B9
:102350005A6200F098FA064A137833B103490B6DBC
:1023600043F002030B650023137010BD00200440EE
:10237000181000208207054A00F00103516A48BF87
:1023800043F004030B435362704700BF0020044036
:10239000820700F0010309D5074A0121117007499E
:1023A0000A6D22F0030243F004030A6503494A6AF6
:1023B00022EA03034B6270471810002000200440FB
:1023C000830742BF014B0422DA61704700200440BA
:1023D00010B500F05BFA094A93690446590703F007
:1023E000010003F0070348BF40F002001362FFF74B
:1023F0009DFE2046BDE8104000F04EBA002004408B
:1024000008B50448FEF7B6FB034600F096FA23FA37
:1024100000F008BDA009140010B50446FEF7EAF864
:102420004FF47A729042B0FBF2F105D23621BDE84A
:1024300010400B4800F005BA0A4BB3FBF1F30A4910
:10244000884201D93C21F2E702FB04F0B0FBF3F033
:10245000032804D9BDE810408008FDF759BE10BD1F
:10246000CD2B000040420F00E7CD9A3B53B94AB94B
:10247000002908BF00281CBF4FF0FF314FF0FF308C
:1024800000F06AB9ADF1080C6DE904CE00F006F871
:10249000DDF804E0DDE9022304B070472DE9F047E0
:1024A000089D0C46002B4ED194468C458646B2FAC8
:1024B00082F262D94AB1C2F12003914020FA03F3BB
:1024C0000CFA02FC194300FA02FE4FEA1C471FFAFD
:1024D0008CF6B1FBF7F44FEA1E4307FB141143EAF5
:1024E000014304FB06F199420AD91CEB030304F1F2
:1024F000FF3080F01381994240F21081023C634426
:10250000591A1FFA8EF3B1FBF7F007FB101143EADB
:10251000014300FB06F69E420AD91CEB030300F1BF
:10252000FF3180F0FD809E4240F2FA806344023821
:102530009B1B40EA044000211DB1D3400022C5E9A5
:102540000032BDE8F0878B4205D90DB1C5E9000125
:1025500000210846F5E7B3FA83F1002946D1A342EA
:1025600002D39042C0F0F180861A64EB030301208D
:10257000002DE6D0C5E90063E3E7002A40F0918032
:10258000A1EB0C044FEA1C481FFA8CF70121B4FBA5
:10259000F8F64FEA1E4308FB164443EA044307FBE0
:1025A00006F0984208D91CEB030306F1FF3402D26F
:1025B000984200F2CE8026461C1A1FFA8EF3B4FB16
:1025C000F8F008FB104443EA044300FB07F79F427E
:1025D00008D91CEB030300F1FF3402D29F4200F242
:1025E000B1802046DB1B40EA0640A5E7C1F120068A
:1025F0008B4022FA06F71F4320FA06FC04FA01F387
:1026000043EA0C03F44000FA01F8380C4FEA13498E
:10261000B4FBF0FE1FFA87FC00FB1E4449EA0444A9
:102620000EFB0CF9A14502FA01F20AD93C190EF190
:10263000FF3A80F08580A14540F28280AEF1020E23
:102640003C44A4EB09041FFA83F9B4FBF0F300FB4C
:10265000134449EA044403FB0CFCA44507D93C1984
:1026600003F1FF3068D2A44566D9023B3C4443EAFB
:102670000E40A0FB0293A4EB0C049C42CE469C4669
:1026800052D34FD055B1B8EB0E0364EB0C0404FAEF
:1026900006F6CB40CC401E43C5E900640021BDE8EE
:1026A000F087C2F1200320FA03F10CFA02FC24FAAD
:1026B00003F394400C434FEA1C4800FA02FE1FFA51
:1026C0008CF7B3FBF8F008FB1031230C43EA01430D
:1026D00000FB07F1994208D91CEB030300F1FF3618
:1026E0002CD299422AD9023863445B1AA4B2B3FBB4
:1026F000F8F108FB113344EA034401FB07F3A3425A
:1027000008D91CEB040401F1FF3613D2A34211D9FE
:1027100002396444E41A41EA004138E70446EFE62E
:10272000084605E7C845ADD2B9EB020E63EB070CCE
:102730000138A7E73146EDE7034698E73046D4E78E
:10274000D6467EE7634402384CE7064623460846F1
:102750000EE7023E63442FE7704700BF08B5064B03
:10276000044613B10021AFF30080044B1B6803B192
:102770009847204600F066F8000000005410002042
:1027800070B50D4D0D4C641BA4100026A64209D156
:102790000B4D0C4C00F0F4F8641BA4100026A6426C
:1027A00005D170BD55F8043B98470136EEE755F862
:1027B000043B98470136F2E71C1000201C10002053
:1027C0001C10002020100020FDF73ABD08B500F0D5
:1027D000B6F8FFF7F9FF00F0BFF8FDF721FDFAE7C3
:1027E00000F016B808B5FDF741FFBDE8084000F05D
:1027F00018B808B500F00AF8BDE80840FFF710BCAB
:102800007047704770477047704770470F20704798
:1028100008B50023184604220521FFF789F8002097
:1028200008BD08B5082000F00EF8BDE808400820F3
:1028300000F014B8FEE74FF4004070474FF47A7090
:102840007047FEE7FEE74FF060420123D2F8001E1A
:1028500083400B43C2F8003E002070474FF06041B8
:102860000122D1F8003E824023EA0203C1F8003E73
:102870000020704708B5FEF73FF8013008BDEFF3C0
:10288000108072B6704700B962B67047EFF31180DE
:10289000602383F31188704780F31188704770B507
:1028A00005460E461446FFF7EAFF2B685C403440AD
:1028B0005C402C60BDE87040FFF7E5BF03695A0635
:1028C000FCD5416303699B06FCD5C069C0B2704763
:1028D00013B568460024022300948DF804408DF857
:1028E0000530FEF7A5FC204602B010BD00230B709A
:1028F0007047F0B587B01F4600230D4616468DF889
:1029000017300446A8B1C3610DF11701FFF7C2FBF0
:102910009DF817207AB9BDF8343002939DF8303015
:102920002946CDE9007320463346FFF719FB07B06F
:10293000F0BD2220FBE70320F9E70020704708B52F
:10294000FDF712FDFFF74EFFFFF753FFFFF758FFAC
:10295000BDE80840FFF755BF08B5FFF753FFFFF785
:1029600052FFFFF751FFBDE80840FFF74EBF02449A
:102970000346934200D1704703F8011BF9E70000BA
:10298000F8B500BFF8BC08BC9E467047F8B500BF5C
:10299000F8BC08BC9E467047000000000000000024
:1029A0000000000000000000000000000000000027
:1029B0000000000000000000000000000000000017
:1029C00068656C6C6F0000000500000000000000EE
:1029D00000C201000005000000100000000000001F
:1029E00000000000050000000000000040420F0051
:1029F00005010000000000000000000000000000D1
:102A0000433A2F6765636B6F5F73646B2F706C6104
:102A100074666F726D2F656D6C69622F7372632FB0
:102A2000656D5F636D752E63000000028000080015
:102A30000200200000014000040001001000080610
:102A4000020004090703010540787D010000000031
:102A5000005A620200010000C0CF6A0002000000BC
:102A6000809FD50002010000002D3101020200000C
:102A7000433A2F6765636B6F5F73646B2F706C6194
:102A800074666F726D2F656D6C69622F7372632F40
:102A9000656D5F656D752E6300633A5C6765636B9A
:102AA0006F5F73646B5C706C6174666F726D5C6594
:102AB0006D6C69625C696E635C656D5F6770696FA0
:102AC0002E6800433A2F6765636B6F5F73646B2FEB
:102AD000706C6174666F726D2F656D6C69622F73B7
:102AE00072632F656D5F6770696F2E630000FF036F
:102AF000C0FFFF0F00FF0000FFFF000000000F00FD
:102B000000C00700433A2F6765636B6F5F73646BA8
:102B10002F706C6174666F726D2F656D6C69622FBA
:102B20007372632F656D5F727463632E6300433A43
:102B30002F6765636B6F5F73646B2F706C61746676
:102B40006F726D2F656D6C69622F7372632F656D87
:102B50005F75736172742E630000000108070F0037
:102B60000A00C8002000A000010000000000A00032
:102B700068010A200706020A040700000002070095
:102B8000433A2F6765636B6F5F73646B2F706C6183
:102B900074666F726D2F736572766963652F736CDF
:102BA00065657074696D65722F7372632F736C5FE6
:102BB000736C65657074696D65722E630001000049
:102BC00000050000000002000003000000433A2F4F
:102BD0006765636B6F5F73646B2F706C6174666F96
:102BE000726D2F736572766963652F7564656C61AC
:102BF000792F7372632F736C5F7564656C61792EC6
:042C0000630000006D
:082C0400A0D5FF7F01000000D4
:0C2C0C00182C000000100020090000003F
:102C1800C0EA2101C0EA21010080000000F0490259
:102C2800C0EA2101FFFFFFFF010000008101000051
:042C3800590100003E
:0400000300000539BB
:00000001FF
