:020000040800F2
:1000000000100020BD050008EF2C0008EF2C0008B0
:10001000EF2C0008EF2C0008EF2C0008EF2C000854
:10002000EF2C0008EF2C0008EF2C0008EF2C000844
:10003000EF2C0008EF2C0008EF2C0008EF2C000834
:10004000EF2C0008EF2C0008EF2C0008EF2C000824
:10005000EF2C0008EF2C0008EF2C0008EF2C000814
:10006000EF2C0008EF2C0008EF2C0008EF2C000804
:10007000EF2C0008590300089D030008EF2C00082E
:10008000EF2C0008EF2C0008EF2C0008EF2C0008E4
:10009000EF2C0008EF2C0008EF2C0008EF2C0008D4
:1000A000EF2C0008EF2C0008EF2C0008EF2C0008C4
:1000B000EF2C0008EF2C0008EF2C0008EF2C0008B4
:1000C000EF2C0008EF2C0008EF2C0008EF2C0008A4
:1000D000EF2C0008EF2C0008EF2C0008EF2C000894
:1000E000EF2C0008EF2C0008EF2C0008EF2C000884
:1000F000EF2C0008EF2C0008EF2C0008EF2C000874
:10010000EF2C0008EF2C0008EF2C0008EF2C000863
:10011000EF2C0008EF2C0008EF2C0008EF2C000853
:10012000EF2C0008EF2C0008EF2C0008EF2C000843
:10013000EF2C0008EF2C0008EF2C0008EF2C000833
:10014000EF2C0008EF2C0008EF2C0008832E00088D
:10015000EF2C0008EF2C0008EF2C0008EF2C000813
:10016000EF2C0008EF2C0008EF2C0008EF2C000803
:10017000013800D0FCE770470348044B834202D0AB
:10018000034B03B1184770472010002020100020B7
:1001900000000000064B0749C91A891048BF013109
:1001A000491003D0044B0BB101481847704700BFFA
:1001B00020100020201000200000000010B5064C88
:1001C000237843B9FFF7D8FF044B13B10448AFF3CA
:1001D00000800123237010BD5A1000200000000091
:1001E0007C31000808B5054B1BB105490548AFF344
:1001F0000080BDE80840FFF7CDBF00BF0000000051
:10020000201000207C310008A3F5803A704700BF21
:10021000174B002B08BF134B9D46FFF7F5FF00213E
:100220008B460F461348144A121A02F05FFE0E4B1B
:10023000002B00D098470D4B002B00D09847002092
:10024000002104000D000D48002802D00C48AFF337
:10025000008002F0E9FC2000290002F00BFD02F012
:10026000D1FC00BF000008000000000000000000FA
:10027000001000202010002064200020000000005A
:100280000000000010B5064C14F8010B28B9BDE8B9
:1002900010404FF47A7002F0A7B900F053F8F3E77A
:1002A000402F000830B589B001213A2000F064FDEC
:1002B0000121572000F060FD01230422194602208D
:1002C00001F006FE022100230846012201F000FE93
:1002D000012304221846002101F0FAFD144B154AAF
:1002E0006C46C3F8CC244FF00212C3F8C424142285
:1002F000114DC3F8B4240FCD0FC495E80F0084E866
:100300000F000E4C6946204601F078FD4FF4005274
:100310000B4BC3F880211A604FF48042C3F8802150
:100320001A60042304F58054236509B030BD00BF72
:1003300000C0035002000100482F000800000A50CE
:1003400000E100E00222034B586403F580531A6574
:10035000704700BF00000A5010B50B4A0B4B0C4908
:10036000DC6B136809680133C3F30B0399421CBFAC
:10037000116813604FF0040218BF0648064B18BFFF
:100380004454DA6410BD00BF4010002000000A5041
:100390003C1000205B10002000200A5010B5054BD7
:1003A000054C1B681BB198470223E36410BD022370
:1003B0002365F9E73810002000200A5010B5274CBB
:1003C00000F02AFF01F052F9236F23F0070343F0F6
:1003D0000303236702F0C3FC214B00209B6ADB016F
:1003E0005EBF4FF480321F4B9A62D4F8203123F065
:1003F000070343F00203C4F82031D4F8283123F076
:10040000070343F00203C4F82831D4F8403123F045
:10041000030343F00203C4F84031D4F8603123F001
:10042000030343F00203C4F86031D4F8403223F0F0
:10043000030343F00203C4F84032D4F8003223F03F
:10044000070343F00203C4F80032D4F8083223F063
:10045000070343F00203C4F8083210BD00800050C7
:100460000040005A0060005A0122024BC3F8A0204D
:10047000704700BF00D003500122024BC3F8A020F8
:10048000704700BF00E0035070B588B03F4D01AC2D
:100490000FCD0FC495E8070084E80700012401216F
:1004A0003A2000F069FC3A4E0121292000F064FC5A
:1004B000384B304601A903938DF8124001F0A2FD9C
:1004C000234604220321022001F002FD02212246DC
:1004D0000846002301F0FCFC2346214604220220AA
:1004E00001F0F6FC042200212346022001F0F0FC7A
:1004F000294D2A4B4FF44870C5F834374FF002139A
:10050000C5F8303703F58033C5F838371C23C5F8F4
:10051000203702F0BBF91420FFF7AEFF02F0B6F966
:100520002320FFF7A1FF02F0B1F9B9213046FFF710
:10053000A3FF02F068FCFFF797FF002303211A4690
:10054000022001F0C5FC002302211A46084601F0F2
:10055000BFFC234621460022022001F0B9FC002204
:1005600023461146022001F0B3FC304601F01EFD87
:1005700000212920C5F83417C5F83017C5F83817F9
:10058000C5F8201700F0F8FB08B070BD682F000810
:1005900000C0055000127A0000C0035002000100A4
:1005A0000348044A0449121A921002F0A1BB00BF8A
:1005B000B0310008B03100086420002008B500F018
:1005C0002FF8FFF7EDFF124B12498B4212D3002098
:1005D000114B12498B4218D3FFF71AFE186850F8D6
:1005E0002240586840F82240013298688242F5D390
:1005F0000C33EAE70022F8E71C6844F822000132D5
:100600005C68A242F8D30833E4E70022F8E700BFB1
:1006100084310008903100089031000890310008C2
:1006200010B54FF480414FF0FF30114B114A9A60E2
:10063000D3F8882042F47002C3F888200E4A9166ED
:100640000E4901F5005210660D4850660220C3F8AD
:10065000D000BFF34F8FBFF36F8F01244FF44033AF
:100660000848C0F88041D36004600B6110BD00BF32
:1006700000ED00E000000008009000500080004401
:10068000F7FF370000E100E0014B1868704700BF3A
:1006900004100020084B1B6F03F00703022B04D04B
:1006A000032B05D0012B05D0FEE7044B18687047DB
:1006B000034BFBE703487047008000500410002004
:1006C0000C100020002D310108B5FFF7E3FF054BAA
:1006D0001B6FC3F303330133B0FBF3F0024B18601D
:1006E00008BD00BF00800050001000200048704787
:1006F00000B4C404014B1868704700BF0C10002000
:10070000054B1860054B1B6F03F00703032B01D14A
:10071000FFF7DABF704700BF0C10002000800050C8
:1007200000487047002D31014FF0B4439868C0F382
:1007300004400C280AD8DFE800F00B090909090970
:10074000072119091B1D1F000F4870470020704723
:100750009B6803F04073B3F1807F11D0B3F1007F49
:1007600010D00A4A002B08BF10467047084870474F
:10077000084870470848704708487047084870475D
:100780000848704708487047405DC60000093D00B2
:10079000C0EA210180BA8C010048E801005A6202D7
:1007A0000024F40080841E0040420F00014B1868B2
:1007B000704700BF08100020044BD3F88420D206F5
:1007C000FBD4D3F88400C0F3811070470040005080
:1007D00038B5124B0546D3F880300C4603F00303BE
:1007E000022B0BD0032B0DD0012B0FD1FFF752FFA3
:1007F0000E2305B1286004B1236038BDFFF794FFD4
:100800000723F6E7FFF740FF0623F2E7044841F22B
:10081000DF1102F080FA00231846EAE7008000505A
:10082000842F000838B51A4B0546D3F820010C4632
:1008300000F00700062821D8DFE800F028040C1497
:1008400010181C00FFF720FF052305B1286004B134
:10085000236038BDFFF74EFF0323F6E7FFF764FF81
:100860000723F2E7FFF75CFF0223EEE7FFF70CFF39
:100870000623EAE7FFF73EFF0423E6E7054841F2D7
:100880005C2102F048FA00231846DEE70123DCE78A
:1008900000800050842F000838B5194B0546D3F866
:1008A00028310C4603F00703013B052B20D8DFE875
:1008B00003F003131B0F0B17FFF7E6FE052305B12B
:1008C000286004B1236038BDFFF7DEFE0623F6E79B
:1008D000FFF72AFF0723F2E7FFF70CFF0323EEE7FA
:1008E000FFF708FF0423EAE7FFF71AFF0223E6E712
:1008F000044841F2640102F00EFA00231846DEE7D4
:1009000000800050842F0008F7B50027144B019792
:10091000D3F88041064604F00304022C0D4614D09F
:10092000032C0DD0012C14D1394601A8FFF77AFF12
:1009300010240EB1019B336005B12C6003B0F0BDF3
:10094000FFF7F2FE07240190F3E7FFF7E9FE0190BD
:10095000EFE741F2B131034802F0DDF93C46E8E748
:1009600000800050842F000837B500230193194BF5
:100970000546D3F820320C4603F00703042B1FD89A
:10098000DFE803F025030F141900002101A8FFF789
:1009900083FF12230DB1019A2A6004B1236003B0D2
:1009A00030BDFFF7C1FE07230190F3E702F0ADF978
:1009B0000A230190EEE7FFF7F9FE09230190E9E72A
:1009C00041F22301044802F0A6F90023E2E70123E3
:1009D000E0E700BF00800050842F000838B5104BBE
:1009E0000546D3F840310C4603F00303022B0BD02D
:1009F000032B0DD0012B0FD102F087F90A2305B18B
:100A0000286004B1236038BDFFF7D0FE0923F6E764
:100A100002F07EF90C23F2E701230020EFE700BF8C
:100A20000080005037B500230193184B0546D3F8DA
:100A300060320C4603F00703013B032B1FD8DFE8AD
:100A400003F0020E1914002101A8FFF7EBFE10239A
:100A50000DB1019A2A6004B1236003B030BD0021BA
:100A600001A8FFF7BBFF1123F2E7FFF75DFE0723A5
:100A70000190EDE7FFF754FE02230190E8E741F211
:100A8000C801034802F047F90023E1E70080005065
:100A9000842F000837B500230193184B0546D3F87F
:100AA00094320C4603F00703013B032B1FD8DFE809
:100AB00003F0020E1914002101A8FFF7B3FE102362
:100AC0000DB1019A2A6004B1236003B030BD00214A
:100AD00001A8FFF783FF1123F2E7FFF725FE0723A5
:100AE0000190EDE7FFF71CFE02230190E8E741F2D9
:100AF000FB01034802F00FF90023E1E700800050FA
:100B0000842F000873B500240F4B0194D3F8703282
:100B1000064603F00303012B0D4607D0022B11D02C
:100B200041F22611094802F0F6F804E0214601A836
:100B3000FFF754FF11240EB1019B336005B12C6007
:100B400002B070BD1524F6E700800050842F000825
:100B500038B5164B0546D3F800020C4600F00700E6
:100B6000042819D8DFE800F020030B0F130002F06F
:100B7000CCF80A2305B1286004B1236038BDFFF723
:100B800015FE0923F6E702F0C3F80C23F2E7FFF79E
:100B90009BFD0F23800AEDE7054841F26F4102F00B
:100BA000BAF800231846E5E70123E3E70080005088
:100BB000842F000838B5164B0546D3F808020C46BA
:100BC00000F00700042819D8DFE800F020030B0F1D
:100BD000130002F09AF80A2305B1286004B12360DB
:100BE00038BDFFF7E3FD0923F6E702F091F80C2387
:100BF000F2E7FFF769FD0F23800AEDE7054841F2B0
:100C0000A74102F088F800231846E5E70123E3E74F
:100C100000800050842F000838B5104B0546D3F8EB
:100C200040320C4603F00303022B0BD0032B0DD0F4
:100C3000012B0FD102F069F80A2305B1286004B135
:100C4000236038BDFFF7B2FD0923F6E702F060F834
:100C50000C23F2E701230020EFE700BF00800050E3
:100C600038B5104B0546D3F860310C4603F003034A
:100C7000022B0BD0032B0DD0012B0FD102F045F826
:100C80000A2305B1286004B1236038BDFFF78EFD4B
:100C90000923F6E702F03CF80C23F2E701230020D9
:100CA000EFE700BF0080005010B5B0F5207F2ED0D8
:100CB00009D8B0F5007F24D003D868B1B0F5C07F63
:100CC0000AD000241BE0B0F5607FFAD1124BD3F8B4
:100CD0008040C4F3011412E00F4B1C6F230B13F080
:100CE0000E0FC4F303340AD0072C08D00F2C06D003
:100CF000032C04D040F28521084802F00CF8601C57
:100D000010BD054BD3F89040C4F30464F7E7024BE1
:100D10001C6FC4F38024F2E700800050842F000889
:100D200038B54FF48032104B04469A6600200D46C9
:100D3000FFF7BAFF41F671320C4B6043DC69DA63AE
:100D40005A6804F4803422F440125DB9084988429C
:100D500094BF00200120000502435A600CB100221C
:100D6000DA6338BD0349F2E70090005000000350F9
:100D7000005A6202002D310138B5430904460D4680
:100D80000ED140F22F310D4801F0C5FF002304F0D1
:100D90001F0485B103F580530122A2401A6038BDBB
:100DA000012B04D0022B04D040F23D31EBE7044B81
:100DB000EDE7044BEBE703F50053EDE7842F000864
:100DC000648000506880005030B585B000218028D4
:100DD0000446CDE9001100F09F8035D85E2846D842
:100DE0005E2844D8DFE800F09E4343434343434337
:100DF00043434343434343434343434343434343C3
:100E000043434343434343439EAB9EABBBBBBBBB4C
:100E1000BBABC550DB7450ABABAB43434343434325
:100E20004343ABABAB7CE5AB434343434343434317
:100E30004343434343BB9E9E9EE05050EA8B61C0B8
:100E40004343434343939E00B0F5B06F00F091805D
:100E500030D8B0F5207F72D00FD8B0F5C07F61D008
:100E6000B0F5007F61D0B0F5807F00F0878040F260
:100E70009441554801F04FFF51E0B0F5607F69D0D3
:100E80000DD8B0F5407FF2D1FFF71EFC04464FF4B9
:100E90002070FFF709FFB4FBF0F4640858E0B0F5E8
:100EA000806F5CD0B0F5A06FE1D100216846FFF7FC
:100EB0005BFD34E0B0F5106F76D016D8B0F5E06F7A
:100EC00077D00AD8B0F5C06F69D0B0F5D06FCED169
:100ED00000216846FFF73CFE21E0B0F5F06FC6D177
:100EE00000216846FFF7BCFE19E0B0F5406F3BD02B
:100EF0000AD8B0F5206F61D0B0F5286FB7D10021C6
:100F00006846FFF7FFFD0AE0B0F5486FAFD100215A
:100F10006846FFF7BFFD02E0FFF7BCFB00900098BA
:100F200005B030BDFFF7D0FBF8E7FFF7B3FB054690
:100F30002046FFF7B9FEB5FBF0F50095EFE7FFF7A8
:100F4000C3FB04464FF42070FFF7AEFEB4FBF0F491
:100F50000094E4E701A8FFF73BFC019DE8E70021CE
:100F60006846FFF75FFCDAE700216846FFF794FC6C
:100F7000D5E700216846FFF7C7FCD0E74FF0E02334
:100F800002911B695B0705D5FFF79EFB0290029B50
:100F90000093C4E703A902A8FFF720FDF7E70021AB
:100FA0006846FFF71BFDBAE700216846FFF702FE1F
:100FB000B5E700216846FFF72FFEB0E7002168463D
:100FC000FFF730FDABE700BF842F000808B5802095
:100FD000FFF7FAFE034B98429EBF4FF48032024B5C
:100FE0001A6708BD005A620200A000501FB50346F0
:100FF0000020B3F5807F019000F0C28063D85D2BA4
:1010000054D84C2B06D82D2B46D8232B2AD840F267
:101010007951A4E04D3B102BF9D801A252F823F0EE
:10102000771100080F1000080F1000080F100008BB
:10103000291100080F1000080F100008FB1100080C
:1010400047110008ED100008F11100080F1000080A
:101050000F1000080F1000080F1000080F100008F4
:1010600005120008243B092BD1D801A252F823F025
:101070007711000877110008771100087711000830
:10108000771100080F100008671100080F10000802
:1010900009110008AD1100083D2B00F082803E2BA5
:1010A000B5D1002001A9FFF7B7FD60E0802BAED1DC
:1010B000574B1B6F03F00703013B032B4DD8DFE8B1
:1010C00003F04A47878FB3F5F06F6AD021D8B3F5A4
:1010D000B06F48D00FD8B3F5607F00F0858096D30D
:1010E000B3F5806F47D0B3F5A06F90D1002001A970
:1010F000FFF73AFC3BE0B3F5D06F57D0B3F5E06FA4
:10110000CFD0B3F5C06F82D1002001A9FFF766FCF4
:101110002DE0B3F5206F70D00BD8B3F5086F4AD02F
:10112000B3F5106F7FF473AF002001A9FFF742FD04
:101130001DE0B3F5406F5BD0B3F5486F62D0B3F5F7
:10114000286F7FF464AF002001A9FFF7DBFC0EE0FD
:10115000052301930BE00223FBE740F2C6412D4833
:1011600001F0D9FD03E0002001A9FFF7CDFB0198B4
:1011700005B05DF804FB002001A9FFF753FBF6E77B
:101180004FF0E02302901B695B0705D5FFF79CFA3F
:101190000D230393039BDCE703A902A8FFF71EFCC2
:1011A000F8E7002001A9FFF75BFDE0E7002001A9B7
:1011B000FFF7CEFCDBE7164BD3F8003103F0030357
:1011C000022B07D0032B09D0012B0BD1FFF792FA8A
:1011D0000323BEE7FFF7EAFA0923BAE701F093FD1C
:1011E0000823B6E70123B4E701A9FFF7F1FABEE748
:1011F000002001A9FFF750FBB9E7002001A9FFF784
:1012000011FCB4E7002001A9FFF744FCAFE700BFE1
:1012100000800050842F00084FF48012034B5A6660
:101220004FF48032024B9A62704700BF009000502A
:101230000050005A38B5036804460F2B04D940F615
:101240006D317C4801F067FD63680F2B04D94FF4C2
:101250003761784801F05FFDA3680F2B04D940F691
:101260007331744801F057FD237B0F2B04D940F6EE
:101270007631704801F04FFD637B0F2B04D940F6A7
:1012800079316C4801F047FDA37B3F2B04D940F630
:101290007C31684801F03FFDE37B3F2B04D940F6E9
:1012A0007F31644801F037FD2369032B04D940F6F0
:1012B0008231604801F02FFD6369032B04D940F6A9
:1012C00085315C4801F027FDE369032B04D940F622
:1012D0008831584801F01FFD8020FFF787FE032862
:1012E00000F083804FF48012534B4FF0A0615A6698
:1012F00045F60E02514BC3F88020514A91624FF4DB
:10130000803102F5805291629A6DD203FCD4996DBE
:1013100011F08041FBD1D4E90002120542EA0062DB
:10132000E07B0243207B42EA0042607B42EA0032DB
:10133000A07B42EA80121A619869D4E9045212062D
:1013400042EA856200F000400243A07EE57E02434F
:10135000207E42EA0042607E42EA00229A611A6AD6
:10136000E06922F00F0242EA8502364D00283DD1A5
:101370001A6294F82420996A94F82000D200294037
:1013800042EA40120A4394F8211042EA011242F460
:1013900080329A622C49294A936D31EA0303FBD1CA
:1013A0004FF08071264881621369A56823F47003A9
:1013B00043EA055313614FF00043836194F82230F0
:1013C0000BB9224B996294F823303BB94FF4803229
:1013D0001E4B9A62194A936D5B00FCD494F8253039
:1013E0001BB1164B1A4AC3F8802038BD024342F0A5
:1013F000080202281A6208D119614FF40852996153
:1014000014484FF47F4101F088FC0C4994F82230D5
:101410008A6A94F820001B062A4043EA40131343CB
:1014200094F8242043EAC20394F8232043EA0243B9
:101430008B62D3E7842F0008009000500040005AD0
:101440000050005AC7FFFEFE030001000060005A72
:10145000F1A7FFFF3440005A014B93F90000704799
:101460001410002010B543680446072B04D940F639
:10147000B3512A4801F04FFCA368032B04D940F66E
:10148000B551264801F047FC2378032B04D940F6D8
:10149000B751224801F03FFC94F90130002B04DAE7
:1014A00040F6B9511D4801F036FC4FF400011C4ACA
:1014B000637851664FF4D151022002F5B83251627F
:1014C00018494F2B48604FF0010028BF4F2301F50A
:1014D000805148601169C903FCD4217843EA012393
:1014E0005361D4E901131B0143EA0123617B0B43E0
:1014F000217B43EA41039360E37BA17B1B0143EA29
:101500004113617C0B43217C43EA41035360A37C7C
:1015100013B16FF4D153536210BD00BF842F000884
:101520000090005000100250014B1880704700BF1F
:1015300012100020014B1880704700BF10100020CF
:1015400038B5B0F5207F77D00ED8B0F5007F61D0E8
:1015500003D890B3B0F5C07F2FD040F21231BDE870
:1015600038403D4801F0D7BBB0F5607FF5D13B4A2C
:101570004C1ED2F8FC5015F080751EBFD2F8FC301E
:1015800023F08073C2F8FC30032C04D940F2F2211E
:10159000314801F0C0FB324AD2F8803023F03003EA
:1015A00043EA0413C2F8803035B12C4AD2F8FC303B
:1015B00043F08073C2F8FC3038BD4C1E012C0AD9B0
:1015C000102903D8274BCB40DB0704D440F2C721B6
:1015D000214801F0A0FB01F0AFFB01F0BBFB4FF491
:1015E0008031214B1E4A1967136F23F4704343EA7D
:1015F00004331367FFF768F80446FFF7DDF8C0F11E
:101600000201204601F0A0FB00F040F8BDE83840A0
:10161000FFF7DCBC4C1E1F2C04D940F206310E48EB
:1016200001F079FB0E4AD2F8903023F0F85343EAE8
:101630000463C2F89030BFE74C1E012C04D94FF46C
:101640004371054801F067FB054A136F23F480637B
:1016500043EA84231367AFE7842F000800ED00E01E
:1016600000800050100101000090005008B50121D9
:10167000022000F02FF801F05FFB01F06BFB4FF44C
:101680008032014B1A6708BD0090005008B54FF436
:10169000C070FFF799FBBDE808400449884294BF39
:1016A000012102214FF42070FFF74ABF80F0FA02B7
:1016B000024A536B0342FCD1704700BF00400950FF
:1016C000034A0179D36E23F030030B43D36670478E
:1016D00000400050F8B50446244BD3F88420D006CF
:1016E000FBD4D3F88430C3F381139C423CD0FEF783
:1016F000D1FF012C05460BD11D4B984204D940F275
:1017000092711C4801F007FB0121284601F01CFBE7
:1017100001F03AFB4FF00072174B07465A6620461D
:1017200001F042FB4FF48063104E621E934033671A
:10173000736E9A0103D4D6F884309B060AD53846D6
:1017400001F026FB022C0FD12846BDE8F84000210D
:1017500001F0FABAD6F884309906E9D54FF4F4616D
:10176000044801F0D8FAE3E7F8BD00BF004000509C
:10177000005A6202AD2F00080060005010B50C4600
:1017800008B9FEF787FF074B21461B783BB1064B94
:10179000984204D80120BDE81040FFF79BBF02200B
:1017A000F9E700BF5B200020005A620238B54FF015
:1017B0000042244B244C5A664AF6CD33656C0146F0
:1017C00005F00105236428BB0120FFF771FF636862
:1017D000DB0715D51D4B586008461D4B226BD20701
:1017E0000CD4984208D1072415B1174B194A1A6432
:1017F00001F0DBFA204638BD0130EFE79842F2D025
:101800000024F1E70132236B13F0080305D08A426C
:10181000F8D1E8E700220E49F5E78A42E3D020211B
:101820000A4A91620121A2F5805251600649084A94
:10183000886A800603D49342D5D00133F8E79342F7
:10184000DDE700BF009000500040095000600950E3
:1018500040420F003254FFFF38B54FF00042164BA4
:1018600001465A664AF6CD33144C154A656C23641A
:1018700043780B205B0043F00103D363FFF718FFAD
:1018800063688A7823F4F87343EA02136360CA78C2
:101890004B7943EA0223A3600A798B7943EA022356
:1018A00023610878FFF782FFEB0744BF054B2364F1
:1018B00001F07BFA012038BD009000500040095033
:1018C000004000503254FFFF70B50F28044605D980
:1018D00040F63961124801F01EFA0F244FF0004221
:1018E000104B11495D6E03F580535A664AF6CD33AD
:1018F0004E6C80200B64FFF7DBFE0B6A23F00F03B6
:1019000023430B62F30744BF084B0B64002DA2BFB7
:101910004FF00042064B5A6601F047FA70BD00BF17
:10192000AD2F000800800050004009503254FFFFE6
:1019300000A0005010B501F03DFA042300F58051DD
:1019400000F500520B6113610B6113610B611361B0
:101950000B611361202341F2020103610023C36084
:10196000836041614FF4A021836183654162054931
:10197000C36103628362C36243630365D16403632B
:1019800010BD00BFFF3F0D0338B5174B044698420A
:101990000D4607D0154B984204D04FF4B37114484C
:1019A00001F0B9F925B92046BDE8384001F002BA86
:1019B000012204F580535A6040F6FF71204605F07D
:1019C0000F0201F0F3F9A263782101F0EFF905F0BD
:1019D00001036A0748BF43F00203A26C02F003024E
:1019E0009A42FAD138BD00BF0000015B00000A50E6
:1019F000D62F0008F8B505460C46164622B94FF416
:101A000009716B4801F087F96A4B9D4202D19CB97C
:101A100056240DE0684B9D4247D040F22721644890
:101A200001F079F944B940F27631614801F073F977
:101A30002046FFF7C9F90446AB68D80745D5B4423C
:101A400004D240F231215A4801F065F9B4FBF6F4B2
:101A50006F68013CFF2C07F0010704D940F23921DF
:101A6000534801F058F924064FB32821284601F0C5
:101A70009DF9AB6C99071CD1AB6CDA071BD4AE6C2B
:101A800016F0020619D140F24621494801F043F907
:101A9000284601F08FF92B69314623F07F43234319
:101AA0002B61BDE8F840FFF76FBF002CC4D157246D
:101AB000BEE70526ECE70926EAE70626E8E72B69F4
:101AC00023F07F4323432B61F8BD6B68012B04D0C7
:101AD00040F25921364801F01EF9AB6DDB07AB68C7
:101AE00048BF760003F0E003402B42D009D893B101
:101AF000202B1AD040F29B21BDE8F8402C4801F081
:101B00000AB9602B42D0802BF4D106EB4603A342E6
:101B100047D801230DE0B6EB141F04D940F2812110
:101B2000234801F0F8F8102303E0B6EBD40F1AD8DD
:101B3000082373436401B4FBF3F4204F203CB7EB5C
:101B4000C40F4FEAC40604D240F2A621184801F09F
:101B5000E2F828463E40012101F028F92E63BDE855
:101B6000F84001F023B940F28621114801F0D3F882
:101B7000DEE70623B4FBF3F3B34201D30623D8E731
:101B800040F28B210A4801F0C6F8F7E7B6EB940F54
:101B900001D80423CDE74FF42471054801F0BBF8C8
:101BA000F7E740F29521024801F0B5F8B1E700BF30
:101BB000D62F00080000015B00000A50F8FF7F00EC
:101BC0002DE9F0419846436804460E4617461BB17E
:101BD00040F6FF7101F0EAF82046FFF7ABFEF1890D
:101BE000737B62690B43318A22F44C520B4322F01F
:101BF0000F0213436361A168337E327B21F0804181
:101C000021F0E2011A430A4371690A43A260B268F3
:101C10001AB9A26842F00042A260F069002874D0AC
:101C2000857A027A6D04A16845EA82556C4A0A40B9
:101C30001543828802F4C0421543427845EA820582
:101C4000427B45EAC205827B45EA0215827845EA75
:101C50008225A560D0E90421E5680A43614929404D
:101C60000A43817942EA8122C17942EA4122E26053
:101C700002785D49012A14D1E26842F00402E26070
:101C80008C4200F09180594A94420CBF01224FF0DF
:101C9000FF32520102F1A04242F2944102F5703249
:101CA00014E0032A7AD1E26842F00402E2608C4236
:101CB00078D04E4A94420CBF01224FF0FF3241F2DD
:101CC0009441520102F1A04202F5703202255550B2
:101CD000427A04F580518A621AB1E26842F40062E5
:101CE000E260C27A5AB1E26842F40042E2603E4ADF
:101CF00094425BD1027B3E4902F00F024A67626A5E
:101D0000C17B22F003020A4362623FB197F82020B0
:101D100004F58050002A53D001220262B8F1000F6E
:101D200027D004F5805113B14FF400438B652E4B3F
:101D3000B8F822009C4298F821304ED02B4A9442A9
:101D40000DD10122112B34BF01270227294DB0F5F7
:101D5000006FAF5494BF01270227274DAF54A26DE7
:101D6000034322F4F95222F01E021343A365012318
:101D70008B6505212046FFF707FEB2681AB12046A1
:101D80007168FFF737FE20463178FFF7FDFDA36C41
:101D9000DB4313F4405FFAD1BDE8F081023A012A37
:101DA00085D96DE700228AE7002272E70F4A944244
:101DB00001BF027B0E4902F00F02C1F880209EE7AE
:101DC000E16997F8222097F8215021F009012A4370
:101DD0000A4342F00102C261A0E70022B2E700BF5D
:101DE000E39BBDFFFFF9F0870000015B00000A5094
:101DF000009003505E2000205C20002070B5134B43
:101E0000054698420C4606D0114B984203D07021EB
:101E1000104800F080FF1CB972210E4800F07BFFD3
:101E2000237B802B03D176210A4800F074FF637B6B
:101E3000032B03D97921074800F06DFF00232146C9
:101E40002846BDE870401A46FFF7BABE0000015BA5
:101E500000000A50D62F000838B5032804460D4666
:101E600005D8094B33F81030CB40DB0704D44FF4CE
:101E70008661064800F04FFF302301225C43044B8B
:101E8000AA401A5138BD00BF563000080230000881
:101E900040D0035038B5032804460D4605D8094BF9
:101EA00033F81030CB40DB0704D440F20141064840
:101EB00000F031FF302301225C43044BAA401A5149
:101EC00038BD00BF563000080230000840E0035023
:101ED0002DE9F041032804460D461746984605D8DB
:101EE0001D4B33F81030CB40DB0704D44FF4B071F6
:101EF0001A4800F010FF37B129462046B8F1000F0C
:101F000020D0FFF7A9FF0F21072D04EB440688BF5F
:101F1000A5F108034FEA0616114895BFAB009B00D8
:101F200004360C3607FA03F29940304400F05CFFA7
:101F30007FB929462046B8F1000F06D0BDE8F04130
:101F4000FFF78ABFFFF7A6FFDDE7BDE8F041FFF727
:101F5000A1BFBDE8F08100BF563000082C3000085A
:101F600030C0035070B506460C46154622B940F203
:101F7000A6210C4800F0CFFE24B94FF42070FEF7E4
:101F800023FF04466D00013CB4FBF5F4064B25022B
:101F900013EA042304D040F2CB21024800F0BBFE38
:101FA000F56170BD5E300008070080FF10B5124B70
:101FB0000446984204D040F25E41104800F0ABFE67
:101FC000012104F58053596040F6AA6341F20502ED
:101FD000636100230A48A360E365E26004F50052F0
:101FE0002361E361E36490640348A365844204BF12
:101FF00023656365516010BD00C005505E30000868
:10200000FFFF010038B5284B044698420D4604D026
:1020100040F28131254800F07EFE2046FFF7C6FFE2
:10202000012304F5805253602B8AA16843F0010319
:102030000B43A97B43EA8123A360A368297D43EA7C
:102040004173A360AB7C4BB1174B9C4202BFE97C50
:10205000A3F51033C3F8C8118023D3652B7B20462A
:10206000D5E9011243F48053E360FFF77BFF6B7BFC
:102070000BB1102363616B7D1BB1A36843F4803304
:10208000A360AB7D1BB1A36843F40043A360EB7D69
:102090002A7E1B07120503F0E04302F4E00213431B
:1020A000A3652B78636138BD00C005505E30000821
:1020B000034B5A68D20702D5DA69002AF9D1704772
:1020C00000800A50054B9A689107FCD45A68920721
:1020D000F9D4DA69002AF6D1704700BF00800A50AF
:1020E00008B5FFF7E5FF0222014B1A6108BD00BFEA
:1020F00000800A5008B5FFF7E5FF0122024B03F507
:1021000080514A601A6108BD00800A5008B5044B2E
:102110005968012903D1FFF7E3FF024B596008BD5D
:1021200000800A5000A00A5010B5064CFFF7CAFF05
:102130006368012B03D1FFF7E9FFFFF7C3FF0378C3
:10214000E36010BD00800A50A8B94A680B78B2B9A4
:102150004A7843EA42038A6812B1127843EA82134A
:102160008A7843EA8203CA6812B1127843EA4223AA
:10217000054A936470477F21044800F0CCBD127873
:1021800043EAC203E4E700BF00800A508930000838
:1021900010B9044B596470474FF48971024800F03C
:1021A000BABD00BF00900A508930000810B9044B36
:1021B000596470474FF4A771024800F0ACBD00BFEE
:1021C00000A00A508930000810B9044B1964704708
:1021D0004FF4C571024800F09EBD00BF00A00A5038
:1021E0008930000808B510B9044B186C08BD0448C4
:1021F00040F2C51100F08FFD0020F7E700800A5083
:102200008930000808B520B949B101290AD0002059
:1022100008BD4FF41D71054800F07DFDF7E7044B44
:10222000D86CF5E7024B186DF2E700BF8930000863
:1022300000800A5018B939B1012908D0704740F21E
:102240001231044800F067BD034BDA647047024B5B
:102250001A6570478930000800800A5007B5094B9D
:1022600018689A889B7900906846ADF804208DF82C
:102270000630FFF7F1FA0C20FFF726FB002003B031
:102280005DF804FBC230000813B50024064A684616
:10229000536F43F00103536700948DF80440FFF738
:1022A0000FFA204602B010BD0040005030B58BB090
:1022B0006C46174D0FCD0FC40FCD0FC495E803002A
:1022C00084E80300134BD3F84C2112031CD5A3F56B
:1022D000FE431C884FF6FF739C4208BF8C248DF888
:1022E0001940FFF7B9F8204480F308008DF8180072
:1022F0000948FEF705FA6846FEF79CFF3220FFF713
:1023000019F900200BB030BDD3F85041E4B2E6E734
:10231000CC3000080080E00FC017530230B587B002
:10232000084D01AC0FCD0FC42B6801A823603F23DB
:102330008DF80530FFF796F83220FFF7F5F800200A
:1023400007B030BDF430000810B56FF00403502121
:102350000A480B4C13F0800F03F1010207D123440C
:102360004C2A83F800131346F4D1002010BD03F06B
:102370000F03043B034419761346EBE700ED00E03E
:1023800000E100E030B50E4C416123688BB920605C
:1023900083600DE0891A9A681D4641616AB113464F
:1023A0005A698A42F6D935B1A860521A83605A61D7
:1023B00030BD0025F4E72060F7E798608260F7E71A
:1023C0004C10002038B500F007FA0025084B094CE6
:1023D0001A682368C31A2AB123B15169994203D3F9
:1023E000C91A5161206038BD55615B1A9268F2E7E5
:1023F0004C1000204810002038B5134D2B685B6945
:1024000093B1124A022014681C4400F031FD2046AA
:1024100000F0EAF900230E492A680B70D088800783
:1024200009D501230B7038BD022000F021FD0220E8
:1024300000F024FAEEE79268002AF4D050690344D1
:10244000012BEBD9EFE700BF4C1000204810002013
:102450006120002070B516469DF81420C0E90336AF
:102460000271049ABDF818300260002204460D463D
:102470008260C380EEB900F0AFF92844A0619DB13D
:102480002E4600F081FC0546FFF79CFF31462046B2
:10249000FFF778FF104B1B68A34201D1FFF7ACFF99
:1024A000284600F075FC02E0E36865617BB9002016
:1024B00070BD00F091F93044A061002DE0D1E368D7
:1024C0006561002BDDD0204621689847D9E720467A
:1024D00021689847EBE700BF4C10002000220C4910
:1024E0000B687BB183420AD183687AB193608368B9
:1024F0001BB15A6941690A445A61002070471A4663
:102500009B68EEE70028EFD0022070470B60EEE7F3
:102510004C10002070B500F03EFC144E0546347897
:10252000FCB9134B1C60134B1C60134B1C8000F058
:1025300021F9012000F09CFC00F0BDFC0F4B02468D
:10254000186020B9284600F02CFC232070BD2346DB
:1025500040F2E7310A4800F0C5F90A4B1860012340
:102560003370284600F01DFC0020EFE762200020B9
:102570004C1000204810002058100020501000205F
:1025800018FCFFFF4410002038B50C460546A8B1E2
:10259000A1B100230B7000F0FEFB0121084B1B686A
:1025A00033B900F0FEFB002038BD9D4204D12170FC
:1025B0002278002AF9D0F4E79B68F1E72220F3E7BC
:1025C0004C10002038B50021044640F2E730054B9E
:1025D0004FF47A721D680023E5FB040100F082F9D4
:1025E00038BD00BF5010002000B58DB001238DF81C
:1025F0000F30FFF7E7FF00230146CDE90033074A1C
:102600000DF10F0304A800F00BFC18B99DF80F3072
:10261000002BFBD10DB05DF804FB00BF1B2E0008A2
:102620002DE9F843C20704460BD54E4A13880133FF
:102630009BB21380FFF7C6FE4B4B1B680BB1FFF735
:10264000DBFEA30740F18B8000F0A5FB4FF00008F4
:1026500005464646FFF7B6FE434F3C680CB163693A
:102660008BB10022414B012E1A7003D118F0020FDA
:1026700018BF1E70002C6ED0FFF7BEFE2846BDE8C6
:10268000F84300F08EBB23465A693AB91A7921798A
:10269000914288BF1C469B68002BF5D1284600F06C
:1026A00080FB2569DDB100F097F8A269A0EB020874
:1026B0004FEAE873A84573F1000311DB2369134463
:1026C000A361E368B4F80680013613B1204621689F
:1026D000984700F060FB0546FFF774FEBDE7A8468B
:1026E00000F059FB81462046FFF7F8FE484600F00F
:1026F00058FB2369002BE4D0B5EB08054FEAE873DB
:1027000063EB4303012D73F1000304DA40F22A5115
:10271000174800F000FBA38B33B1E28B13449BB24C
:10272000B3F57A7F0FD2E38300F035FB804629466C
:102730002046FFF727FEA369226940461344A361A0
:1027400000F02FFBBDE7A3F57A73E383A369013D96
:10275000013BA361E8E7022000F07EF88EE7BDE8C8
:10276000F88300BF581000204C100020602000208B
:102770000831000810B586B0002401213E20ADF8D4
:102780000810CDE903448DF804408DF80A40059403
:10279000FEF7F2FA01A8FFF7C7FC204602A98DF860
:1027A0000840FFF7D1FC20460F21FFF7FFFC0F2167
:1027B0002046FFF709FDFFF79DFCFFF779FC082293
:1027C000034B9C61034BC3F888219A6006B010BD8F
:1027D00000800A5000E100E008B5FFF769FC014BFA
:1027E000986908BD00800A50F8B5044600F0CCFA9C
:1027F0000746FFF75DFC154B9D6900F035FB06466B
:102800000020FFF7EFFC830704D4731B032B01D8D0
:10281000AE420FD10021631B022B98BFEC1C08466F
:10282000B4F1FF3F2CBF2246621EFFF703FD0220DA
:1028300000F01EFB384600F0ABFA054B1A7822B1C7
:102840000121044A916400221A70F8BD00800A50E8
:102850001510002000900A50830700F0010106D5F2
:102860000123044A41F002011370034A93640020DB
:10287000FFF79CBC1510002000A00A50830742BF40
:102880000222014B1A64704700900A5010B50446AA
:10289000FDF71AFF4FF47A729042B0FBF2F105D2C5
:1028A0003621BDE810400C4800F035BA0B4BB3FBA5
:1028B000F1F30B49884201D93C21F2E702FB04F015
:1028C000B0FBF3F0022806D9BDE810400323B0FBAB
:1028D000F3F0FDF74DBC10BD4531000840420F003C
:1028E000E7CD9A3B53B94AB9002908BF00281CBF5D
:1028F0004FF0FF314FF0FF3000F082B9ADF1080C1E
:102900006DE904CE00F006F8DDF804E0DDE902230D
:1029100004B070472DE9F04F099D0C46002B4DD1B6
:102920008A420F4684469646B2FA82F360D94BB18A
:1029300002FA03FEC3F120029F4000FA03FC20FAD2
:1029400002F217434FEA1E461FFA8EF44FEA1C426A
:10295000B7FBF6F106FB117701FB04F042EA0742F0
:10296000904208D91EEB020201F1FF3702D29042D9
:1029700000F231813946121A1FFA8CFCB2FBF6F0D4
:1029800006FB102200FB04F44CEA024C644508D913
:102990001EEB0C0C00F1FF3202D2644500F21E81E6
:1029A000104640EA0140ACEB040C002125B12CFAA2
:1029B00003F30022C5E90032BDE8F08F8B4205D950
:1029C0000DB1C5E9000100210846F5E7B3FA83F12E
:1029D00000294DD1A342C0F0F380904280F0F080F6
:1029E000064623460846002DE6D0C5E90063E3E726
:1029F000002B40F0A3808A1A4FEA1E471FFA8EF67A
:102A00000121B2FBF7F407FB14204FEA1C4242EA13
:102A1000004206FB04F090420FD91EEB020204F1C3
:102A2000FF382CBF4FF001094FF00009904203D945
:102A3000B9F1000F00F0CC804446121A1FFA8CFC4A
:102A4000B2FBF7F007FB102200FB06F64CEA024C43
:102A5000664508D91EEB0C0C00F1FF3202D2664528
:102A600000F2B3801046ACEB060C40EA04409DE750
:102A7000C1F120068B4004FA01FE22FA06F720FA83
:102A800006FCF4408A401F434EEA0C0300FA01FEA4
:102A90004FEA17484FEA13491FFA87FCB4FBF8F0D6
:102AA00008FB104449EA044400FB0CF9A1450ED987
:102AB0003C1900F1FF3A2CBF4FF0010B4FF0000B17
:102AC000A14503D9BBF1000F00F08B805046A4EB69
:102AD00009041FFA83F9B4FBF8F308FB134403FB62
:102AE0000CFC49EA0444A44506D93C1903F1FF381B
:102AF00001D2A4457BD8434643EA0040A4EB0C0432
:102B0000A0FB02984445CC46434602D306D1CE45AD
:102B100004D20138B9EB020C68EB0703002D6CD02E
:102B2000BEEB0C0264EB030422FA01F304FA06F68E
:102B3000CC4000211E43C5E900643DE702FA03FED4
:102B4000C3F1200104FA03F200FA03FCCC404FEA7F
:102B50001E4720FA01F11FFA8EF6B4FBF7F00A4384
:102B600007FB1044110C41EA044100FB06F48C42BF
:102B70000ED91EEB010100F1FF382CBF4FF0010907
:102B80004FF000098C4202D9B9F1000F2CD0404619
:102B9000091B92B2B1FBF7F407FB141142EA0142A0
:102BA00004FB06F1914207D91EEB020204F1FF3843
:102BB00001D291421ED84446521A44EA004120E70D
:102BC000861A64EB030301200DE7F44402384AE758
:102BD000023C724431E702397244CCE6F4440238D4
:102BE000DFE602383C4472E702387144D0E7023B2A
:102BF0003C4481E7023C7244DEE72946DCE600BF44
:102C0000704700BF08B5064B044613B10021AFF36F
:102C10000080044B1B6803B19847204600F07CF805
:102C2000000000005410002070B50D4D00260D4C22
:102C3000641BA410A64209D10B4D00260B4C00F0DA
:102C40005FF9641BA410A64205D170BD55F8043B82
:102C500001369847EEE755F8043B01369847F2E70E
:102C60001810002018100020181000201C10002040
:102C7000FDF718BB08B500F021F9FFF7F9FF00F0E8
:102C80002AF9FDF7FFFAFAE7704708B5FFF75CFB92
:102C900000F029F8FFF7E2FAFFF740FBFFF706FB29
:102CA000FDF78CFBFFF7F0FABDE8084000F010B824
:102CB000704708B500F00AF8BDE80840FFF72ABCE5
:102CC0007047704770477047704770470F207047D4
:102CD00008B501213A20FEF74FF8FFF7D5FFBDE810
:102CE0000840FDF7D1BB01213A20FEF745B8FEE7C9
:102CF00010B53AB1002350F8234041F82340013386
:102D00009A42F8D110BD002070474FF40040704740
:102D10004FF47A707047FEE7FEE770B5054614463B
:102D20000E4600F031F82B685C4034405C402C606B
:102D3000BDE8704000F02CB808B5FDF7D7FCBDE841
:102D400008400021FDF7ECBF0029CCBF0121002184
:102D5000FDF7E6BF02214FF42070FEF7F1BB10B57E
:102D6000FDF7B2FC0446FDF727FDC0F10201204645
:102D7000FFF7EAFF01210020FEF700FDFEF786FCC9
:102D8000BDE81040FEF722B9EFF3108072B670472D
:102D900000B962B67047EFF31180302383F31188D6
:102DA000704780F31188704770477047436D0B423E
:102DB000FCD1704708B54368DA0714D58368DB0790
:102DC00002D50369D90707D50A2350218363FFF78A
:102DD000EDFF836C9A07FCD1012200F500535A6085
:102DE00043689B07FCD408BD70B5054614460E46E3
:102DF000FFF7CAFF2B685C4034405C402C60BDE8A4
:102E00007040FFF7C5BF83695A06FCD5C16383696B
:102E10009B06FCD5406AC0B2704700230B70704718
:102E2000F0B587B01F4600230D46164604468DF8C0
:102E30001730A8B1C3610DF11701FFF7A5FB9DF88D
:102E400017207AB9BDF83430294602939DF8303006
:102E50002046CDE900733346FFF7FCFA07B0F0BD1A
:102E60002220FBE70320F9E700210846FFF7CAB953
:102E700000F00101830748BF41F002010020FFF785
:102E800087B938B5FFF787FF04460020FFF7AAF996
:102E9000830700F0010548BF45F0020500F003017B
:102EA0000020FFF791F92846FFF7BAFB2046BDE85E
:102EB0003840FFF776BF3E20FDF786BF08B5FFF725
:102EC000E4FEFFF7F5FEFFF7F4FEFFF7F9FEBDE8BD
:102ED0000840FFF7F6BE08B5FFF7F4FEFFF7F3FE74
:102EE000FFF7F2FEBDE80840FFF7EFBE02440346DD
:102EF000934200D1704703F8011BF9E7000000007E
:102F0000F8B500BFF8BC08BC9E467047F8B500BFD6
:102F1000F8BC08BC9E46704700000000000000009E
:102F200000000000000000000000000000000000A1
:102F30000000000000000000000000000000000091
:102F400068656C6C6F000000050000000000000068
:102F500000C201000002000000100000000000009C
:102F6000000000000000000005000000000000005C
:102F700040420F00050100000000000000000000BA
:102F800000000000433A2F6765636B6F5F73646BEB
:102F90002F706C6174666F726D2F656D6C69622F36
:102FA0007372632F656D5F636D752E6300433A2FF7
:102FB0006765636B6F5F73646B2F706C6174666FB2
:102FC000726D2F656D6C69622F7372632F656D5F13
:102FD000656D752E6300433A2F6765636B6F5F7392
:102FE000646B2F706C6174666F726D2F656D6C69A8
:102FF000622F7372632F656D5F6575736172742ED6
:103000006300633A5C6765636B6F5F73646B5C70EE
:103010006C6174666F726D5C656D6C69625C696E23
:10302000635C656D5F6770696F2E6800433A2F6758
:1030300065636B6F5F73646B2F706C6174666F7226
:103040006D2F656D6C69622F7372632F656D5F679D
:1030500070696F2E6300FF000F00FF033F00433ACB
:103060002F6765636B6F5F73646B2F706C61746641
:103070006F726D2F656D6C69622F7372632F656D52
:103080005F75736172742E6300433A2F6765636BDB
:103090006F5F73646B2F706C6174666F726D2F70ED
:1030A00065726970686572616C2F7372632F7065E9
:1030B000726970686572616C5F7379737274632E84
:1030C0006300010310010109030000000B00000070
:1030D0000C000000030000000000202000000000A1
:1030E000030000003C3C3C00000000000000000029
:1030F00000000000012600000400000000000000A5
:103100000001000000000000433A2F6765636B6F09
:103110005F73646B2F706C6174666F726D2F736573
:1031200072766963652F736C65657074696D65721D
:103130002F7372632F736C5F736C65657074696D48
:1031400065722E6300433A2F6765636B6F5F73642C
:103150006B2F706C6174666F726D2F736572766918
:1031600063652F7564656C61792F7372632F736C5F
:0C3170005F7564656C61792E63000000DF
:08317C008CD0FF7F0100000070
:0C3184009031000800100020080000003E
:10319000C0EA2101C0EA210100800000C0175302EB
:1031A000FFFFFFFF28010000E5010008BD01000846
:04000005080005BD2D
:00000001FF
