S010000073696C6D6F74696F6E2E73333706
S31508000000001000203504000839280008392800089F
S31508000010392800083928000839280008392800082E
S31508000020392800083928000839280008392800081E
S31508000030392800083928000839280008392800080E
S3150800004039280008392800083928000839280008FE
S3150800005039280008392800083928000839280008EE
S3150800006039280008392800083928000839280008DE
S3150800007039280008392800083928000839280008CE
S3150800008039280008392800083928000839280008BE
S3150800009039280008392800083928000839280008AE
S315080000A03928000819070008F90600083928000841
S315080000B0392800083928000839280008392800088E
S315080000C0392800083928000839280008392800087E
S315080000D0392800083928000839280008392800086E
S315080000E0392800083928000839280008392800085E
S315080000F0392800083928000839280008392800084E
S31508000100392800083928000839280008392800083D
S31508000110392800083928000839280008392800082D
S31508000120392800083928000839280008392800081D
S31508000130392800083928000839280008392800080D
S3150800014039280008392800083928000839280008FD
S3150800015039280008392800083928000839280008ED
S3150800016039280008392800083928000839280008DD
S31508000170013800D0FCE770470348044B834202D09D
S31508000180034B03B118477047A8110020A811002097
S3150800019000000000064B0749C91A891048BF0131FB
S315080001A0491003D0044B0BB101481847704700BFEC
S315080001B0A8110020A81100200000000010B5064C68
S315080001C0237843B9FFF7D8FF044B13B10448AFF3BC
S315080001D000800123237010BD841100200000000058
S315080001E0042F000808B5054B1BB105490548AFF3B0
S315080001F00080BDE80840FFF7CDBF00BF0000000043
S3150800020000100020042F0008A3F5803A704700BFAD
S31508000210174B002B08BF134B9D46FFF7F5FF002130
S315080002208B460F461348144A121A02F094FB0E4BDB
S31508000230002B00D098470D4B002B00D09847002084
S31508000240002104000D000D48002802D00C48AFF329
S31508000250008002F0A3FA2000290002F0C5FA02F095
S315080002608BFA00BF00000800000000000000000034
S315080002700010002000100020881100200000000057
S315080002800000000008B5044802F043FB02F0B6FA85
S31508000290BDE8084000F008B8282E0008014802F01A
S315080002A038BB00BF282E00082DE9F04796B0534EFC
S315080002B009AC35460FCD0FC42B6806F1140523602B
S315080002C00EAC0FCD0FC495E80F00DFF8488184E81F
S315080002D00F004B4802F01DFB404602F01AFB4FF494
S315080002E08073484FADF83C30474B38460B9309A905
S315080002F00EAB0D9301F074FE04210225B6F834A066
S315080003000DEB01000122ADF804A000F057F9B6F88C
S3150800031036900022012102A8ADF8089000F04EF9A7
S31508000320368F0122042103A8ADF80C6000F046F9C7
S315080003300122042104A8354CADF8105000F03EF90E
S31508000340334B4FF44870C4F8C8344FF00213C4F85E
S31508000350C43403F58033C4F8CC341C23C4F8B4344D
S3150800036002F0DEF908A8ADF8205000F097F914203D
S3150800037002F0D6F908A8ADF8205000F061F923205C
S3150800038002F0CEF908A8ADF8205000F087F9B92197
S31508000390384602F0A3FA08A8ADF8205000F050F944
S315080003A0002205A81146ADF814A000F007F90022AE
S315080003B006A81146ADF8189000F000F901220021B0
S315080003C007A8ADF81C6000F0F9F80122002108A87A
S315080003D0ADF8205000F0F2F8384601F0BBFC0023D7
S315080003E04046C4F8B434C4F8C834C4F8C434C4F8AD
S315080003F0CC3402F091FA16B0BDE8F087582B000805
S31508000400282E000800000A50E070720000C0035051
S31508000410020001002C2E00080348044A0449121A57
S31508000420921002F00ABA00BF7001000870010008B5
S315080004308811002008B500F02FF8FFF7EDFF124BE2
S3150800044012498B4212D30020114B12498B4218D302
S31508000450FFF7DEFE186850F82240586840F8224038
S31508000460013298688242F5D30C33EAE70022F8E7AE
S315080004701C6844F8220001325C68A242F8D30833AB
S31508000480E4E70022F8E700BF0C2F0008182F000841
S31508000490182F0008182F000870B54FF48041124B2A
S315080004A0124A134D9A60D3F8882005F5005442F491
S315080004B07002C3F888200F4A91664FF0FF32226611
S315080004C00D4A62660222C3F8D020BFF34F8FBFF3EE
S315080004D06F8F4FF44036002002F0D2F80020E66015
S315080004E002F09CF82E6170BD00ED00E000000008E7
S315080004F00080004400900050F7FF3700014B186059
S31508000500704700BF8C110020054B1860054B1B6F08
S3150800051003F00703032B01D102F04CBA704700BF62
S3150800052094110020008000502DE9F0410C25044666
S315080005304FF00108124E0CB314F001000BD0002046
S3150800054024F0010405FB00625768002FF3D0916878
S31508000550C0B2B847EFE72246013020284FEA5202D8
S3150800056001D0D307F8D508FA00F20F2824EA0204C6
S31508000570E8D9103805FB0062B432E5E7BDE8F0813A
S315080005801810002008B50C4802F0C3F9192002F02B
S315080005905FF828B1192002F073F8192002F03EF826
S315080005A01A2002F055F828B11A2002F069F81A2024
S315080005B002F034F8002008BD282E00082DE9F04185
S315080005C00E461746044638B991211A4802F042F9F0
S315080005D022252846BDE8F0810F290CD8037883B177
S315080005E0013BDBB2022B06D8134A32F81330627885
S315080005F0D340DB0707D495210E4802F02BF92125B5
S31508000600E7E7FF23F3E70D4BD3F810532DB19921F4
S31508000610084802F01FF90225DBE702F07DFA80465A
S315080006203A462046314601F017FE404602F06FFA78
S31508000630CFE700BF922B0008E82B000800C0035044
S3150800064038B5044628B91348E22102F003F92220F6
S3150800065038BD037883B1013BDBB2022B06D80E4ABC
S3150800066032F813306278D340DB0707D40948E6210D
S3150800067002F0F0F82120EBE7FF23F3E702F04CFA4B
S315080006800546204602F008FA284602F040FA0020FD
S31508000690DEE700BF922B0008E82B000838B50446B1
S315080006A028B91348FA2102F0D5F8222038BD037874
S315080006B083B1013BDBB2022B06D80E4A32F813305F
S315080006C06278D340DB0707D40948FE2102F0C2F856
S315080006D02120EBE7FF23F3E702F01EFA0546204642
S315080006E001F084FD284602F012FA0020DEE700BF7A
S315080006F0922B0008E82B000808B501F0A3FD054B6E
S3150800070000F0553020F05020C3F82004BDE808401A
S31508000710FFF70ABF00E0035008B501F093FD054B4B
S3150800072000F0AA3020F0A020C3F82004BDE8084055
S31508000730FFF7FABE00E00350044BD3F88420D20634
S31508000740FBD4D3F88400C0F38110704700400050F2
S3150800075038B5104B0546D3F800310C4603F00303B1
S31508000760022B0BD0032B0DD0012B0FD102F03CF935
S31508000770032305B1286004B1236038BD02F086F969
S315080007800923F6E702F036F90823F2E701230020E9
S31508000790EFE700BF0080005038B5104B0546D3F888
S315080007A040310C4603F00303022B0BD0032B0DD06C
S315080007B0012B0FD102F09CF90A2305B1286004B178
S315080007C0236038BD02F062F90923F6E702F093F9CF
S315080007D00C23F2E701230020EFE700BF008000505A
S315080007E038B5104B0546D3F860310C4603F00303C1
S315080007F0022B0BD0032B0DD0012B0FD102F078F969
S315080008000A2305B1286004B1236038BD02F03EF919
S315080008100923F6E702F06FF90C23F2E7012300201B
S31508000820EFE700BF0080005038B5104B0546D3F8F7
S3150800083040320C4603F00303022B0BD0032B0DD0DA
S31508000840012B0FD102F054F90A2305B1286004B12F
S31508000850236038BD02F01AF90923F6E702F04BF9CE
S315080008600C23F2E701230020EFE700BF00800050C9
S3150800087038B5124B0546D3F880300C4603F003030F
S31508000880022B0BD0032B0DD0012B0FD102F072F8DF
S315080008900E2305B1286004B1236038BD02F0AEF816
S315080008A00723F6E702F060F80623F2E7044841F268
S315080008B0142101F0CFFF00231846EAE70080005014
S315080008C0EE2B000838B51A4B0546D3F820010C461E
S315080008D000F00700062821D8DFE800F028040C14E9
S315080008E010181C0002F040F8052305B1286004B171
S315080008F0236038BD02F078F80323F6E702F07EF8A5
S315080009000723F2E702F06CF80223EEE702F02CF870
S315080009100623EAE702F068F80423E6E7054841F209
S31508000920912101F097FF00231846DEE70123DCE753
S3150800093000800050EE2B000838B5194B0546D3F851
S3150800094028310C4603F00703013B052B20D8DFE8C6
S3150800095003F003131B0F0B1702F006F8052305B166
S31508000960286004B1236038BD01F0FEFF0623F6E7D0
S3150800097002F044F80723F2E702F036F80323EEE71D
S3150800098002F032F80423EAE702F02AF80223E6E73F
S31508000990044841F2990101F05DFF00231846DEE79D
S315080009A000800050EE2B000837B500230193194B41
S315080009B00546D3F820320C4603F00703042B1FD84C
S315080009C0DFE803F025030F141900002101A8FFF73B
S315080009D0B3FF12230DB1019A2A6004B1236003B054
S315080009E030BD02F00BF807230190F3E702F080F818
S315080009F00A230190EEE702F049F809230190E9E796
S31508000A0041F25601044801F025FF0023E2E70123DD
S31508000A10E0E700BF00800050EE2B0008F7B500277E
S31508000A20144B0197D3F88041064604F00304022CC0
S31508000A300D4614D0032C0DD0012C14D1394601A82B
S31508000A40FFF740FF10240EB1019B336005B12C60FF
S31508000A5003B0F0BD01F0D2FF07240190F3E701F0DF
S31508000A60BFFF0190EFE741F2E631034801F0F2FEDD
S31508000A703C46E8E700800050EE2B000838B5164BD8
S31508000A800546D3F800020C4600F00700042819D8DA
S31508000A90DFE800F020030B0F130002F029F80A2301
S31508000AA005B1286004B1236038BD01F0EFFF0923C2
S31508000AB0F6E702F020F80C23F2E701F07BFF0F239C
S31508000AC0800AEDE7054841F2A44101F0C3FE002380
S31508000AD01846E5E70123E3E700800050EE2B0008FF
S31508000AE038B5164B0546D3F808020C4600F0070041
S31508000AF0042819D8DFE800F020030B0F130001F0D3
S31508000B00F7FF0A2305B1286004B1236038BD01F058
S31508000B10BDFF0923F6E701F0EEFF0C23F2E701F02B
S31508000B2049FF0F23800AEDE7054841F2DC4101F051
S31508000B3091FE00231846E5E70123E3E7008000500D
S31508000B40EE2B000837B500230193184B0546D3F85A
S31508000B5060320C4603F00703013B032B1FD8DFE87E
S31508000B6003F0020E1914002101A8FFF7ABFE1023AB
S31508000B700DB1019A2A6004B1236003B030BD00218B
S31508000B8001A8FFF709FE1123F2E701F037FF072353
S31508000B900190EDE701F024FF02230190E8E741F216
S31508000BA0FD01034801F056FE0023E1E700800050EE
S31508000BB0EE2B000837B500230193184B0546D3F8EA
S31508000BC094320C4603F00703013B032B1FD8DFE8DA
S31508000BD003F0020E1914002101A8FFF773FE102373
S31508000BE00DB1019A2A6004B1236003B030BD00211B
S31508000BF001A8FFF7D1FD1123F2E701F0FFFE072355
S31508000C000190EDE701F0ECFE02230190E8E741F2DE
S31508000C103011034801F01EFE0023E1E70080005072
S31508000C20EE2B000873B500240F4B0194D3F87032ED
S31508000C30064603F00303012B0D4607D0022B11D0FD
S31508000C4041F25B11094801F005FE04E0214601A8BE
S31508000C50FFF7A2FD11240EB1019B336005B12C608C
S31508000C6002B070BD1524F6E700800050EE2B000890
S31508000C7008B5334B98424FD027D8324B984245D0C7
S31508000C8017D8314B98423ED00AD838B12F4B9842E4
S31508000C9039D041F2BB312E4801F0DCFD002034E0AA
S31508000CA02C4B98422FD02C4B9842F2D12B4B586E96
S31508000CB02BE02B4B98422CD003F5371303F5D8635A
S31508000CC09842E6D1254B986F1FE0264B98422FD0C5
S31508000CD00CD8254B984223D0244B984224D0244B39
S31508000CE09842D6D11D4BD3F884000EE0214B98428A
S31508000CF022D003F5740303F510539842C9D1174B54
S31508000D00D3F8980001E0154B986D08BD134B186F82
S31508000D10FBE7124B586FF8E7104BD3F88000F4E75F
S31508000D200E4BD3F88800F0E70C4BD3F88C00ECE7B1
S31508000D300A4BD3F89000E8E7084BD3F89400E4E7A9
S31508000D4080BA8C01405DC60080841E0040420F00B8
S31508000D50EE2B000800093D00C0CF6A000080E00FB6
S31508000D600024F400007E560380D54302006CDC02A2
S31508000D700048E8010090D00310B5B0F5207F2ED0CA
S31508000D8009D8B0F5007F24D003D868B1B0F5C07F84
S31508000D900AD000241BE0B0F5607FFAD1124BD3F8D5
S31508000DA08040C4F3011412E00F4B1C6F230B13F0A1
S31508000DB00E0FC4F303340AD0072C08D00F2C06D024
S31508000DC0032C04D04FF42271084801F043FD601C3F
S31508000DD010BD054BD3F89040C4F30464F7E7024B03
S31508000DE01C6FC4F38024F2E700800050EE2B000845
S31508000DF038B54FF48032104B04469A6600200D46EB
S31508000E00FFF7BAFF41F671320C4B6043DC69DA63CF
S31508000E105A6804F4803422F440125DB908498842BD
S31508000E2094BF00200120000502435A600CB100223D
S31508000E30DA6338BD0349F2E700900050000003501A
S31508000E40005A6202002D310138B5430904460D46A1
S31508000E500ED140F235310D4801F0FCFC002304F0B8
S31508000E601F0485B103F580530122A2401A6038BDDC
S31508000E70012B04D0022B04D040F24331EBE7044B9C
S31508000E80EDE7044BEBE703F50053EDE7EE2B00081F
S31508000E90648000506880005030B585B00021B0F5F8
S31508000EA0807F0446CDE9001100F0D3803DD85E2846
S31508000EB033D85E2833D8DFE800F04832323232328F
S31508000EC032323232323232323232323232323232F4
S31508000ED03232323232323232323248AD48ADBDBDAC
S31508000EE0BDBDBDADC7516EDD51ADADAD323232328D
S31508000EF032323232ADADAD81E7AD323232323232D4
S31508000F0032323232323232BD484848E25151EC90E0
S31508000F1066C2323232323298480080286AD040F2AD
S31508000F20A441604801F096FC67E0B0F5D06F00F088
S31508000F30A18035D8B0F5607F77D01AD8B0F5007F94
S31508000F405ED005D8B0F5C07FE9D101F033FD53E096
S31508000F50B0F5207F5ED0B0F5407FE0D101F02AFDE4
S31508000F6004464FF42070FFF707FFB4FBF0F464085B
S31508000F7059E0B0F5B06F67D00AD8B0F5806F59D090
S31508000F80B0F5A06FCBD100216846FFF70DFD34E020
S31508000F90B0F5C06FC3D100216846FFF7FDFB2CE012
S31508000FA0B0F5106F6BD00ED8B0F5086F76D0B6D8FE
S31508000FB0B0F5E06F68D0B0F5F06FB0D100216846A3
S31508000FC0FFF70EFC19E0B0F5406F38D00AD8B0F537
S31508000FD0206F5ED0B0F5286FA1D100216846FFF7D3
S31508000FE021FE0AE0B0F5486F99D100216846FFF75F
S31508000FF0E1FD02E001F0BEFC0090009805B030BDAE
S3150800100001F0B8FC05462046FFF7B6FEB5FBF0F53D
S315080010100095F2E701F0CEFC04464FF42070FFF786
S31508001020ABFEB4FBF0F40094E7E701A8FFF720FC59
S31508001030019DE8E700216846FFF744FCDDE700214B
S315080010406846FFF779FCD8E700216846FFF7E6FC13
S31508001050D3E74FF0E02302911B695B0705D501F042
S31508001060A9FC0290029B0093C7E703A902A8FFF711
S3150800107093FBF7E700216846FFF700FDBDE700216F
S315080010806846FFF72DFDB8E700216846FFF7CCFB59
S31508001090B3E700216846FFF755FDAEE76846FFF758
S315080010A057FBAAE7EE2B000808B58020FFF7F4FEE9
S315080010B0034B98429EBF4FF48032024B1A6708BD15
S315080010C0005A620200A000501FB503460020B3F57F
S315080010D0807F019000F0C58063D85D2B54D84C2BD7
S315080010E006D82D2B46D8232B2AD840F28951A7E0BB
S315080010F04D3B102BF9D801A252F823F059120008DB
S31508001100EB100008EB100008EB10000803120008AB
S31508001110EB100008EB100008B312000821120008B3
S31508001120C7110008A9120008EB100008EB10000808
S31508001130EB100008EB100008EB100008BD120008C1
S31508001140243B092BD1D801A252F823F059120008E2
S3150800115059120008591200085912000859120008B5
S31508001160EB10000849120008EB100008E31100080C
S315080011708F1200083D2B00F085803E2BB5D100204C
S3150800118001A9FFF751FB63E0802BAED14E4B1B6FD5
S3150800119003F00703013B032B50D8DFE803F04D4665
S315080011A0494BB3F5F06F6DD020D8B3F5B06F4BD07F
S315080011B00ED8B3F5607F73D097D3B3F5806F4BD055
S315080011C0B3F5A06F91D1002001A9FFF7EDFB3FE031
S315080011D0B3F5D06F5BD0B3F5E06FD0D0B3F5C06F81
S315080011E083D1002001A9FFF7D7FA31E0B3F5206FC4
S315080011F05FD00BD8B3F5086F4ED0B3F5106F7FF4F8
S3150800120074AF002001A9FFF76BFC21E0B3F5406F2E
S315080012104AD0B3F5486F51D0B3F5286F7FF465AF60
S31508001220002001A9FFF7FEFC12E0052301930FE059
S315080012300323FBE70823F9E70223F7E740F2D64141
S31508001240224801F007FB03E0002001A9FFF7E6FBAF
S31508001250019805B05DF804FB002001A9FFF732FBF1
S31508001260F6E74FF0E02302901B695B0705D501F00E
S31508001270A1FB0D230393039BD8E703A902A8FFF755
S315080012808BFAF8E7002001A9FFF7AAFAE0E70020A1
S3150800129001A9FFF7F3FBDBE701A9FFF759FAD7E73F
S315080012A001A9FFF7E5FAD3E7002001A9FFF744FBF8
S315080012B0CEE7002001A9FFF745FCC9E7002001A9F0
S315080012C0FFF778FCC4E700BF00800050EE2B00084B
S315080012D04FF48032074B0849586E03F580535A6617
S315080012E04B6A23F001034B62C3035CBF034B5A6688
S315080012F0704700BF0080005000C0075000A0005093
S3150800130038B5036804460F2B04D940F68A317C4861
S3150800131001F0A0FA63680F2B04D940F68D3178489E
S3150800132001F098FAA3680F2B04D94FF43961744871
S3150800133001F090FA237B0F2B04D940F693317048BD
S3150800134001F088FA637B0F2B04D940F696316C4876
S3150800135001F080FAA37B3F2B04D940F699316848FF
S3150800136001F078FAE37B3F2B04D940F69C316448B8
S3150800137001F070FA2369032B04D940F69F316048BF
S3150800138001F068FA6369032B04D940F6A2315C4878
S3150800139001F060FAE369032B04D940F6A5315848F1
S315080013A001F058FA8020FFF78FFE032800F08380AB
S315080013B04FF48012534B4FF0A0615A6645F60E0261
S315080013C0514BC3F88020514A91624FF4803102F59F
S315080013D0805291629A6DD203FCD4996D11F08041C6
S315080013E0FBD1D4E90002120542EA0062E07B02431F
S315080013F0207B42EA0042607B42EA0032A07B42EA56
S3150800140080121A619869D4E90452120642EA856282
S3150800141000F000400243A07EE57E0243207E42EAB9
S315080014200042607E42EA00229A611A6AE06922F066
S315080014300F0242EA8502364D00283DD11A6294F819
S315080014402420996A94F82000D200294042EA4012E2
S315080014500A4394F8211042EA011242F480329A6251
S315080014602C49294A936D31EA0303FBD14FF0807169
S31508001470264881621369A56823F4700343EA055375
S3150800148013614FF00043836194F822300BB9224B65
S31508001490996294F823303BB94FF480321E4B9A6216
S315080014A0194A936D5B00FCD494F825301BB1164B92
S315080014B01A4AC3F8802038BD024342F008020228BF
S315080014C01A6208D119614FF40852996114484FF409
S315080014D07F4101F0C1F90C4994F822308A6A94F8E0
S315080014E020001B062A4043EA4013134394F824209D
S315080014F043EAC20394F8232043EA02438B62D3E704
S31508001500EE2B0008009000500040005A0050005A88
S31508001510C7FFFEFE030001000060005AF1A7FFFFA7
S315080015203440005A014B93F9000070479C11002083
S3150800153010B543680446072B04D940F6E6512A48F5
S3150800154001F088F9A368032B04D940F6E851264828
S3150800155001F080F92378032B04D940F6EA51224892
S3150800156001F078F994F90130002B04DA40F6EC51D1
S315080015701D4801F06FF94FF400011C4A6378516663
S315080015804FF4D151022002F5B832516218494F2B57
S3150800159048604FF0010028BF4F2301F5805148608D
S315080015A01169C903FCD4217843EA01235361D4E9BC
S315080015B001131B0143EA0123617B0B43217B43EAA9
S315080015C041039360E37BA17B1B0143EA4113617CE2
S315080015D00B43217C43EA41035360A37C13B16FF4A8
S315080015E0D153536210BD00BFEE2B00080090005087
S315080015F000100250014B1880704700BF9A11002056
S31508001600014B1880704700BF9811002008B54FF4A9
S315080016108002184B5A660223174A5360936813F4DC
S315080016208033FBD1012822D101F0DEF9134B984211
S3150800163015D003F5122303F5F863984213D0104B1F
S3150800164000EB8002400AB3FBF0F3520A0A49CA6269
S315080016500B6301234B620022074B5A6008BD45F60F
S315080016607A13084AF2E745F61A03074AEEE7536281
S31508001670F1E700BF009000500040025000F0490218
S3150800168064666666D8B80500BBCF050038B5B0F500
S31508001690207F77D00ED8B0F5007F61D003D890B3FD
S315080016A0B0F5C07F2FD04FF44671BDE838403D48AD
S315080016B001F0D0B8B0F5607FF5D13B4A4C1ED2F8A0
S315080016C0FC5015F080751EBFD2F8FC3023F08073ED
S315080016D0C2F8FC30032C04D940F2F721314801F056
S315080016E0B9F8324AD2F8803023F0300343EA0413BB
S315080016F0C2F8803035B12C4AD2F8FC3043F08073FA
S31508001700C2F8FC3038BD4C1E012C0AD9102903D862
S31508001710274BCB40DB0704D440F2CB21214801F00C
S3150800172099F801F0A8F801F0B4F84FF48031214B8C
S315080017301E4A1967136F23F4704343EA0433136789
S3150800174001F038F90446FEF7F7FFC0F1020120461A
S3150800175001F099F800F048F8BDE83840FFF7A4BC56
S315080017604C1E1F2C04D94FF443710E4801F072F831
S315080017700E4AD2F8903023F0F85343EA0463C2F8CD
S315080017809030BFE74C1E012C04D940F212310548AF
S3150800179001F060F8054A136F23F4806343EA842353
S315080017A01367AFE7EE2B000800ED00E0008000505D
S315080017B0100101000090005008B50121022000F038
S315080017C099F94FF42070FFF7D7FA054B187001F016
S315080017D052F801F05EF84FF48032024B1A6708BDE2
S315080017E0851100200090005008B54FF4C070FFF72F
S315080017F053FBBDE808400449884294BF01210221F1
S315080018004FF42070FFF742BF80F0FA0238B504465D
S3150800181001F0D0F80546FEF78FFFC0F10201284611
S3150800182001F031F80121002000F0B8F92CB1FFF7DA
S31508001830DBFFBDE83840FFF737BC034B4FF4207099
S315080018401978FFF723FFF4E7851100202DE9F04109
S315080018500546FFF70DFA431E0333044604D940F63E
S31508001860E2113B4800F0F6FF4FF4C022394B5A66A6
S3150800187003F598335A68012A04D137494A605A68E9
S315080018809207FCD48020FFF71FFC052807D100F03B
S31508001890F2FF00F0FEFF4FF480322E4B1A672F4BF3
S315080018A024F040749D4239D02D4B9D4239D001F029
S315080018B05BF88542064603D90121284600F06EF9F1
S315080018C0284FFB6813F0060FFBD1D7F80880BC60D9
S315080018D0BB68634013F4F81F26D12846FEF70EFEB0
S315080018E08020FFF7F1FB052814D101F063F8A84220
S315080018F0044604D940F63B21154800F0ABFFFEF735
S315080019001BFFC0F10201204600F0BDFFFFF76CFF88
S31508001910FFF7CAFBAE4213D2BDE8F08144F000746B
S31508001920C5E744F08074C2E740F62A21084800F06B
S3150800193091FF8020C7F80880FFF7C6FB052805D069
S31508001940BDE8F0410121002000F028B93546CCE772
S31508001950EE2B00080090005000E0015040420F00B6
S3150800196080841E000000015070B54E4B0546984213
S3150800197073D041D8A3F5B703A3F55863984265D049
S3150800198033D8494B494E984251D017D8002877D0BA
S3150800199041F2DE11464800F05DFF40F68671444884
S315080019A000F058FF4FF40022404B5A663E4B9D42CA
S315080019B076D000243F4A954236D05DE03D4B9842AA
S315080019C027D03D4B9842E3D13C4BD3F8A040621E4A
S315080019D0033224F040744CD940F68671344800F03E
S315080019E039FF4FF400237366E4E7354B9842CFD1AD
S315080019F0324BD3F8BC402CE0324B984231D0324BB4
S31508001A00984232D0314B9842C2D12C4BD3F8C840B9
S31508001A101FE02A4BD3F8A040621E033224F040741C
S31508001A20DAD84FF40023736644F0807424E0234B1D
S31508001A30D3F8A040621E033224F040742AD84FF42B
S31508001A4000237366234643F0007415E01B4BD3F856
S31508001A50B840621E154E0332BBE7184BD3F8C04098
S31508001A60F7E7164BD3F8CC40F3E7144BD3F8D0403E
S31508001A70EFE74FF4002373664FF0B442946070BDED
S31508001A8040F686710A4800F0E5FE4FF400232C461E
S31508001A907366F1E740F68671054800F0DBFECEE78F
S31508001AA00023D0E7C0EA210140420F000090005011
S31508001AB0EE2B000880841E0000093D000080E00F20
S31508001AC00024F4000048E801005A620280BA8C013A
S31508001AD0024A536B0342FCD1704700BF00400950CD
S31508001AE0034A0179D36E23F030030B43D36670475C
S31508001AF000400050F8B50446244BD3F88420D0069D
S31508001B00FBD4D3F88430C3F381139C423CD000F055
S31508001B1031FF012C05460BD11D4B984204D94FF4D1
S31508001B20F7611C4800F096FE0121284600F0ABFE3E
S31508001B3000F0E9FF4FF00072174B07465A66204639
S31508001B4000F0ACFE4FF48063104E621E934033677C
S31508001B50736E9A0103D4D6F884309B060AD53846A4
S31508001B6000F0CCFF022C0FD12846BDE8F840002132
S31508001B7000F089BED6F884309906E9D540F2C671D8
S31508001B80044800F067FEE3E7F8BD00BF00400050D8
S31508001B90005A62023C2C00080060005010B50C4642
S31508001BA008B900F0E7FE074B21461B783BB1064B08
S31508001BB0984204D80120BDE81040FFF79BBF0220D9
S31508001BC0F9E700BF86110020005A620238B54FF0C7
S31508001BD00042244B244C5A664AF6CD33656C0146BE
S31508001BE005F00105236428BB0120FFF771FF636830
S31508001BF0DB0715D51D4B586008461D4B226BD207CF
S31508001C000CD4984208D1072415B1174B194A1A64FF
S31508001C1000F045FE204638BD0130EFE79842F2D085
S31508001C200024F1E70132236B13F0080305D08A423A
S31508001C30F8D1E8E700220E49F5E78A42E3D02021E9
S31508001C400A4A91620121A2F5805251600649084A62
S31508001C50886A800603D49342D5D00133F8E79342C5
S31508001C60DDE700BF009000500040095000600950B1
S31508001C7040420F003254FFFF38B54FF00042164B72
S31508001C8001465A664AF6CD33144C154A656C2364E8
S31508001C9043780B205B0043F00103D363FFF718FF7B
S31508001CA063688A7823F4F87343EA02136360CA7890
S31508001CB04B7943EA0223A3600A798B7943EA022324
S31508001CC023610878FFF782FFEB0744BF054B2364BF
S31508001CD000F0E5FD012038BD009000500040095095
S31508001CE0004000503254FFFF70B50F28044605D94E
S31508001CF040F67B61124800F0ADFD0F244FF000421C
S31508001D00104B11495D6E03F580535A664AF6CD337A
S31508001D104E6C80200B64FFF7DBFE0B6A23F00F0383
S31508001D2023430B62F30744BF084B0B64002DA2BF85
S31508001D304FF00042064B5A6600F0B1FD70BD00BF79
S31508001D403C2C000800800050004009503254FFFF28
S31508001D5000A0005010B500F0A7FD042300F580513F
S31508001D6000F500520B6113610B6113610B6113617E
S31508001D700B611361202341F2020103610023C36052
S31508001D80836041614FF4A0218361836541620549FF
S31508001D90C36103628362C36243630365D1640363F9
S31508001DA010BD00BFFF3F0D0338B5174B04469842D8
S31508001DB00D4607D0154B984204D040F269111448D5
S31508001DC000F048FD25B92046BDE8384000F06CBD56
S31508001DD0012204F580535A6040F6FF71204605F04B
S31508001DE00F0200F05DFDA263782100F059FD05F0B1
S31508001DF001036A0748BF43F00203A26C02F003021C
S31508001E009A42FAD138BD00BF0000015B00000A50B3
S31508001E108A2C0008F8B505460C46164622B940F243
S31508001E2027216B4800F016FD6A4B9D4202D19CB9EA
S31508001E3056240DE0684B9D4247D040F22A2164485B
S31508001E4000F008FD44B940F27931614800F002FD1E
S31508001E502046FFF721F80446AB68D80745D5B442B3
S31508001E6004D24FF40D715A4800F0F4FCB4FBF6F4B2
S31508001E706F68013CFF2C07F0010704D94FF40F7176
S31508001E80534800F0E7FC24064FB32821284600F003
S31508001E9007FDAB6C99071CD1AB6CDA071BD4AE6C8B
S31508001EA016F0020619D140F24921494800F0D2FC41
S31508001EB0284600F0F9FC2B69314623F07F4323437B
S31508001EC02B61BDE8F840FFF76FBF002CC4D157243B
S31508001ED0BEE70526ECE70926EAE70626E8E72B69C2
S31508001EE023F07F4323432B61F8BD6B68012B04D095
S31508001EF04FF41771364800F0ADFCAB6DDB07AB68E5
S31508001F0048BF760003F0E003402B42D009D893B1CE
S31508001F10202B1AD040F29E21BDE8F8402C4800F04C
S31508001F2099BC602B42D0802BF4D106EB4603A34222
S31508001F3047D801230DE0B6EB141F04D94FF42171DD
S31508001F40234800F087FC102303E0B6EBD40F1AD819
S31508001F50082373436401B4FBF3F4204F203CB7EB2A
S31508001F60C40F4FEAC40604D240F2A921184800F06B
S31508001F7071FC28463E40012100F092FC2E63BDE824
S31508001F80F84000F08DBC40F28921114800F062FC4F
S31508001F90DEE70623B4FBF3F3B34201D30623D8E7FF
S31508001FA040F28E210A4800F055FCF7E7B6EB940F8D
S31508001FB001D80423CDE740F29321054800F04AFCF6
S31508001FC0F7E74FF42671024800F044FCB1E700BF7A
S31508001FD08A2C00080000015B00000A50F8FF7F0009
S31508001FE0F8B57B4B044698420E4606D0794B984284
S31508001FF003D0E221784800F02DFC1EB9E42176488A
S3150800200000F028FC727BB3687AB1744A934203D90C
S31508002010E621714800F01EFC3369C3B1DB7BB3B11E
S31508002020E9216D4800F016FC11E06D4A934203D988
S31508002030EC21694800F00EFC336943B11A7F32B1CE
S31508002040B168684A5B7F914278D9042B78D863686F
S31508002050356923B140F6FF71204600F021FC204681
S31508002060FFF778FE2269737BB17B22F087020B4368
S31508002070134343F080032361002D63D02369297F2E
S3150800208023F0F80343EAC1132978EA7B0B4329793D
S3150800209043EA4113697A43EA011343EA8213236147
S315080020A0E068D5E9053720F0F0403B4320F470207E
S315080020B00343287B697B43EA802343EAC133E36011
S315080020C0A368F07B23F00303034343F00103A360F3
S315080020D06B88A06803F4C0430343A360A3686879C8
S315080020E043EA8023A360AB79EF79606A1B013F025C
S315080020F003F0700307F4E06720F4772020F4EE601D
S315080021003B430343287A000300F4E0400343687F17
S31508002110000400F47020034363626369307B23F094
S315080021200F03034363616B89A36181BBC2B1284B6B
S315080021309C4236D0274B9C4244D011E0042B86D8CB
S31508002140F3216EE7A368F27B23F00303134343F0FE
S315080021500103A3606369327B23F00F0313436361B2
S31508002160D6E901122046FFF755FE05212046FFF75E
S315080021701BFE2821204600F093FB3378A36300F06A
S315080021808FFBA36CDB4313F4405FFAD1F8BD104B09
S315080021909C420CD1AB7B144903F00F034B67002A12
S315080021A0DED02B7C104A03F00F031367D8E7094BE0
S315080021B09C42D5D1AB7B0C4903F00F03C1F88030A4
S315080021C0002ACDD02B7C084A03F00F03D367C7E754
S315080021D00000015B00000A508A2C0008002D31011E
S315080021E0809698003F4B4C000090035010B504466B
S315080021F020B94FF40371104800F02CFB2378C3B1C3
S31508002200013BDBB2022B06D80C4A32F8133062784F
S31508002210D340DB0704D440F20D21074800F01AFB2F
S315080022200122637821789A4030235943044B5A5047
S3150800223010BDFF23EBE700BFDB2C00088C2D000840
S3150800224040E00350034BD3F82424D3F8200410406D
S31508002250704700BF00C003502DE9F04103780446DB
S315080022600D46164613B3013BDBB2022B06D82A4AA3
S3150800227032F813306278D340DB0703D45921274854
S3150800228000F0E8FA264BD3F810331BB15A2123483D
S3150800229000F0E0FA0F2D0BD8DFE805F036313131C2
S315080022A0313131313131313131313131FF23E1E7EA
S315080022B0AE211A4800F0CEFA4FF00008204606B3C1
S315080022C000F0EAFB0F2167782378072F03EB430317
S315080022D088BF083F4FEA0313124895BFBF00BF00E7
S315080022E004330C3308FA07F2B940184400F000FB2F
S315080022F085B9204656B1BDE8F04100F0CDBBA846E9
S31508002300DCE7FFF773FFDDE7A846DBE7BDE8F0414A
S31508002310FFF76CBFBDE8F0818C2D0008332D00084F
S3150800232000C0035030C0035070B50D46E8B10368CD
S3150800233013F4E07F03F03F06C3F3821210D0012A9C
S3150800234013D10B4C9B0603D591210A4800F082FA5B
S3150800235045B104F5805401230020B340236070BDC5
S31508002360054CEFE704F50054F5E70E20F7E700BF44
S3150800237068800050922D00086480005070B58AB0BD
S31508002380894800F0C6FA0646002840F0E0806C4608
S31508002390864D0FCD0FC42B682360FF238DF80130BF
S315080023A0834BD3F84C21500300F1F180D3F8503118
S315080023B08DF801609DF801306C46FF2B08BF3F235E
S315080023C068467C4D8DF80130FFF7B2F83220FFF7EA
S315080023D011F90FCD0FC40FCD0FC495E8030084E89B
S315080023E00300734BD3F84C21110340F1B380A3F5D6
S315080023F0FE431C88B4F5807F28BF8C248DF81940CD
S31508002400FFF790F8044484F308046B488DF81840E5
S31508002410FEF77AF86846FEF773FF3220FFF7F0F802
S315080024206648FFF713FA6648FFF79EFA654C0121DE
S315080024303620FEF709FD0020FFF7E8F8FFF7BCF99C
S31508002440236F002023F0070343F003032367FFF7F6
S31508002450DDF9236F23F4744323675B4BD3F8FC2021
S31508002460D2017BD4D4F8803023F0030343F0010370
S31508002470C4F88030D4F88030C4F88030514CD4F891
S31508002480203123F0070343F00203C4F82031D4F8BF
S31508002490283123F0070343F00203C4F82831D4F89F
S315080024A0803123F0030343F00103C4F88031D4F8E4
S315080024B0403123F0030343F00203C4F84031D4F853
S315080024C0603123F0030343F00203C4F86031D4F803
S315080024D0403223F0030343F00203C4F84032D4F831
S315080024E0003223F0070343F00203C4F80032D4F89D
S315080024F0083223F0070343F00203C4F80832D4F87D
S31508002500703223F0030343F00103C4F87032D4F8A1
S31508002510203223F0070343F00103C4F82032FEF704
S31508002520D7FE4FF0E022136943F004031361D4F891
S31508002530603223F0070343F00103C4F86032D4F88D
S31508002540943223F0070343F00103C4F8943230466B
S315080025500AB070BDD3F85041E4B24FE7D3F8FC2077
S3150800256022F08072C3F8FC20D4F8802022F00302FF
S3150800257042F00102C4F88020D4F88020C4F88020F4
S31508002580D3F8FC2042F08072C3F8FC2076E74FF0BF
S315080025907E6393F89C2093F99C30002BFFF60AAFD4
S315080025A08DF8012006E700BF242E0008E02D00085C
S315080025B00080E00FF42D0008C017530200B4C404CD
S315080025C0C0EA21010080005000ED00E007B5094B84
S315080025D018689A889B7900906846ADF804208DF8AB
S315080025E00630FFF749FB0C20FFF77EFB002003B0FF
S315080025F05DF804FB1C2E000813B50024064A68463D
S31508002600536F43F00103536700948DF80440FFF7B6
S3150800261067FA204602B010BD0040005010B54C289D
S31508002620044608D801236109074A04F01F04A34099
S3150800263042F8213010BD4FF49471044800F00AF9AD
S31508002640002CF7DBEEE700BF00E100E0302E0008C3
S3150800265010B54B28044604D940F23311064800F059
S31508002660F9F8064B621153F8220004F01F04E04003
S31508002670C04300F0010010BD302E000800E100E064
S31508002680002808DB01224309034900F01F008240A5
S31508002690603341F82320704700E100E038B500F1C7
S315080026A010035C2B04460D4604D94FF4EB710D4814
S315080026B000F0D0F80F2D04D940F2D711094800F0E0
S315080026C0C9F8002CACBF04F16044074B4FEA051566
S315080026D0EDB2ABBF04F5614404F00F0484F800536F
S315080026E01D5538BD302E000814ED00E010B500F079
S315080026F013FA0A4B1A786AB901226FF004041A70A1
S3150800270000F005FA204605210134FFF7C7FF4C2CD7
S31508002710F8D110BDBDE8104000F0F9B987110020C6
S3150800272010B5044600F046F94FF47A729042B0FBB1
S31508002730F2F105D23621BDE810400C4800F08AB8FF
S315080027400B4BB3FBF1F30B49884201D93C21F2E765
S3150800275002FB04F0B0FBF3F0022806D9BDE81040EE
S315080027600323B0FBF3F0FDF703BD10BDA82E000848
S3150800277040420F00E7CD9A3B08B5064B044613B115
S315080027800021AFF30080044B1B6803B1984720462D
S3150800279000F061F8000000008011002070B50D4DB2
S315080027A000260D4C641BA410A64209D10B4D002629
S315080027B00B4C00F0C5F9641BA410A64205D170BDE8
S315080027C055F8043B01369847EEE755F8043B0136C1
S315080027D09847F2E7A0110020A0110020A0110020C0
S315080027E0A41100207047704708B500F09CF8FFF761
S315080027F0F9FF00F0A5F8FFF7F6FFFAE7704708B506
S31508002800FFF774FFFDF74AFD00F08BF8FFF7DEFED1
S3150800281000F07DF8FFF7F0FEBDE80840FDF732BD91
S31508002820FDF7B0BE00F006B87047704770477047AE
S31508002830704770470F207047FEE700239A4200D181
S31508002840704710B550F8234041F8234001339A42A7
S31508002850F8D110BDFEE7FEE770B5054614460E46EC
S3150800286000F051F92B685C4034405C402C60BDE8B0
S31508002870704000F043B908B500F0AEF8BDE808406E
S315080028800021FEF7B5BA0029CCBF01210021FEF7C9
S31508002890AFBA02214FF42070FEF7F8BE70477047B2
S315080028A0436D0B42FCD1704708B54368DA0714D567
S315080028B08368DB0702D50369D90707D50A235021A0
S315080028C08363FFF7EDFF836C9A07FCD1012200F5BD
S315080028D000535A6043689B07FCD408BD836C5A06AC
S315080028E0FCD54164836C1B06FCD5C06B80B270476F
S315080028F070B5054614460E4600F005F92B685C408F
S3150800290034405C402C60BDE8704000F0F7B800F039
S3150800291006B80121FFF708BD0021FFF705BD002015
S315080029207047FFF72BBD08B5FFF769FFFFF778FF7C
S31508002930FFF778FFFFF778FFBDE80840FFF775BF98
S3150800294008B5FFF773FFFFF772FFFFF771FFBDE8E2
S315080029500840FFF76EBF02440346934200D1704712
S3150800296003F8011BF9E70000014B1868704700BF20
S315080029708C1100200A4B1B6F03F00703013B032B46
S3150800298003D8DFE803F00A030608FEE7054B1868D4
S315080029907047054BFBE7054870470548704700BF79
S315080029A0008000508C1100209411002080D543022D
S315080029B0002D310108B5FFF7DDFF054B1B6FC3F38B
S315080029C003330133B0FBF3F0024B186008BD00BFB8
S315080029D000800050881100200048704700B4C404E5
S315080029E000487047002D3101014B1868704700BF39
S315080029F0941100200048704780D543024FF4002206
S31508002A00184B5A664FF0B4439868C0F304400C2834
S31508002A100AD8DFE800F00B0909090909072119098D
S31508002A201B1D1F0010487047002070479B6803F065
S31508002A304073B3F1807F11D0B3F1007F10D00B4AF9
S31508002A40002B08BF10467047094870470948704769
S31508002A500948704709487047094870470948704748
S31508002A600948704700900050405DC60000093D00C7
S31508002A70C0EA210180BA8C010048E801005A6202C6
S31508002A800024F40080841E0040420F00014B1868A1
S31508002A90704700BF9011002010B5044620B940F2D7
S31508002AA0A3111048FFF7D6FE2378C3B1013BDBB26A
S31508002AB0022B06D80C4A32F813306278D340DB076B
S31508002AC004D44FF4D2710748FFF7C4FE0122637895
S31508002AD021789A4030235943044B5A5010BDFF239E
S31508002AE0EBE700BFDB2C00088C2D000840D0035014
S31508002AF04FF4004070474FF47A70704710B962B6C9
S31508002B00BFF36F8F7047EFF3108072B6704780F38C
S31508002B101188BFF36F8F7047EFF31180302383F36B
S31508002B201188704700000000000000000000000047
S31508002B300000000000000000000000000000000087
S31508002B40F8B500BFF8BC08BC9E467047F8B500BF8C
S31508002B50F8BC08BC9E46704705000000000000004F
S31508002B6080969800020100000000000000000000A6
S31508002B700100000000000000000000000100000045
S31508002B800000000000000000010400000203020229
S31508002B900201433A2F55736572732F6E76642F536D
S31508002BA0696D706C696369747953747564696F2F9C
S31508002BB053444B732F73696D706C69636974795FDD
S31508002BC073646B2F706C6174666F726D2F647269B3
S31508002BD07665722F6770696F2F7372632F736C5FD8
S31508002BE06770696F2E6300000F00FF033F00433ACA
S31508002BF02F55736572732F6E76642F53696D706CDB
S31508002C00696369747953747564696F2F53444B7398
S31508002C102F73696D706C69636974795F73646B2F60
S31508002C20706C6174666F726D2F656D6C69622F7357
S31508002C3072632F656D5F636D752E6300433A2F557A
S31508002C40736572732F6E76642F53696D706C696342
S31508002C5069747953747564696F2F53444B732F7372
S31508002C60696D706C69636974795F73646B2F706CD6
S31508002C706174666F726D2F656D6C69622F7372630E
S31508002C802F656D5F656D752E6300433A2F55736525
S31508002C9072732F6E76642F53696D706C69636974ED
S31508002CA07953747564696F2F53444B732F73696D29
S31508002CB0706C69636974795F73646B2F706C617487
S31508002CC0666F726D2F656D6C69622F7372632F65FF
S31508002CD06D5F6575736172742E6300633A5C757314
S31508002CE06572735C6E76645C73696D706C69636932
S31508002CF0747973747564696F5C73646B735C7369F8
S31508002D006D706C69636974795F73646B5C706C6110
S31508002D1074666F726D5C7065726970686572616CF5
S31508002D205C696E635C736C5F68616C5F6770696F22
S31508002D302E6800433A2F55736572732F6E76642F8B
S31508002D4053696D706C696369747953747564696FD6
S31508002D502F53444B732F73696D706C69636974796B
S31508002D605F73646B2F706C6174666F726D2F70651C
S31508002D70726970686572616C2F7372632F736C5F0A
S31508002D8068616C5F6770696F2E6300000F00FF0350
S31508002D903F00633A5C75736572735C6E76645C7348
S31508002DA0696D706C696369747973747564696F5C4D
S31508002DB073646B735C73696D706C69636974795F4E
S31508002DC073646B5C706C6174666F726D5C656D6C58
S31508002DD069625C696E635C656D5F6275732E680017
S31508002DE001260000040000000000000000010000A9
S31508002DF0000000000B0000000C00000003000000AB
S31508002E000000202000000000030000003C3C3C00BD
S31508002E10000000000000000000000000010310018F
S31508002E20010903001E0000001A00000057000000F8
S31508002E30433A2F55736572732F6E76642F53696DF7
S31508002E40706C696369747953747564696F2F534438
S31508002E504B732F73696D706C69636974795F7364FA
S31508002E606B2F706C6174666F726D2F7365727669FD
S31508002E7063652F696E746572727570745F6D616EC5
S31508002E80616765722F7372632F736C5F696E746501
S31508002E9072727570745F6D616E616765725F636F7C
S31508002EA0727465786D2E6300433A2F557365727395
S31508002EB02F6E76642F53696D706C696369747953E4
S31508002EC0747564696F2F53444B732F73696D706CF7
S31508002ED069636974795F73646B2F706C6174666F6C
S31508002EE0726D2F736572766963652F7564656C619B
S31508002EF0792F7372632F736C5F7564656C61792EB5
S30908002F00630000005C
S30D08002F0404D3FF7F0100000061
S31108002F0C182F000888110020080000009B
S31508002F18C0EA2101C0EA210100800000C017530257
S31508002F28FFFFFFFF28000000E5010008BD010008B3
S70508000435B9
